{
  "contractName": "Lottery",
  "abi": [
    {
      "inputs": [
        {
          "internalType": "uint256",
          "name": "_prizeValue",
          "type": "uint256"
        },
        {
          "internalType": "uint256",
          "name": "_minimumAmountInBusd",
          "type": "uint256"
        },
        {
          "internalType": "address",
          "name": "_manager",
          "type": "address"
        }
      ],
      "stateMutability": "nonpayable",
      "type": "constructor"
    },
    {
      "anonymous": false,
      "inputs": [
        {
          "indexed": false,
          "internalType": "address",
          "name": "playerAddress",
          "type": "address"
        }
      ],
      "name": "PlayerParticipated",
      "type": "event"
    },
    {
      "inputs": [
        {
          "internalType": "uint256",
          "name": "_amount",
          "type": "uint256"
        },
        {
          "internalType": "address",
          "name": "_particpant",
          "type": "address"
        }
      ],
      "name": "participate",
      "outputs": [],
      "stateMutability": "nonpayable",
      "type": "function"
    },
    {
      "inputs": [],
      "name": "declareWinner",
      "outputs": [
        {
          "internalType": "address",
          "name": "",
          "type": "address"
        }
      ],
      "stateMutability": "nonpayable",
      "type": "function"
    },
    {
      "inputs": [],
      "name": "getEntriesRequired",
      "outputs": [
        {
          "internalType": "uint256",
          "name": "",
          "type": "uint256"
        }
      ],
      "stateMutability": "view",
      "type": "function"
    },
    {
      "inputs": [],
      "name": "getAll",
      "outputs": [
        {
          "internalType": "address[]",
          "name": "",
          "type": "address[]"
        }
      ],
      "stateMutability": "view",
      "type": "function"
    },
    {
      "inputs": [],
      "name": "getPrizeValue",
      "outputs": [
        {
          "internalType": "uint256",
          "name": "",
          "type": "uint256"
        }
      ],
      "stateMutability": "view",
      "type": "function"
    },
    {
      "inputs": [],
      "name": "getMinimumAmountInBusd",
      "outputs": [
        {
          "internalType": "uint256",
          "name": "",
          "type": "uint256"
        }
      ],
      "stateMutability": "view",
      "type": "function"
    },
    {
      "inputs": [],
      "name": "getTimestampForLatsEntry",
      "outputs": [
        {
          "internalType": "uint256",
          "name": "",
          "type": "uint256"
        }
      ],
      "stateMutability": "view",
      "type": "function"
    },
    {
      "inputs": [],
      "name": "getUnstakingCount",
      "outputs": [
        {
          "internalType": "uint256",
          "name": "",
          "type": "uint256"
        }
      ],
      "stateMutability": "view",
      "type": "function"
    },
    {
      "inputs": [
        {
          "internalType": "uint256",
          "name": "delta",
          "type": "uint256"
        }
      ],
      "name": "incrementUnstakingCount",
      "outputs": [],
      "stateMutability": "nonpayable",
      "type": "function"
    }
  ],
  "bytecode": "0x60806040523480156200001157600080fd5b50604051620011f6380380620011f6833981810160405281019062000037919062000118565b826000819055508160018190555062000067670de0b6b3a764000084620000d260201b620007bf1790919060201c565b60038190555080600260006101000a81548173ffffffffffffffffffffffffffffffffffffffff021916908373ffffffffffffffffffffffffffffffffffffffff1602179055506001600560006101000a81548160ff02191690831515021790555050505062000247565b60008183620000e291906200016e565b905092915050565b600081519050620000fb8162000213565b92915050565b60008151905062000112816200022d565b92915050565b6000806000606084860312156200012e57600080fd5b60006200013e8682870162000101565b9350506020620001518682870162000101565b92505060406200016486828701620000ea565b9150509250925092565b60006200017b82620001da565b91506200018883620001da565b9250826200019b576200019a620001e4565b5b828204905092915050565b6000620001b382620001ba565b9050919050565b600073ffffffffffffffffffffffffffffffffffffffff82169050919050565b6000819050919050565b7f4e487b7100000000000000000000000000000000000000000000000000000000600052601260045260246000fd5b6200021e81620001a6565b81146200022a57600080fd5b50565b6200023881620001da565b81146200024457600080fd5b50565b610f9f80620002576000396000f3fe608060405234801561001057600080fd5b50600436106100925760003560e01c806353ed51431161006657806353ed51431461010d57806396df6bbe1461012b578063b8760e6b14610149578063d45bec4b14610167578063fe9132ea1461018557610092565b80624e3fa21461009757806313b18640146100b557806314034bd2146100d15780632ba97638146100ef575b600080fd5b61009f6101a1565b6040516100ac9190610cfd565b60405180910390f35b6100cf60048036038101906100ca91906108a1565b6101ab565b005b6100d96104e1565b6040516100e69190610be0565b60405180910390f35b6100f7610660565b6040516101049190610cfd565b60405180910390f35b61011561066a565b6040516101229190610bfb565b60405180910390f35b6101336106f8565b6040516101409190610cfd565b60405180910390f35b610151610702565b60405161015e9190610cfd565b60405180910390f35b61016f61070b565b60405161017c9190610cfd565b60405180910390f35b61019f600480360381019061019a9190610878565b610715565b005b6000600954905090565b600060035414156101f1576040517f08c379a00000000000000000000000000000000000000000000000000000000081526004016101e890610c5d565b60405180910390fd5b600560009054906101000a900460ff16610240576040517f08c379a000000000000000000000000000000000000000000000000000000000815260040161023790610c9d565b60405180910390fd5b600760008273ffffffffffffffffffffffffffffffffffffffff1673ffffffffffffffffffffffffffffffffffffffff16815260200190815260200160002060009054906101000a900460ff16156102cd576040517f08c379a00000000000000000000000000000000000000000000000000000000081526004016102c490610c3d565b60405180910390fd5b60006102ea670de0b6b3a7640000846107bf90919063ffffffff16565b9050806003541015610331576040517f08c379a000000000000000000000000000000000000000000000000000000000815260040161032890610cbd565b60405180910390fd5b60005b818110156103bb578260066000600454815260200190815260200160002060006101000a81548173ffffffffffffffffffffffffffffffffffffffff021916908373ffffffffffffffffffffffffffffffffffffffff160217905550600460008154809291906103a390610e59565b919050555080806103b390610e59565b915050610334565b50600a829080600181540180825580915050600190039060005260206000200160009091909190916101000a81548173ffffffffffffffffffffffffffffffffffffffff021916908373ffffffffffffffffffffffffffffffffffffffff1602179055506001600760008473ffffffffffffffffffffffffffffffffffffffff1673ffffffffffffffffffffffffffffffffffffffff16815260200190815260200160002060006101000a81548160ff02191690831515021790555061048c816003546107d590919063ffffffff16565b600381905550600060035414156104a557426008819055505b7f609ccaad0d5a048d24b2ea393937b393e3ad528ec64eca22004023379ea26f42826040516104d49190610be0565b60405180910390a1505050565b6000600260009054906101000a900473ffffffffffffffffffffffffffffffffffffffff1673ffffffffffffffffffffffffffffffffffffffff163373ffffffffffffffffffffffffffffffffffffffff161461053d57600080fd5b600560009054906101000a900460ff1661058c576040517f08c379a000000000000000000000000000000000000000000000000000000000815260040161058390610cdd565b60405180910390fd5b6000600354146105d1576040517f08c379a00000000000000000000000000000000000000000000000000000000081526004016105c890610c1d565b60405180910390fd5b6000600560006101000a81548160ff021916908315150217905550600061062461060e670de0b6b3a76400006000546107bf90919063ffffffff16565b6106166107eb565b61082290919063ffffffff16565b90506006600082815260200190815260200160002060009054906101000a900473ffffffffffffffffffffffffffffffffffffffff1691505090565b6000600354905090565b6060600a8054806020026020016040519081016040528092919081815260200182805480156106ee57602002820191906000526020600020905b8160009054906101000a900473ffffffffffffffffffffffffffffffffffffffff1673ffffffffffffffffffffffffffffffffffffffff16815260200190600101908083116106a4575b5050505050905090565b6000600854905090565b60008054905090565b6000600154905090565b600760003273ffffffffffffffffffffffffffffffffffffffff1673ffffffffffffffffffffffffffffffffffffffff16815260200190815260200160002060009054906101000a900460ff166107a1576040517f08c379a000000000000000000000000000000000000000000000000000000000815260040161079890610c7d565b60405180910390fd5b6107b68160095461083890919063ffffffff16565b60098190555050565b600081836107cd9190610db8565b905092915050565b600081836107e39190610de9565b905092915050565b6000444260005460405160200161080493929190610ba3565b6040516020818303038152906040528051906020012060001c905090565b600081836108309190610eac565b905092915050565b600081836108469190610d62565b905092915050565b60008135905061085d81610f3b565b92915050565b60008135905061087281610f52565b92915050565b60006020828403121561088a57600080fd5b600061089884828501610863565b91505092915050565b600080604083850312156108b457600080fd5b60006108c285828601610863565b92505060206108d38582860161084e565b9150509250929050565b60006108e983836108f5565b60208301905092915050565b6108fe81610e1d565b82525050565b61090d81610e1d565b82525050565b600061091e82610d28565b6109288185610d40565b935061093383610d18565b8060005b8381101561096457815161094b88826108dd565b975061095683610d33565b925050600181019050610937565b5085935050505092915050565b600061097e601783610d51565b91507f636f6e74657874206973206e6f742066756c6c207965740000000000000000006000830152602082019050919050565b60006109be601483610d51565b91507f416c7265616479207061727469636970617465640000000000000000000000006000830152602082019050919050565b60006109fe600f83610d51565b91507f636f6e746578742069732066756c6c00000000000000000000000000000000006000830152602082019050919050565b6000610a3e602f83610d51565b91507f5468652063616c6c6572206973206e6f74207061727469636970616e7420666f60008301527f6f722074686973206c6f747465727900000000000000000000000000000000006020830152604082019050919050565b6000610aa4601d83610d51565b91507f636f6e74657874206973206e6f742061637469766520616e796d6f72650000006000830152602082019050919050565b6000610ae4603283610d51565b91507f656e74726565206665652073686f756c6420626520736d616c6c65722074686160008301527f6e20656e747269657320726571756972656400000000000000000000000000006020830152604082019050919050565b6000610b4a601d83610d51565b91507f436f6e74657874206973206e6f742061637469766520616e796d6f72650000006000830152602082019050919050565b610b8681610e4f565b82525050565b610b9d610b9882610e4f565b610ea2565b82525050565b6000610baf8286610b8c565b602082019150610bbf8285610b8c565b602082019150610bcf8284610b8c565b602082019150819050949350505050565b6000602082019050610bf56000830184610904565b92915050565b60006020820190508181036000830152610c158184610913565b905092915050565b60006020820190508181036000830152610c3681610971565b9050919050565b60006020820190508181036000830152610c56816109b1565b9050919050565b60006020820190508181036000830152610c76816109f1565b9050919050565b60006020820190508181036000830152610c9681610a31565b9050919050565b60006020820190508181036000830152610cb681610a97565b9050919050565b60006020820190508181036000830152610cd681610ad7565b9050919050565b60006020820190508181036000830152610cf681610b3d565b9050919050565b6000602082019050610d126000830184610b7d565b92915050565b6000819050602082019050919050565b600081519050919050565b6000602082019050919050565b600082825260208201905092915050565b600082825260208201905092915050565b6000610d6d82610e4f565b9150610d7883610e4f565b9250827fffffffffffffffffffffffffffffffffffffffffffffffffffffffffffffffff03821115610dad57610dac610edd565b5b828201905092915050565b6000610dc382610e4f565b9150610dce83610e4f565b925082610dde57610ddd610f0c565b5b828204905092915050565b6000610df482610e4f565b9150610dff83610e4f565b925082821015610e1257610e11610edd565b5b828203905092915050565b6000610e2882610e2f565b9050919050565b600073ffffffffffffffffffffffffffffffffffffffff82169050919050565b6000819050919050565b6000610e6482610e4f565b91507fffffffffffffffffffffffffffffffffffffffffffffffffffffffffffffffff821415610e9757610e96610edd565b5b600182019050919050565b6000819050919050565b6000610eb782610e4f565b9150610ec283610e4f565b925082610ed257610ed1610f0c565b5b828206905092915050565b7f4e487b7100000000000000000000000000000000000000000000000000000000600052601160045260246000fd5b7f4e487b7100000000000000000000000000000000000000000000000000000000600052601260045260246000fd5b610f4481610e1d565b8114610f4f57600080fd5b50565b610f5b81610e4f565b8114610f6657600080fd5b5056fea2646970667358221220371bdff398e56bbec50b0f0d1f1329012a8a4c34fd2b824ec051c4c20536db7464736f6c63430008000033",
  "immutableReferences": {},
  "source": "// SPDX-License-Identifier: MIT\r\npragma solidity ^0.8.0;\r\n\r\nimport \"@openzeppelin/contracts/utils/math/SafeMath.sol\";\r\nimport \"@openzeppelin/contracts/token/ERC20/IERC20.sol\";\r\n\r\ncontract Lottery {\r\n    using SafeMath for uint256;\r\n\r\n    uint256 private prizeValue;\r\n    uint256 private minimumAmountInBusd;\r\n    address private manager;\r\n    uint256 private entriesRequired;\r\n    uint256 private currentTicketId;\r\n    bool private isActive;\r\n    mapping(uint256 => address) allParticipantsByLotteryId;\r\n    mapping(address => bool) allParticipants;\r\n    uint256 private timestampForLastEntry;\r\n    uint256 private unstakingCount;\r\n    address[] participantList;\r\n\r\n    constructor(uint256 _prizeValue, uint256 _minimumAmountInBusd,address _manager) {\r\n        prizeValue = _prizeValue;\r\n        minimumAmountInBusd=_minimumAmountInBusd;\r\n        entriesRequired = _prizeValue.div(10**18);\r\n        manager = _manager;\r\n        isActive = true;\r\n    }\r\n\r\n    function participate(uint256 _amount, address _particpant) external {\r\n        require(entriesRequired != 0, \"context is full\");\r\n        require(isActive, \"context is not active anymore\");\r\n        require(!allParticipants[_particpant], \"Already participated\");\r\n\r\n        uint256 _tickets = _amount.div(10**18);\r\n        require(\r\n            entriesRequired >= _tickets,\r\n            \"entree fee should be smaller than entries required\"\r\n        );\r\n        for (uint256 i = 0; i < _tickets; i++) {\r\n            allParticipantsByLotteryId[currentTicketId] = _particpant;\r\n            currentTicketId++;\r\n        }\r\n\r\n        participantList.push(_particpant);\r\n        allParticipants[_particpant] = true;\r\n        entriesRequired = entriesRequired.sub(_tickets);\r\n         if (entriesRequired == 0) timestampForLastEntry = block.timestamp;\r\n        emit PlayerParticipated(_particpant);\r\n    }\r\n\r\n    function declareWinner() external restricted returns(address){\r\n        require(isActive,\"Context is not active anymore\");\r\n        require(entriesRequired == 0, \"context is not full yet\");\r\n        isActive = false;\r\n        uint256 winnerTicketNo = random().mod(prizeValue.div(10**18));\r\n        return allParticipantsByLotteryId[winnerTicketNo];\r\n    }\r\n\r\n    function getEntriesRequired() external view returns(uint256){\r\n        return entriesRequired;\r\n    }\r\n\r\n      function getAll() public view returns (address[] memory) {\r\n        return participantList;\r\n    }\r\n\r\n\r\n    function random() private view returns (uint256) {\r\n        return\r\n            uint256(\r\n                keccak256(\r\n                    abi.encodePacked(\r\n                        block.difficulty,\r\n                        block.timestamp,\r\n                        prizeValue\r\n                    )\r\n                )\r\n            );\r\n    }\r\n\r\n    function getPrizeValue() external view returns(uint256) {\r\n        return prizeValue;\r\n    }\r\n\r\n    function getMinimumAmountInBusd() external view returns(uint256) {\r\n        return minimumAmountInBusd;\r\n    }\r\n     function getTimestampForLatsEntry() external view returns (uint256) {\r\n        return timestampForLastEntry;\r\n    }\r\n function getUnstakingCount() external view returns (uint256) {\r\n        return unstakingCount;\r\n    }\r\n\r\n    function incrementUnstakingCount(uint256 delta) external {\r\n        require(\r\n            allParticipants[tx.origin],\r\n            \"The caller is not participant foor this lottery\"\r\n        );\r\n        unstakingCount = unstakingCount.add(delta);\r\n    }\r\n\r\n\r\n    modifier restricted() {\r\n        require(msg.sender == manager);\r\n        _;\r\n    }\r\n    \r\n    event PlayerParticipated(\r\n        address playerAddress\r\n    );\r\n}\r\n",
  "sourcePath": "C:\\Users\\rafae\\Documents\\GitHub\\sfe\\contracts\\Lottery.sol",
  "compiler": {
    "name": "solc",
    "version": "0.8.0+commit.c7dfd78e.Emscripten.clang"
  },
  "schemaVersion": "3.4.2",
  "updatedAt": "2021-09-22T19:20:36.053Z",
  "devdoc": {
    "kind": "dev",
    "methods": {},
    "version": 1
  },
  "userdoc": {
    "kind": "user",
    "methods": {},
    "version": 1
  }
}