{
  "contractName": "Lottery",
  "abi": [
    {
      "inputs": [
        {
          "internalType": "uint256",
          "name": "_prizeValue",
          "type": "uint256"
        },
        {
          "internalType": "uint256",
          "name": "_minimumAmountInBusd",
          "type": "uint256"
        },
        {
          "internalType": "address",
          "name": "_manager",
          "type": "address"
        }
      ],
      "stateMutability": "nonpayable",
      "type": "constructor"
    },
    {
      "anonymous": false,
      "inputs": [
        {
          "indexed": false,
          "internalType": "address",
          "name": "playerAddress",
          "type": "address"
        }
      ],
      "name": "PlayerParticipated",
      "type": "event"
    },
    {
      "inputs": [
        {
          "internalType": "uint256",
          "name": "_amount",
          "type": "uint256"
        },
        {
          "internalType": "address",
          "name": "_particpant",
          "type": "address"
        }
      ],
      "name": "participate",
      "outputs": [],
      "stateMutability": "nonpayable",
      "type": "function"
    },
    {
      "inputs": [],
      "name": "declareWinner",
      "outputs": [
        {
          "internalType": "address",
          "name": "",
          "type": "address"
        }
      ],
      "stateMutability": "nonpayable",
      "type": "function"
    },
    {
      "inputs": [],
      "name": "getEntriesRequired",
      "outputs": [
        {
          "internalType": "uint256",
          "name": "",
          "type": "uint256"
        }
      ],
      "stateMutability": "view",
      "type": "function"
    },
    {
      "inputs": [],
      "name": "getPrizeValue",
      "outputs": [
        {
          "internalType": "uint256",
          "name": "",
          "type": "uint256"
        }
      ],
      "stateMutability": "view",
      "type": "function"
    },
    {
      "inputs": [],
      "name": "getMinimumAmountInBusd",
      "outputs": [
        {
          "internalType": "uint256",
          "name": "",
          "type": "uint256"
        }
      ],
      "stateMutability": "view",
      "type": "function"
    },
    {
      "inputs": [],
      "name": "getTimestampForLatsEntry",
      "outputs": [
        {
          "internalType": "uint256",
          "name": "",
          "type": "uint256"
        }
      ],
      "stateMutability": "view",
      "type": "function"
    }
  ],
  "bytecode": "0x60806040523480156200001157600080fd5b5060405162000c8938038062000c89833981810160405281019062000037919062000118565b826000819055508160018190555062000067670de0b6b3a764000084620000d260201b620004ad1790919060201c565b60038190555080600260006101000a81548173ffffffffffffffffffffffffffffffffffffffff021916908373ffffffffffffffffffffffffffffffffffffffff1602179055506001600660006101000a81548160ff02191690831515021790555050505062000247565b60008183620000e291906200016e565b905092915050565b600081519050620000fb8162000213565b92915050565b60008151905062000112816200022d565b92915050565b6000806000606084860312156200012e57600080fd5b60006200013e8682870162000101565b9350506020620001518682870162000101565b92505060406200016486828701620000ea565b9150509250925092565b60006200017b82620001da565b91506200018883620001da565b9250826200019b576200019a620001e4565b5b828204905092915050565b6000620001b382620001ba565b9050919050565b600073ffffffffffffffffffffffffffffffffffffffff82169050919050565b6000819050919050565b7f4e487b7100000000000000000000000000000000000000000000000000000000600052601260045260246000fd5b6200021e81620001a6565b81146200022a57600080fd5b50565b6200023881620001da565b81146200024457600080fd5b50565b610a3280620002576000396000f3fe608060405234801561001057600080fd5b50600436106100625760003560e01c806313b186401461006757806314034bd2146100835780632ba97638146100a157806396df6bbe146100bf578063b8760e6b146100dd578063d45bec4b146100fb575b600080fd5b610081600480360381019061007c9190610550565b610119565b005b61008b610307565b6040516100989190610764565b60405180910390f35b6100a9610486565b6040516100b6919061081f565b60405180910390f35b6100c7610490565b6040516100d4919061081f565b60405180910390f35b6100e561049a565b6040516100f2919061081f565b60405180910390f35b6101036104a3565b604051610110919061081f565b60405180910390f35b6000600354141561015f576040517f08c379a00000000000000000000000000000000000000000000000000000000081526004016101569061079f565b60405180910390fd5b600660009054906101000a900460ff166101ae576040517f08c379a00000000000000000000000000000000000000000000000000000000081526004016101a5906107bf565b60405180910390fd5b60006101cb670de0b6b3a7640000846104ad90919063ffffffff16565b9050806003541015610212576040517f08c379a0000000000000000000000000000000000000000000000000000000008152600401610209906107df565b60405180910390fd5b60005b8181101561029c578260076000600454815260200190815260200160002060006101000a81548173ffffffffffffffffffffffffffffffffffffffff021916908373ffffffffffffffffffffffffffffffffffffffff16021790555060046000815480929190610284906108ec565b91905055508080610294906108ec565b915050610215565b506102b2816003546104c390919063ffffffff16565b600381905550600060035414156102cb57426005819055505b7f609ccaad0d5a048d24b2ea393937b393e3ad528ec64eca22004023379ea26f42826040516102fa9190610764565b60405180910390a1505050565b6000600260009054906101000a900473ffffffffffffffffffffffffffffffffffffffff1673ffffffffffffffffffffffffffffffffffffffff163373ffffffffffffffffffffffffffffffffffffffff161461036357600080fd5b600660009054906101000a900460ff166103b2576040517f08c379a00000000000000000000000000000000000000000000000000000000081526004016103a9906107ff565b60405180910390fd5b6000600354146103f7576040517f08c379a00000000000000000000000000000000000000000000000000000000081526004016103ee9061077f565b60405180910390fd5b6000600660006101000a81548160ff021916908315150217905550600061044a610434670de0b6b3a76400006000546104ad90919063ffffffff16565b61043c6104d9565b61051090919063ffffffff16565b90506007600082815260200190815260200160002060009054906101000a900473ffffffffffffffffffffffffffffffffffffffff1691505090565b6000600354905090565b6000600554905090565b60008054905090565b6000600154905090565b600081836104bb919061084b565b905092915050565b600081836104d1919061087c565b905092915050565b600044426000546040516020016104f293929190610727565b6040516020818303038152906040528051906020012060001c905090565b6000818361051e919061093f565b905092915050565b600081359050610535816109ce565b92915050565b60008135905061054a816109e5565b92915050565b6000806040838503121561056357600080fd5b60006105718582860161053b565b925050602061058285828601610526565b9150509250929050565b610595816108b0565b82525050565b60006105a860178361083a565b91507f636f6e74657874206973206e6f742066756c6c207965740000000000000000006000830152602082019050919050565b60006105e8600f8361083a565b91507f636f6e746578742069732066756c6c00000000000000000000000000000000006000830152602082019050919050565b6000610628601d8361083a565b91507f636f6e74657874206973206e6f742061637469766520616e796d6f72650000006000830152602082019050919050565b600061066860328361083a565b91507f656e74726565206665652073686f756c6420626520736d616c6c65722074686160008301527f6e20656e747269657320726571756972656400000000000000000000000000006020830152604082019050919050565b60006106ce601d8361083a565b91507f436f6e74657874206973206e6f742061637469766520616e796d6f72650000006000830152602082019050919050565b61070a816108e2565b82525050565b61072161071c826108e2565b610935565b82525050565b60006107338286610710565b6020820191506107438285610710565b6020820191506107538284610710565b602082019150819050949350505050565b6000602082019050610779600083018461058c565b92915050565b600060208201905081810360008301526107988161059b565b9050919050565b600060208201905081810360008301526107b8816105db565b9050919050565b600060208201905081810360008301526107d88161061b565b9050919050565b600060208201905081810360008301526107f88161065b565b9050919050565b60006020820190508181036000830152610818816106c1565b9050919050565b60006020820190506108346000830184610701565b92915050565b600082825260208201905092915050565b6000610856826108e2565b9150610861836108e2565b9250826108715761087061099f565b5b828204905092915050565b6000610887826108e2565b9150610892836108e2565b9250828210156108a5576108a4610970565b5b828203905092915050565b60006108bb826108c2565b9050919050565b600073ffffffffffffffffffffffffffffffffffffffff82169050919050565b6000819050919050565b60006108f7826108e2565b91507fffffffffffffffffffffffffffffffffffffffffffffffffffffffffffffffff82141561092a57610929610970565b5b600182019050919050565b6000819050919050565b600061094a826108e2565b9150610955836108e2565b9250826109655761096461099f565b5b828206905092915050565b7f4e487b7100000000000000000000000000000000000000000000000000000000600052601160045260246000fd5b7f4e487b7100000000000000000000000000000000000000000000000000000000600052601260045260246000fd5b6109d7816108b0565b81146109e257600080fd5b50565b6109ee816108e2565b81146109f957600080fd5b5056fea2646970667358221220947e177c9321d1bbaf975f3dc129462dce047238577fd0d2720204fcf1f2253364736f6c63430008000033",
  "immutableReferences": {},
  "source": "// SPDX-License-Identifier: MIT\r\npragma solidity ^0.8.0;\r\n\r\nimport \"@openzeppelin/contracts/utils/math/SafeMath.sol\";\r\nimport \"@openzeppelin/contracts/token/ERC20/IERC20.sol\";\r\n\r\ncontract Lottery {\r\n    using SafeMath for uint256;\r\n\r\n    uint256 private prizeValue;\r\n    uint256 private minimumAmountInBusd;\r\n    address private manager;\r\n    uint256 private entriesRequired;\r\n    uint256 private currentTicketId;\r\n    uint256 private timestampForLastEntry;\r\n    bool private isActive;\r\n    mapping(uint256 => address) allParticipants;\r\n\r\n    constructor(uint256 _prizeValue, uint256 _minimumAmountInBusd,address _manager) {\r\n        prizeValue = _prizeValue;\r\n        minimumAmountInBusd=_minimumAmountInBusd;\r\n        entriesRequired = _prizeValue.div(10**18);\r\n        manager = _manager;\r\n        isActive = true;\r\n    }\r\n\r\n    function participate(uint256 _amount, address _particpant) external {\r\n        require(entriesRequired != 0, \"context is full\");\r\n        require(isActive, \"context is not active anymore\");\r\n\r\n        uint256 _tickets = _amount.div(10**18);\r\n        require(\r\n            entriesRequired >= _tickets,\r\n            \"entree fee should be smaller than entries required\"\r\n        );\r\n        for (uint256 i = 0; i < _tickets; i++) {\r\n            allParticipants[currentTicketId] = _particpant;\r\n            currentTicketId++;\r\n        }\r\n        entriesRequired = entriesRequired.sub(_tickets);\r\n         if (entriesRequired == 0) timestampForLastEntry = block.timestamp;\r\n        emit PlayerParticipated(_particpant);\r\n    }\r\n\r\n    function declareWinner() external restricted returns(address){\r\n        require(isActive,\"Context is not active anymore\");\r\n        require(entriesRequired == 0, \"context is not full yet\");\r\n        isActive = false;\r\n        uint256 winnerTicketNo = random().mod(prizeValue.div(10**18));\r\n        return allParticipants[winnerTicketNo];\r\n    }\r\n\r\n    function getEntriesRequired() external view returns(uint256){\r\n        return entriesRequired;\r\n    }\r\n\r\n    function random() private view returns (uint256) {\r\n        return\r\n            uint256(\r\n                keccak256(\r\n                    abi.encodePacked(\r\n                        block.difficulty,\r\n                        block.timestamp,\r\n                        prizeValue\r\n                    )\r\n                )\r\n            );\r\n    }\r\n\r\n    function getPrizeValue() external view returns(uint256) {\r\n        return prizeValue;\r\n    }\r\n\r\n    function getMinimumAmountInBusd() external view returns(uint256) {\r\n        return minimumAmountInBusd;\r\n    }\r\n     function getTimestampForLatsEntry() external view returns (uint256) {\r\n        return timestampForLastEntry;\r\n    }\r\n\r\n\r\n    modifier restricted() {\r\n        require(msg.sender == manager);\r\n        _;\r\n    }\r\n    \r\n    event PlayerParticipated(\r\n        address playerAddress\r\n    );\r\n}\r\n",
  "sourcePath": "C:\\Users\\rafae\\Documents\\GitHub\\sfe\\contracts\\Lottery.sol",
  "compiler": {
    "name": "solc",
    "version": "0.8.0+commit.c7dfd78e.Emscripten.clang"
  },
  "schemaVersion": "3.4.2",
  "updatedAt": "2021-09-17T19:29:19.750Z",
  "devdoc": {
    "kind": "dev",
    "methods": {},
    "version": 1
  },
  "userdoc": {
    "kind": "user",
    "methods": {},
    "version": 1
  }
}