{
  "contractName": "Lottery",
  "abi": [
    {
      "inputs": [
        {
          "internalType": "uint256",
          "name": "_prizeValue",
          "type": "uint256"
        },
        {
          "internalType": "uint256",
          "name": "_minimumAmountInBusd",
          "type": "uint256"
        },
        {
          "internalType": "address",
          "name": "_manager",
          "type": "address"
        }
      ],
      "stateMutability": "nonpayable",
      "type": "constructor"
    },
    {
      "anonymous": false,
      "inputs": [
        {
          "indexed": false,
          "internalType": "address",
          "name": "playerAddress",
          "type": "address"
        }
      ],
      "name": "PlayerParticipated",
      "type": "event"
    },
    {
      "inputs": [
        {
          "internalType": "uint256",
          "name": "_amount",
          "type": "uint256"
        },
        {
          "internalType": "address",
          "name": "_particpant",
          "type": "address"
        }
      ],
      "name": "participate",
      "outputs": [],
      "stateMutability": "nonpayable",
      "type": "function"
    },
    {
      "inputs": [],
      "name": "declareWinner",
      "outputs": [
        {
          "internalType": "address",
          "name": "",
          "type": "address"
        }
      ],
      "stateMutability": "nonpayable",
      "type": "function"
    },
    {
      "inputs": [],
      "name": "getEntriesRequired",
      "outputs": [
        {
          "internalType": "uint256",
          "name": "",
          "type": "uint256"
        }
      ],
      "stateMutability": "view",
      "type": "function"
    },
    {
      "inputs": [],
      "name": "getPrizeValue",
      "outputs": [
        {
          "internalType": "uint256",
          "name": "",
          "type": "uint256"
        }
      ],
      "stateMutability": "view",
      "type": "function"
    },
    {
      "inputs": [],
      "name": "getMinimumAmountInBusd",
      "outputs": [
        {
          "internalType": "uint256",
          "name": "",
          "type": "uint256"
        }
      ],
      "stateMutability": "view",
      "type": "function"
    },
    {
      "inputs": [],
      "name": "getTimestampForLatsEntry",
      "outputs": [
        {
          "internalType": "uint256",
          "name": "",
          "type": "uint256"
        }
      ],
      "stateMutability": "view",
      "type": "function"
    },
    {
      "inputs": [],
      "name": "getUnstakingCount",
      "outputs": [
        {
          "internalType": "uint256",
          "name": "",
          "type": "uint256"
        }
      ],
      "stateMutability": "view",
      "type": "function"
    },
    {
      "inputs": [
        {
          "internalType": "uint256",
          "name": "delta",
          "type": "uint256"
        }
      ],
      "name": "incrementUnstakingCount",
      "outputs": [],
      "stateMutability": "nonpayable",
      "type": "function"
    }
  ],
  "bytecode": "0x60806040523480156200001157600080fd5b5060405162000f0f38038062000f0f833981810160405281019062000037919062000118565b826000819055508160018190555062000067670de0b6b3a764000084620000d260201b620006181790919060201c565b60038190555080600260006101000a81548173ffffffffffffffffffffffffffffffffffffffff021916908373ffffffffffffffffffffffffffffffffffffffff1602179055506001600560006101000a81548160ff02191690831515021790555050505062000247565b60008183620000e291906200016e565b905092915050565b600081519050620000fb8162000213565b92915050565b60008151905062000112816200022d565b92915050565b6000806000606084860312156200012e57600080fd5b60006200013e8682870162000101565b9350506020620001518682870162000101565b92505060406200016486828701620000ea565b9150509250925092565b60006200017b82620001da565b91506200018883620001da565b9250826200019b576200019a620001e4565b5b828204905092915050565b6000620001b382620001ba565b9050919050565b600073ffffffffffffffffffffffffffffffffffffffff82169050919050565b6000819050919050565b7f4e487b7100000000000000000000000000000000000000000000000000000000600052601260045260246000fd5b6200021e81620001a6565b81146200022a57600080fd5b50565b6200023881620001da565b81146200024457600080fd5b50565b610cb880620002576000396000f3fe608060405234801561001057600080fd5b50600436106100875760003560e01c806396df6bbe1161005b57806396df6bbe14610102578063b8760e6b14610120578063d45bec4b1461013e578063fe9132ea1461015c57610087565b80624e3fa21461008c57806313b18640146100aa57806314034bd2146100c65780632ba97638146100e4575b600080fd5b610094610178565b6040516100a19190610a4f565b60405180910390f35b6100c460048036038101906100bf91906106fa565b610182565b005b6100ce6103c8565b6040516100db9190610974565b60405180910390f35b6100ec610547565b6040516100f99190610a4f565b60405180910390f35b61010a610551565b6040516101179190610a4f565b60405180910390f35b61012861055b565b6040516101359190610a4f565b60405180910390f35b610146610564565b6040516101539190610a4f565b60405180910390f35b610176600480360381019061017191906106d1565b61056e565b005b6000600954905090565b600060035414156101c8576040517f08c379a00000000000000000000000000000000000000000000000000000000081526004016101bf906109af565b60405180910390fd5b600560009054906101000a900460ff16610217576040517f08c379a000000000000000000000000000000000000000000000000000000000815260040161020e906109ef565b60405180910390fd5b6000610234670de0b6b3a76400008461061890919063ffffffff16565b905080600354101561027b576040517f08c379a000000000000000000000000000000000000000000000000000000000815260040161027290610a0f565b60405180910390fd5b60005b81811015610305578260066000600454815260200190815260200160002060006101000a81548173ffffffffffffffffffffffffffffffffffffffff021916908373ffffffffffffffffffffffffffffffffffffffff160217905550600460008154809291906102ed90610b72565b919050555080806102fd90610b72565b91505061027e565b506001600760008473ffffffffffffffffffffffffffffffffffffffff1673ffffffffffffffffffffffffffffffffffffffff16815260200190815260200160002060006101000a81548160ff0219169083151502179055506103738160035461062e90919063ffffffff16565b6003819055506000600354141561038c57426008819055505b7f609ccaad0d5a048d24b2ea393937b393e3ad528ec64eca22004023379ea26f42826040516103bb9190610974565b60405180910390a1505050565b6000600260009054906101000a900473ffffffffffffffffffffffffffffffffffffffff1673ffffffffffffffffffffffffffffffffffffffff163373ffffffffffffffffffffffffffffffffffffffff161461042457600080fd5b600560009054906101000a900460ff16610473576040517f08c379a000000000000000000000000000000000000000000000000000000000815260040161046a90610a2f565b60405180910390fd5b6000600354146104b8576040517f08c379a00000000000000000000000000000000000000000000000000000000081526004016104af9061098f565b60405180910390fd5b6000600560006101000a81548160ff021916908315150217905550600061050b6104f5670de0b6b3a764000060005461061890919063ffffffff16565b6104fd610644565b61067b90919063ffffffff16565b90506006600082815260200190815260200160002060009054906101000a900473ffffffffffffffffffffffffffffffffffffffff1691505090565b6000600354905090565b6000600854905090565b60008054905090565b6000600154905090565b600760003273ffffffffffffffffffffffffffffffffffffffff1673ffffffffffffffffffffffffffffffffffffffff16815260200190815260200160002060009054906101000a900460ff166105fa576040517f08c379a00000000000000000000000000000000000000000000000000000000081526004016105f1906109cf565b60405180910390fd5b61060f8160095461069190919063ffffffff16565b60098190555050565b600081836106269190610ad1565b905092915050565b6000818361063c9190610b02565b905092915050565b6000444260005460405160200161065d93929190610937565b6040516020818303038152906040528051906020012060001c905090565b600081836106899190610bc5565b905092915050565b6000818361069f9190610a7b565b905092915050565b6000813590506106b681610c54565b92915050565b6000813590506106cb81610c6b565b92915050565b6000602082840312156106e357600080fd5b60006106f1848285016106bc565b91505092915050565b6000806040838503121561070d57600080fd5b600061071b858286016106bc565b925050602061072c858286016106a7565b9150509250929050565b61073f81610b36565b82525050565b6000610752601783610a6a565b91507f636f6e74657874206973206e6f742066756c6c207965740000000000000000006000830152602082019050919050565b6000610792600f83610a6a565b91507f636f6e746578742069732066756c6c00000000000000000000000000000000006000830152602082019050919050565b60006107d2602f83610a6a565b91507f5468652063616c6c6572206973206e6f74207061727469636970616e7420666f60008301527f6f722074686973206c6f747465727900000000000000000000000000000000006020830152604082019050919050565b6000610838601d83610a6a565b91507f636f6e74657874206973206e6f742061637469766520616e796d6f72650000006000830152602082019050919050565b6000610878603283610a6a565b91507f656e74726565206665652073686f756c6420626520736d616c6c65722074686160008301527f6e20656e747269657320726571756972656400000000000000000000000000006020830152604082019050919050565b60006108de601d83610a6a565b91507f436f6e74657874206973206e6f742061637469766520616e796d6f72650000006000830152602082019050919050565b61091a81610b68565b82525050565b61093161092c82610b68565b610bbb565b82525050565b60006109438286610920565b6020820191506109538285610920565b6020820191506109638284610920565b602082019150819050949350505050565b60006020820190506109896000830184610736565b92915050565b600060208201905081810360008301526109a881610745565b9050919050565b600060208201905081810360008301526109c881610785565b9050919050565b600060208201905081810360008301526109e8816107c5565b9050919050565b60006020820190508181036000830152610a088161082b565b9050919050565b60006020820190508181036000830152610a288161086b565b9050919050565b60006020820190508181036000830152610a48816108d1565b9050919050565b6000602082019050610a646000830184610911565b92915050565b600082825260208201905092915050565b6000610a8682610b68565b9150610a9183610b68565b9250827fffffffffffffffffffffffffffffffffffffffffffffffffffffffffffffffff03821115610ac657610ac5610bf6565b5b828201905092915050565b6000610adc82610b68565b9150610ae783610b68565b925082610af757610af6610c25565b5b828204905092915050565b6000610b0d82610b68565b9150610b1883610b68565b925082821015610b2b57610b2a610bf6565b5b828203905092915050565b6000610b4182610b48565b9050919050565b600073ffffffffffffffffffffffffffffffffffffffff82169050919050565b6000819050919050565b6000610b7d82610b68565b91507fffffffffffffffffffffffffffffffffffffffffffffffffffffffffffffffff821415610bb057610baf610bf6565b5b600182019050919050565b6000819050919050565b6000610bd082610b68565b9150610bdb83610b68565b925082610beb57610bea610c25565b5b828206905092915050565b7f4e487b7100000000000000000000000000000000000000000000000000000000600052601160045260246000fd5b7f4e487b7100000000000000000000000000000000000000000000000000000000600052601260045260246000fd5b610c5d81610b36565b8114610c6857600080fd5b50565b610c7481610b68565b8114610c7f57600080fd5b5056fea26469706673582212200c98fbe14faea3f9abe957cb6cc92e18046e7d6460994fc69304419bc6efae5764736f6c63430008000033",
  "immutableReferences": {},
  "source": "// SPDX-License-Identifier: MIT\r\npragma solidity ^0.8.0;\r\n\r\nimport \"@openzeppelin/contracts/utils/math/SafeMath.sol\";\r\nimport \"@openzeppelin/contracts/token/ERC20/IERC20.sol\";\r\n\r\ncontract Lottery {\r\n    using SafeMath for uint256;\r\n\r\n    uint256 private prizeValue;\r\n    uint256 private minimumAmountInBusd;\r\n    address private manager;\r\n    uint256 private entriesRequired;\r\n    uint256 private currentTicketId;\r\n    bool private isActive;\r\n    mapping(uint256 => address) allParticipantsByLotteryId;\r\n    mapping(address => bool) allParticipants;\r\n    uint256 private timestampForLastEntry;\r\n    uint256 private unstakingCount;\r\n\r\n    constructor(uint256 _prizeValue, uint256 _minimumAmountInBusd,address _manager) {\r\n        prizeValue = _prizeValue;\r\n        minimumAmountInBusd=_minimumAmountInBusd;\r\n        entriesRequired = _prizeValue.div(10**18);\r\n        manager = _manager;\r\n        isActive = true;\r\n    }\r\n\r\n    function participate(uint256 _amount, address _particpant) external {\r\n        require(entriesRequired != 0, \"context is full\");\r\n        require(isActive, \"context is not active anymore\");\r\n\r\n        uint256 _tickets = _amount.div(10**18);\r\n        require(\r\n            entriesRequired >= _tickets,\r\n            \"entree fee should be smaller than entries required\"\r\n        );\r\n        for (uint256 i = 0; i < _tickets; i++) {\r\n            allParticipantsByLotteryId[currentTicketId] = _particpant;\r\n            currentTicketId++;\r\n        }\r\n        allParticipants[_particpant] = true;\r\n        entriesRequired = entriesRequired.sub(_tickets);\r\n         if (entriesRequired == 0) timestampForLastEntry = block.timestamp;\r\n        emit PlayerParticipated(_particpant);\r\n    }\r\n\r\n    function declareWinner() external restricted returns(address){\r\n        require(isActive,\"Context is not active anymore\");\r\n        require(entriesRequired == 0, \"context is not full yet\");\r\n        isActive = false;\r\n        uint256 winnerTicketNo = random().mod(prizeValue.div(10**18));\r\n        return allParticipantsByLotteryId[winnerTicketNo];\r\n    }\r\n\r\n    function getEntriesRequired() external view returns(uint256){\r\n        return entriesRequired;\r\n    }\r\n\r\n    function random() private view returns (uint256) {\r\n        return\r\n            uint256(\r\n                keccak256(\r\n                    abi.encodePacked(\r\n                        block.difficulty,\r\n                        block.timestamp,\r\n                        prizeValue\r\n                    )\r\n                )\r\n            );\r\n    }\r\n\r\n    function getPrizeValue() external view returns(uint256) {\r\n        return prizeValue;\r\n    }\r\n\r\n    function getMinimumAmountInBusd() external view returns(uint256) {\r\n        return minimumAmountInBusd;\r\n    }\r\n     function getTimestampForLatsEntry() external view returns (uint256) {\r\n        return timestampForLastEntry;\r\n    }\r\n function getUnstakingCount() external view returns (uint256) {\r\n        return unstakingCount;\r\n    }\r\n\r\n    function incrementUnstakingCount(uint256 delta) external {\r\n        require(\r\n            allParticipants[tx.origin],\r\n            \"The caller is not participant foor this lottery\"\r\n        );\r\n        unstakingCount = unstakingCount.add(delta);\r\n    }\r\n\r\n\r\n    modifier restricted() {\r\n        require(msg.sender == manager);\r\n        _;\r\n    }\r\n    \r\n    event PlayerParticipated(\r\n        address playerAddress\r\n    );\r\n}\r\n",
  "sourcePath": "C:\\Users\\rafae\\Documents\\GitHub\\sfe\\contracts\\Lottery.sol",
  "compiler": {
    "name": "solc",
    "version": "0.8.0+commit.c7dfd78e.Emscripten.clang"
  },
  "schemaVersion": "3.4.2",
  "updatedAt": "2021-09-19T19:07:45.695Z",
  "devdoc": {
    "kind": "dev",
    "methods": {},
    "version": 1
  },
  "userdoc": {
    "kind": "user",
    "methods": {},
    "version": 1
  }
}