{
  "contractName": "LpLottery",
  "abi": [
    {
      "inputs": [
        {
          "internalType": "address",
          "name": "_routerAddres",
          "type": "address"
        },
        {
          "internalType": "address",
          "name": "_tokenSafeMars",
          "type": "address"
        },
        {
          "internalType": "address",
          "name": "_tokenBUSD",
          "type": "address"
        }
      ],
      "stateMutability": "nonpayable",
      "type": "constructor"
    },
    {
      "anonymous": false,
      "inputs": [
        {
          "indexed": false,
          "internalType": "uint256",
          "name": "lotteryId",
          "type": "uint256"
        }
      ],
      "name": "LotteryCreated",
      "type": "event"
    },
    {
      "inputs": [
        {
          "internalType": "uint256",
          "name": "_prizeValue",
          "type": "uint256"
        },
        {
          "internalType": "uint256",
          "name": "_minimumAmount",
          "type": "uint256"
        }
      ],
      "name": "createContext",
      "outputs": [],
      "stateMutability": "nonpayable",
      "type": "function"
    },
    {
      "inputs": [
        {
          "internalType": "uint256",
          "name": "_lotteryId",
          "type": "uint256"
        }
      ],
      "name": "declareWinner",
      "outputs": [],
      "stateMutability": "nonpayable",
      "type": "function"
    },
    {
      "inputs": [
        {
          "internalType": "uint256",
          "name": "_lotteryId",
          "type": "uint256"
        }
      ],
      "name": "exit",
      "outputs": [],
      "stateMutability": "nonpayable",
      "type": "function"
    },
    {
      "inputs": [
        {
          "internalType": "uint256",
          "name": "_lotteryId",
          "type": "uint256"
        }
      ],
      "name": "getCashPrice",
      "outputs": [
        {
          "internalType": "uint256",
          "name": "",
          "type": "uint256"
        }
      ],
      "stateMutability": "view",
      "type": "function"
    },
    {
      "inputs": [
        {
          "internalType": "uint256",
          "name": "_lotteryId",
          "type": "uint256"
        }
      ],
      "name": "getEntriesRequired",
      "outputs": [
        {
          "internalType": "uint256",
          "name": "",
          "type": "uint256"
        }
      ],
      "stateMutability": "view",
      "type": "function"
    },
    {
      "inputs": [
        {
          "internalType": "uint256",
          "name": "_lotteryId",
          "type": "uint256"
        }
      ],
      "name": "getMinimumInvest",
      "outputs": [
        {
          "internalType": "uint256",
          "name": "",
          "type": "uint256"
        }
      ],
      "stateMutability": "view",
      "type": "function"
    },
    {
      "inputs": [
        {
          "internalType": "uint256",
          "name": "_lotteryId",
          "type": "uint256"
        }
      ],
      "name": "getTimestampForLastEntry",
      "outputs": [
        {
          "internalType": "uint256",
          "name": "",
          "type": "uint256"
        }
      ],
      "stateMutability": "view",
      "type": "function"
    },
    {
      "inputs": [
        {
          "internalType": "uint256",
          "name": "_lotteryId",
          "type": "uint256"
        }
      ],
      "name": "getUnstakingCountByLottery",
      "outputs": [
        {
          "internalType": "uint256",
          "name": "",
          "type": "uint256"
        }
      ],
      "stateMutability": "view",
      "type": "function"
    },
    {
      "inputs": [
        {
          "internalType": "uint256",
          "name": "",
          "type": "uint256"
        }
      ],
      "name": "lotteryStructs",
      "outputs": [
        {
          "internalType": "contract Lottery",
          "name": "",
          "type": "address"
        }
      ],
      "stateMutability": "view",
      "type": "function"
    },
    {
      "inputs": [
        {
          "internalType": "uint256",
          "name": "",
          "type": "uint256"
        }
      ],
      "name": "lotteryWinnerDeclared",
      "outputs": [
        {
          "internalType": "bool",
          "name": "",
          "type": "bool"
        }
      ],
      "stateMutability": "view",
      "type": "function"
    },
    {
      "inputs": [
        {
          "internalType": "uint256",
          "name": "_lotteryId",
          "type": "uint256"
        },
        {
          "internalType": "uint256",
          "name": "amount",
          "type": "uint256"
        }
      ],
      "name": "participateInBusd",
      "outputs": [],
      "stateMutability": "nonpayable",
      "type": "function"
    },
    {
      "inputs": [
        {
          "internalType": "uint256",
          "name": "_lotteryId",
          "type": "uint256"
        },
        {
          "internalType": "uint256",
          "name": "amount",
          "type": "uint256"
        }
      ],
      "name": "participateInSafemars",
      "outputs": [],
      "stateMutability": "nonpayable",
      "type": "function"
    },
    {
      "inputs": [],
      "name": "router",
      "outputs": [
        {
          "internalType": "contract IPancakeRouter02",
          "name": "",
          "type": "address"
        }
      ],
      "stateMutability": "view",
      "type": "function"
    },
    {
      "inputs": [],
      "name": "tokenBUSD",
      "outputs": [
        {
          "internalType": "address",
          "name": "",
          "type": "address"
        }
      ],
      "stateMutability": "view",
      "type": "function"
    },
    {
      "inputs": [],
      "name": "tokenSafeMars",
      "outputs": [
        {
          "internalType": "address",
          "name": "",
          "type": "address"
        }
      ],
      "stateMutability": "view",
      "type": "function"
    },
    {
      "inputs": [],
      "name": "totalUnstakingCount",
      "outputs": [
        {
          "internalType": "uint256",
          "name": "",
          "type": "uint256"
        }
      ],
      "stateMutability": "view",
      "type": "function"
    },
    {
      "inputs": [
        {
          "internalType": "address",
          "name": "newManger",
          "type": "address"
        }
      ],
      "name": "transferOwnership",
      "outputs": [],
      "stateMutability": "nonpayable",
      "type": "function"
    },
    {
      "inputs": [
        {
          "internalType": "uint256",
          "name": "_lotteryId",
          "type": "uint256"
        }
      ],
      "name": "viewWinner",
      "outputs": [
        {
          "internalType": "address",
          "name": "",
          "type": "address"
        }
      ],
      "stateMutability": "view",
      "type": "function"
    }
  ],
  "bytecode": "0x60806040523480156200001157600080fd5b5060405162003e4438038062003e44833981810160405281019062000037919062000169565b828282600160008190555082600160006101000a81548173ffffffffffffffffffffffffffffffffffffffff021916908373ffffffffffffffffffffffffffffffffffffffff16021790555081600260006101000a81548173ffffffffffffffffffffffffffffffffffffffff021916908373ffffffffffffffffffffffffffffffffffffffff16021790555080600360006101000a81548173ffffffffffffffffffffffffffffffffffffffff021916908373ffffffffffffffffffffffffffffffffffffffff16021790555050505033600560006101000a81548173ffffffffffffffffffffffffffffffffffffffff021916908373ffffffffffffffffffffffffffffffffffffffff1602179055505050506200020d565b6000815190506200016381620001f3565b92915050565b6000806000606084860312156200017f57600080fd5b60006200018f8682870162000152565b9350506020620001a28682870162000152565b9250506040620001b58682870162000152565b9150509250925092565b6000620001cc82620001d3565b9050919050565b600073ffffffffffffffffffffffffffffffffffffffff82169050919050565b620001fe81620001bf565b81146200020a57600080fd5b50565b613c27806200021d6000396000f3fe60806040523480156200001157600080fd5b5060043610620000e15760003560e01c80637f8661a11162000099578063bcbf42f7116200006f578063bcbf42f71462000260578063e4905e9b1462000282578063f2fde38b14620002a2578063f887ea4014620002c257620000e1565b80637f8661a114620001ea578063ab331fbd146200020a578063b585fabc146200022a57620000e1565b8062c2943c14620000e65780631f197a731462000106578063213ef7f7146200013c5780635a502b96146200015e57806368fc66f414620001945780637211ce8c14620001ca575b600080fd5b620001046004803603810190620000fe919062002545565b620002e4565b005b6200012460048036038101906200011e919062002545565b6200065a565b604051620001339190620028e0565b60405180910390f35b62000146620006fa565b604051620001559190620028e0565b60405180910390f35b6200017c600480360381019062000176919062002545565b62000720565b6040516200018b919062002a9f565b60405180910390f35b620001b26004803603810190620001ac919062002545565b62000740565b604051620001c1919062002ad9565b60405180910390f35b620001e86004803603810190620001e291906200259d565b62000773565b005b62000208600480360381019062000202919062002545565b62000c19565b005b6200022860048036038101906200022291906200259d565b62000ce3565b005b62000248600480360381019062000242919062002545565b62000e27565b60405162000257919062002ba0565b60405180910390f35b6200026a62000ee5565b604051620002799190620028e0565b60405180910390f35b620002a060048036038101906200029a91906200259d565b62000f0b565b005b620002c06004803603810190620002ba9190620024c1565b62001214565b005b620002cc620012b3565b604051620002db919062002abc565b60405180910390f35b600560009054906101000a900473ffffffffffffffffffffffffffffffffffffffff1673ffffffffffffffffffffffffffffffffffffffff163373ffffffffffffffffffffffffffffffffffffffff16146200033f57600080fd5b6008600082815260200190815260200160002060009054906101000a900460ff1615620003a3576040517f08c379a00000000000000000000000000000000000000000000000000000000081526004016200039a9062002b3a565b60405180910390fd5b60016008600083815260200190815260200160002060006101000a81548160ff02191690831515021790555060006007600083815260200190815260200160002060009054906101000a900473ffffffffffffffffffffffffffffffffffffffff1673ffffffffffffffffffffffffffffffffffffffff166314034bd26040518163ffffffff1660e01b8152600401602060405180830381600087803b1580156200044d57600080fd5b505af115801562000462573d6000803e3d6000fd5b505050506040513d601f19601f82011682018060405250810190620004889190620024ed565b9050806009600084815260200190815260200160002060006101000a81548173ffffffffffffffffffffffffffffffffffffffff021916908373ffffffffffffffffffffffffffffffffffffffff16021790555060006200059d6007600085815260200190815260200160002060009054906101000a900473ffffffffffffffffffffffffffffffffffffffff1673ffffffffffffffffffffffffffffffffffffffff1663b8760e6b6040518163ffffffff1660e01b815260040160206040518083038186803b1580156200055c57600080fd5b505afa15801562000571573d6000803e3d6000fd5b505050506040513d601f19601f8201168201806040525081019062000597919062002571565b620012d9565b9050600260009054906101000a900473ffffffffffffffffffffffffffffffffffffffff1673ffffffffffffffffffffffffffffffffffffffff1663a9059cbb83836040518363ffffffff1660e01b8152600401620005fe92919062002a72565b602060405180830381600087803b1580156200061957600080fd5b505af11580156200062e573d6000803e3d6000fd5b505050506040513d601f19601f8201168201806040525081019062000654919062002519565b50505050565b60006008600083815260200190815260200160002060009054906101000a900460ff16620006bf576040517f08c379a0000000000000000000000000000000000000000000000000000000008152600401620006b69062002b7e565b60405180910390fd5b6009600083815260200190815260200160002060009054906101000a900473ffffffffffffffffffffffffffffffffffffffff169050919050565b600360009054906101000a900473ffffffffffffffffffffffffffffffffffffffff1681565b60086020528060005260406000206000915054906101000a900460ff1681565b60076020528060005260406000206000915054906101000a900473ffffffffffffffffffffffffffffffffffffffff1681565b60026000541415620007bc576040517f08c379a0000000000000000000000000000000000000000000000000000000008152600401620007b39062002b5c565b60405180910390fd5b60026000819055506000620007d18262001333565b90506007600084815260200190815260200160002060009054906101000a900473ffffffffffffffffffffffffffffffffffffffff1673ffffffffffffffffffffffffffffffffffffffff1663d45bec4b6040518163ffffffff1660e01b815260040160206040518083038186803b1580156200084d57600080fd5b505afa15801562000862573d6000803e3d6000fd5b505050506040513d601f19601f8201168201806040525081019062000888919062002571565b811015620008cd576040517f08c379a0000000000000000000000000000000000000000000000000000000008152600401620008c49062002af6565b60405180910390fd5b6000600260009054906101000a900473ffffffffffffffffffffffffffffffffffffffff1673ffffffffffffffffffffffffffffffffffffffff166370a08231306040518263ffffffff1660e01b81526004016200092c9190620028e0565b60206040518083038186803b1580156200094557600080fd5b505afa1580156200095a573d6000803e3d6000fd5b505050506040513d601f19601f8201168201806040525081019062000980919062002571565b9050600260009054906101000a900473ffffffffffffffffffffffffffffffffffffffff1673ffffffffffffffffffffffffffffffffffffffff166323b872dd3330866040518463ffffffff1660e01b8152600401620009e3939291906200292a565b602060405180830381600087803b158015620009fe57600080fd5b505af115801562000a13573d6000803e3d6000fd5b505050506040513d601f19601f8201168201806040525081019062000a39919062002519565b5062000aff81600260009054906101000a900473ffffffffffffffffffffffffffffffffffffffff1673ffffffffffffffffffffffffffffffffffffffff166370a08231306040518263ffffffff1660e01b815260040162000a9c9190620028e0565b60206040518083038186803b15801562000ab557600080fd5b505afa15801562000aca573d6000803e3d6000fd5b505050506040513d601f19601f8201168201806040525081019062000af0919062002571565b6200138d90919063ffffffff16565b9250600062000b2e606462000b1f600487620013a590919063ffffffff16565b620013bd90919063ffffffff16565b9050600062000b3d8262001333565b90506007600087815260200190815260200160002060009054906101000a900473ffffffffffffffffffffffffffffffffffffffff1673ffffffffffffffffffffffffffffffffffffffff166313b1864082336040518363ffffffff1660e01b815260040162000baf92919062002bbd565b600060405180830381600087803b15801562000bca57600080fd5b505af115801562000bdf573d6000803e3d6000fd5b50505050600062000bfa83876200138d90919063ffffffff16565b905062000c088133620013d5565b505050505060016000819055505050565b6002600054141562000c62576040517f08c379a000000000000000000000000000000000000000000000000000000000815260040162000c599062002b5c565b60405180910390fd5b60026000819055506008600082815260200190815260200160002060009054906101000a900460ff1662000ccd576040517f08c379a000000000000000000000000000000000000000000000000000000000815260040162000cc49062002b18565b60405180910390fd5b62000cd83362001471565b600160008190555050565b600560009054906101000a900473ffffffffffffffffffffffffffffffffffffffff1673ffffffffffffffffffffffffffffffffffffffff163373ffffffffffffffffffffffffffffffffffffffff161462000d3e57600080fd5b81813060405162000d4f9062002440565b62000d5d9392919062002c4e565b604051809103906000f08015801562000d7a573d6000803e3d6000fd5b5060076000600654815260200190815260200160002060006101000a81548173ffffffffffffffffffffffffffffffffffffffff021916908373ffffffffffffffffffffffffffffffffffffffff1602179055506006600081548092919062000de39062002eb4565b91905055507f9e0023bebcc752baaa41057318405b5a6a8e9c6372b519717cfdf238e5caa79560065460405162000e1b919062002ba0565b60405180910390a15050565b60006007600083815260200190815260200160002060009054906101000a900473ffffffffffffffffffffffffffffffffffffffff1673ffffffffffffffffffffffffffffffffffffffff16632ba976386040518163ffffffff1660e01b815260040160206040518083038186803b15801562000ea357600080fd5b505afa15801562000eb8573d6000803e3d6000fd5b505050506040513d601f19601f8201168201806040525081019062000ede919062002571565b9050919050565b600260009054906101000a900473ffffffffffffffffffffffffffffffffffffffff1681565b6002600054141562000f54576040517f08c379a000000000000000000000000000000000000000000000000000000000815260040162000f4b9062002b5c565b60405180910390fd5b60026000819055506007600083815260200190815260200160002060009054906101000a900473ffffffffffffffffffffffffffffffffffffffff1673ffffffffffffffffffffffffffffffffffffffff1663d45bec4b6040518163ffffffff1660e01b815260040160206040518083038186803b15801562000fd657600080fd5b505afa15801562000feb573d6000803e3d6000fd5b505050506040513d601f19601f8201168201806040525081019062001011919062002571565b81101562001056576040517f08c379a00000000000000000000000000000000000000000000000000000000081526004016200104d9062002af6565b60405180910390fd5b600360009054906101000a900473ffffffffffffffffffffffffffffffffffffffff1673ffffffffffffffffffffffffffffffffffffffff166323b872dd3330846040518463ffffffff1660e01b8152600401620010b7939291906200292a565b602060405180830381600087803b158015620010d257600080fd5b505af1158015620010e7573d6000803e3d6000fd5b505050506040513d601f19601f820116820180604052508101906200110d919062002519565b5060006200113b60646200112c600485620013a590919063ffffffff16565b620013bd90919063ffffffff16565b90506007600084815260200190815260200160002060009054906101000a900473ffffffffffffffffffffffffffffffffffffffff1673ffffffffffffffffffffffffffffffffffffffff166313b1864082336040518363ffffffff1660e01b8152600401620011ad92919062002bbd565b600060405180830381600087803b158015620011c857600080fd5b505af1158015620011dd573d6000803e3d6000fd5b505050506000620011f882846200138d90919063ffffffff16565b905062001206813362001611565b505060016000819055505050565b600560009054906101000a900473ffffffffffffffffffffffffffffffffffffffff1673ffffffffffffffffffffffffffffffffffffffff163373ffffffffffffffffffffffffffffffffffffffff16146200126f57600080fd5b80600560006101000a81548173ffffffffffffffffffffffffffffffffffffffff021916908373ffffffffffffffffffffffffffffffffffffffff16021790555050565b600160009054906101000a900473ffffffffffffffffffffffffffffffffffffffff1681565b60006200132c600360009054906101000a900473ffffffffffffffffffffffffffffffffffffffff16600260009054906101000a900473ffffffffffffffffffffffffffffffffffffffff1684620016ad565b9050919050565b600062001386600260009054906101000a900473ffffffffffffffffffffffffffffffffffffffff16600360009054906101000a900473ffffffffffffffffffffffffffffffffffffffff1684620016ad565b9050919050565b600081836200139d919062002dcb565b905092915050565b60008183620013b5919062002d6a565b905092915050565b60008183620013cd919062002d32565b905092915050565b6000620013ed600284620013bd90919063ffffffff16565b905060006200140682856200138d90919063ffffffff16565b905060006200145b600260009054906101000a900473ffffffffffffffffffffffffffffffffffffffff16600360009054906101000a900473ffffffffffffffffffffffffffffffffffffffff1684620016ad565b90506200146a83828662001ab6565b5050505050565b6000600460008373ffffffffffffffffffffffffffffffffffffffff1673ffffffffffffffffffffffffffffffffffffffff1681526020019081526020016000209050600080620014c6836002015462001f3c565b9150915060006200151d600360009054906101000a900473ffffffffffffffffffffffffffffffffffffffff16600260009054906101000a900473ffffffffffffffffffffffffffffffffffffffff1684620016ad565b90506000846001018190555060008460000181905550600084600201819055506200155283826200229e90919063ffffffff16565b9050600260009054906101000a900473ffffffffffffffffffffffffffffffffffffffff1673ffffffffffffffffffffffffffffffffffffffff1663a9059cbb86836040518363ffffffff1660e01b8152600401620015b392919062002a72565b602060405180830381600087803b158015620015ce57600080fd5b505af1158015620015e3573d6000803e3d6000fd5b505050506040513d601f19601f8201168201806040525081019062001609919062002519565b505050505050565b600062001629600284620013bd90919063ffffffff16565b905060006200164282856200138d90919063ffffffff16565b9050600062001697600360009054906101000a900473ffffffffffffffffffffffffffffffffffffffff16600260009054906101000a900473ffffffffffffffffffffffffffffffffffffffff1684620016ad565b9050620016a681848662001ab6565b5050505050565b60008373ffffffffffffffffffffffffffffffffffffffff1663095ea7b3600160009054906101000a900473ffffffffffffffffffffffffffffffffffffffff16846040518363ffffffff1660e01b81526004016200170e92919062002a72565b602060405180830381600087803b1580156200172957600080fd5b505af11580156200173e573d6000803e3d6000fd5b505050506040513d601f19601f8201168201806040525081019062001764919062002519565b506000600267ffffffffffffffff811115620017a9577f4e487b7100000000000000000000000000000000000000000000000000000000600052604160045260246000fd5b604051908082528060200260200182016040528015620017d85781602001602082028036833780820191505090505b509050848160008151811062001817577f4e487b7100000000000000000000000000000000000000000000000000000000600052603260045260246000fd5b602002602001019073ffffffffffffffffffffffffffffffffffffffff16908173ffffffffffffffffffffffffffffffffffffffff168152505083816001815181106200188d577f4e487b7100000000000000000000000000000000000000000000000000000000600052603260045260246000fd5b602002602001019073ffffffffffffffffffffffffffffffffffffffff16908173ffffffffffffffffffffffffffffffffffffffff168152505060008473ffffffffffffffffffffffffffffffffffffffff166370a08231306040518263ffffffff1660e01b8152600401620019049190620028e0565b60206040518083038186803b1580156200191d57600080fd5b505afa15801562001932573d6000803e3d6000fd5b505050506040513d601f19601f8201168201806040525081019062001958919062002571565b9050600160009054906101000a900473ffffffffffffffffffffffffffffffffffffffff1673ffffffffffffffffffffffffffffffffffffffff16635c11d7958560008530603c42620019ac919062002cd5565b6040518663ffffffff1660e01b8152600401620019ce95949392919062002bea565b600060405180830381600087803b158015620019e957600080fd5b505af1158015620019fe573d6000803e3d6000fd5b5050505060008573ffffffffffffffffffffffffffffffffffffffff166370a08231306040518263ffffffff1660e01b815260040162001a3f9190620028e0565b60206040518083038186803b15801562001a5857600080fd5b505afa15801562001a6d573d6000803e3d6000fd5b505050506040513d601f19601f8201168201806040525081019062001a93919062002571565b905062001aaa82826200138d90919063ffffffff16565b93505050509392505050565b600260009054906101000a900473ffffffffffffffffffffffffffffffffffffffff1673ffffffffffffffffffffffffffffffffffffffff1663095ea7b3600160009054906101000a900473ffffffffffffffffffffffffffffffffffffffff16856040518363ffffffff1660e01b815260040162001b3792919062002a72565b602060405180830381600087803b15801562001b5257600080fd5b505af115801562001b67573d6000803e3d6000fd5b505050506040513d601f19601f8201168201806040525081019062001b8d919062002519565b50600360009054906101000a900473ffffffffffffffffffffffffffffffffffffffff1673ffffffffffffffffffffffffffffffffffffffff1663095ea7b3600160009054906101000a900473ffffffffffffffffffffffffffffffffffffffff16846040518363ffffffff1660e01b815260040162001c0f92919062002a72565b602060405180830381600087803b15801562001c2a57600080fd5b505af115801562001c3f573d6000803e3d6000fd5b505050506040513d601f19601f8201168201806040525081019062001c65919062002519565b50600062001c72620022b6565b73ffffffffffffffffffffffffffffffffffffffff166370a08231306040518263ffffffff1660e01b815260040162001cac9190620028e0565b60206040518083038186803b15801562001cc557600080fd5b505afa15801562001cda573d6000803e3d6000fd5b505050506040513d601f19601f8201168201806040525081019062001d00919062002571565b9050600160009054906101000a900473ffffffffffffffffffffffffffffffffffffffff1673ffffffffffffffffffffffffffffffffffffffff1663e8e33700600260009054906101000a900473ffffffffffffffffffffffffffffffffffffffff16600360009054906101000a900473ffffffffffffffffffffffffffffffffffffffff168787600080306101684262001d9c919062002cd5565b6040518963ffffffff1660e01b815260040162001dc1989796959493929190620029e4565b606060405180830381600087803b15801562001ddc57600080fd5b505af115801562001df1573d6000803e3d6000fd5b505050506040513d601f19601f8201168201806040525081019062001e1791906200261f565b505050600062001e26620022b6565b73ffffffffffffffffffffffffffffffffffffffff166370a08231306040518263ffffffff1660e01b815260040162001e609190620028e0565b60206040518083038186803b15801562001e7957600080fd5b505afa15801562001e8e573d6000803e3d6000fd5b505050506040513d601f19601f8201168201806040525081019062001eb4919062002571565b9050600062001ecd83836200138d90919063ffffffff16565b90506000600460008673ffffffffffffffffffffffffffffffffffffffff1673ffffffffffffffffffffffffffffffffffffffff168152602001908152602001600020905062001f2b8282600201546200229e90919063ffffffff16565b816002018190555050505050505050565b60008062001f49620022b6565b73ffffffffffffffffffffffffffffffffffffffff1663095ea7b3600160009054906101000a900473ffffffffffffffffffffffffffffffffffffffff16856040518363ffffffff1660e01b815260040162001fa792919062002a72565b602060405180830381600087803b15801562001fc257600080fd5b505af115801562001fd7573d6000803e3d6000fd5b505050506040513d601f19601f8201168201806040525081019062001ffd919062002519565b506000600260009054906101000a900473ffffffffffffffffffffffffffffffffffffffff1673ffffffffffffffffffffffffffffffffffffffff166370a08231306040518263ffffffff1660e01b81526004016200205d9190620028e0565b60206040518083038186803b1580156200207657600080fd5b505afa1580156200208b573d6000803e3d6000fd5b505050506040513d601f19601f82011682018060405250810190620020b1919062002571565b9050600160009054906101000a900473ffffffffffffffffffffffffffffffffffffffff1673ffffffffffffffffffffffffffffffffffffffff1663baa2abde600260009054906101000a900473ffffffffffffffffffffffffffffffffffffffff16600360009054906101000a900473ffffffffffffffffffffffffffffffffffffffff168760008030610168426200214c919062002cd5565b6040518863ffffffff1660e01b815260040162002170979695949392919062002967565b6040805180830381600087803b1580156200218a57600080fd5b505af11580156200219f573d6000803e3d6000fd5b505050506040513d601f19601f82011682018060405250810190620021c59190620025de565b9050809250506000600260009054906101000a900473ffffffffffffffffffffffffffffffffffffffff1673ffffffffffffffffffffffffffffffffffffffff166370a08231306040518263ffffffff1660e01b81526004016200222a9190620028e0565b60206040518083038186803b1580156200224357600080fd5b505afa15801562002258573d6000803e3d6000fd5b505050506040513d601f19601f820116820180604052508101906200227e919062002571565b90506200229582826200138d90919063ffffffff16565b93505050915091565b60008183620022ae919062002cd5565b905092915050565b600080600160009054906101000a900473ffffffffffffffffffffffffffffffffffffffff1673ffffffffffffffffffffffffffffffffffffffff1663c45a01556040518163ffffffff1660e01b815260040160206040518083038186803b1580156200232257600080fd5b505afa15801562002337573d6000803e3d6000fd5b505050506040513d601f19601f820116820180604052508101906200235d9190620024ed565b905060008173ffffffffffffffffffffffffffffffffffffffff1663e6a43905600260009054906101000a900473ffffffffffffffffffffffffffffffffffffffff16600360009054906101000a900473ffffffffffffffffffffffffffffffffffffffff166040518363ffffffff1660e01b8152600401620023e2929190620028fd565b60206040518083038186803b158015620023fb57600080fd5b505afa15801562002410573d6000803e3d6000fd5b505050506040513d601f19601f82011682018060405250810190620024369190620024ed565b9050809250505090565b610c438062002faf83390190565b6000813590506200245f8162002f60565b92915050565b600081519050620024768162002f60565b92915050565b6000815190506200248d8162002f7a565b92915050565b600081359050620024a48162002f94565b92915050565b600081519050620024bb8162002f94565b92915050565b600060208284031215620024d457600080fd5b6000620024e4848285016200244e565b91505092915050565b6000602082840312156200250057600080fd5b6000620025108482850162002465565b91505092915050565b6000602082840312156200252c57600080fd5b60006200253c848285016200247c565b91505092915050565b6000602082840312156200255857600080fd5b6000620025688482850162002493565b91505092915050565b6000602082840312156200258457600080fd5b60006200259484828501620024aa565b91505092915050565b60008060408385031215620025b157600080fd5b6000620025c18582860162002493565b9250506020620025d48582860162002493565b9150509250929050565b60008060408385031215620025f257600080fd5b60006200260285828601620024aa565b92505060206200261585828601620024aa565b9150509250929050565b6000806000606084860312156200263557600080fd5b60006200264586828701620024aa565b93505060206200265886828701620024aa565b92505060406200266b86828701620024aa565b9150509250925092565b60006200268383836200268f565b60208301905092915050565b6200269a8162002e06565b82525050565b620026ab8162002e06565b82525050565b6000620026be8262002c9b565b620026ca818562002cb3565b9350620026d78362002c8b565b8060005b838110156200270e578151620026f2888262002675565b9750620026ff8362002ca6565b925050600181019050620026db565b5085935050505092915050565b620027268162002e1a565b82525050565b620027378162002e50565b82525050565b620027488162002e78565b82525050565b620027598162002ea0565b82525050565b60006200276e602e8362002cc4565b91507f5472616e7366657272656420616d6f756e74206973206c657373207468616e2060008301527f6d696e696d756d20616d6f756e740000000000000000000000000000000000006020830152604082019050919050565b6000620027d660138362002cc4565b91507f57696e6e6572206e6f74206465636c61726564000000000000000000000000006000830152602082019050919050565b60006200281860178362002cc4565b91507f57696e6e657220616c7265616479206465636c617265640000000000000000006000830152602082019050919050565b60006200285a601f8362002cc4565b91507f5265656e7472616e637947756172643a207265656e7472616e742063616c6c006000830152602082019050919050565b60006200289c601a8362002cc4565b91507f57696e6e6572206973206e6f74206465636c61726564207965740000000000006000830152602082019050919050565b620028da8162002e46565b82525050565b6000602082019050620028f76000830184620026a0565b92915050565b6000604082019050620029146000830185620026a0565b620029236020830184620026a0565b9392505050565b6000606082019050620029416000830186620026a0565b620029506020830185620026a0565b6200295f6040830184620028cf565b949350505050565b600060e0820190506200297e600083018a620026a0565b6200298d6020830189620026a0565b6200299c6040830188620028cf565b620029ab60608301876200274e565b620029ba60808301866200274e565b620029c960a0830185620026a0565b620029d860c0830184620028cf565b98975050505050505050565b600061010082019050620029fc600083018b620026a0565b62002a0b602083018a620026a0565b62002a1a6040830189620028cf565b62002a296060830188620028cf565b62002a3860808301876200274e565b62002a4760a08301866200274e565b62002a5660c0830185620026a0565b62002a6560e0830184620028cf565b9998505050505050505050565b600060408201905062002a896000830185620026a0565b62002a986020830184620028cf565b9392505050565b600060208201905062002ab660008301846200271b565b92915050565b600060208201905062002ad360008301846200272c565b92915050565b600060208201905062002af060008301846200273d565b92915050565b6000602082019050818103600083015262002b11816200275f565b9050919050565b6000602082019050818103600083015262002b3381620027c7565b9050919050565b6000602082019050818103600083015262002b558162002809565b9050919050565b6000602082019050818103600083015262002b77816200284b565b9050919050565b6000602082019050818103600083015262002b99816200288d565b9050919050565b600060208201905062002bb76000830184620028cf565b92915050565b600060408201905062002bd46000830185620028cf565b62002be36020830184620026a0565b9392505050565b600060a08201905062002c016000830188620028cf565b62002c1060208301876200274e565b818103604083015262002c248186620026b1565b905062002c356060830185620026a0565b62002c446080830184620028cf565b9695505050505050565b600060608201905062002c656000830186620028cf565b62002c746020830185620028cf565b62002c836040830184620026a0565b949350505050565b6000819050602082019050919050565b600081519050919050565b6000602082019050919050565b600082825260208201905092915050565b600082825260208201905092915050565b600062002ce28262002e46565b915062002cef8362002e46565b9250827fffffffffffffffffffffffffffffffffffffffffffffffffffffffffffffffff0382111562002d275762002d2662002f02565b5b828201905092915050565b600062002d3f8262002e46565b915062002d4c8362002e46565b92508262002d5f5762002d5e62002f31565b5b828204905092915050565b600062002d778262002e46565b915062002d848362002e46565b9250817fffffffffffffffffffffffffffffffffffffffffffffffffffffffffffffffff048311821515161562002dc05762002dbf62002f02565b5b828202905092915050565b600062002dd88262002e46565b915062002de58362002e46565b92508282101562002dfb5762002dfa62002f02565b5b828203905092915050565b600062002e138262002e26565b9050919050565b60008115159050919050565b600073ffffffffffffffffffffffffffffffffffffffff82169050919050565b6000819050919050565b600062002e5d8262002e64565b9050919050565b600062002e718262002e26565b9050919050565b600062002e858262002e8c565b9050919050565b600062002e998262002e26565b9050919050565b600062002ead8262002e46565b9050919050565b600062002ec18262002e46565b91507fffffffffffffffffffffffffffffffffffffffffffffffffffffffffffffffff82141562002ef75762002ef662002f02565b5b600182019050919050565b7f4e487b7100000000000000000000000000000000000000000000000000000000600052601160045260246000fd5b7f4e487b7100000000000000000000000000000000000000000000000000000000600052601260045260246000fd5b62002f6b8162002e06565b811462002f7757600080fd5b50565b62002f858162002e1a565b811462002f9157600080fd5b50565b62002f9f8162002e46565b811462002fab57600080fd5b5056fe60806040523480156200001157600080fd5b5060405162000c4338038062000c43833981810160405281019062000037919062000118565b826000819055508160018190555062000067670de0b6b3a764000084620000d260201b620004671790919060201c565b60038190555080600260006101000a81548173ffffffffffffffffffffffffffffffffffffffff021916908373ffffffffffffffffffffffffffffffffffffffff1602179055506001600560006101000a81548160ff02191690831515021790555050505062000247565b60008183620000e291906200016e565b905092915050565b600081519050620000fb8162000213565b92915050565b60008151905062000112816200022d565b92915050565b6000806000606084860312156200012e57600080fd5b60006200013e8682870162000101565b9350506020620001518682870162000101565b92505060406200016486828701620000ea565b9150509250925092565b60006200017b82620001da565b91506200018883620001da565b9250826200019b576200019a620001e4565b5b828204905092915050565b6000620001b382620001ba565b9050919050565b600073ffffffffffffffffffffffffffffffffffffffff82169050919050565b6000819050919050565b7f4e487b7100000000000000000000000000000000000000000000000000000000600052601260045260246000fd5b6200021e81620001a6565b81146200022a57600080fd5b50565b6200023881620001da565b81146200024457600080fd5b50565b6109ec80620002576000396000f3fe608060405234801561001057600080fd5b50600436106100575760003560e01c806313b186401461005c57806314034bd2146100785780632ba9763814610096578063b8760e6b146100b4578063d45bec4b146100d2575b600080fd5b6100766004803603810190610071919061050a565b6100f0565b005b6100806102cb565b60405161008d919061071e565b60405180910390f35b61009e61044a565b6040516100ab91906107d9565b60405180910390f35b6100bc610454565b6040516100c991906107d9565b60405180910390f35b6100da61045d565b6040516100e791906107d9565b60405180910390f35b60006003541415610136576040517f08c379a000000000000000000000000000000000000000000000000000000000815260040161012d90610759565b60405180910390fd5b600560009054906101000a900460ff16610185576040517f08c379a000000000000000000000000000000000000000000000000000000000815260040161017c90610779565b60405180910390fd5b60006101a2670de0b6b3a76400008461046790919063ffffffff16565b90508060035410156101e9576040517f08c379a00000000000000000000000000000000000000000000000000000000081526004016101e090610799565b60405180910390fd5b60005b81811015610273578260066000600454815260200190815260200160002060006101000a81548173ffffffffffffffffffffffffffffffffffffffff021916908373ffffffffffffffffffffffffffffffffffffffff1602179055506004600081548092919061025b906108a6565b9190505550808061026b906108a6565b9150506101ec565b506102898160035461047d90919063ffffffff16565b6003819055507f609ccaad0d5a048d24b2ea393937b393e3ad528ec64eca22004023379ea26f42826040516102be919061071e565b60405180910390a1505050565b6000600260009054906101000a900473ffffffffffffffffffffffffffffffffffffffff1673ffffffffffffffffffffffffffffffffffffffff163373ffffffffffffffffffffffffffffffffffffffff161461032757600080fd5b600560009054906101000a900460ff16610376576040517f08c379a000000000000000000000000000000000000000000000000000000000815260040161036d906107b9565b60405180910390fd5b6000600354146103bb576040517f08c379a00000000000000000000000000000000000000000000000000000000081526004016103b290610739565b60405180910390fd5b6000600560006101000a81548160ff021916908315150217905550600061040e6103f8670de0b6b3a764000060005461046790919063ffffffff16565b610400610493565b6104ca90919063ffffffff16565b90506006600082815260200190815260200160002060009054906101000a900473ffffffffffffffffffffffffffffffffffffffff1691505090565b6000600354905090565b60008054905090565b6000600154905090565b600081836104759190610805565b905092915050565b6000818361048b9190610836565b905092915050565b600044426000546040516020016104ac939291906106e1565b6040516020818303038152906040528051906020012060001c905090565b600081836104d891906108f9565b905092915050565b6000813590506104ef81610988565b92915050565b6000813590506105048161099f565b92915050565b6000806040838503121561051d57600080fd5b600061052b858286016104f5565b925050602061053c858286016104e0565b9150509250929050565b61054f8161086a565b82525050565b60006105626017836107f4565b91507f636f6e74657874206973206e6f742066756c6c207965740000000000000000006000830152602082019050919050565b60006105a2600f836107f4565b91507f636f6e746578742069732066756c6c00000000000000000000000000000000006000830152602082019050919050565b60006105e2601d836107f4565b91507f636f6e74657874206973206e6f742061637469766520616e796d6f72650000006000830152602082019050919050565b60006106226032836107f4565b91507f656e74726565206665652073686f756c6420626520736d616c6c65722074686160008301527f6e20656e747269657320726571756972656400000000000000000000000000006020830152604082019050919050565b6000610688601d836107f4565b91507f436f6e74657874206973206e6f742061637469766520616e796d6f72650000006000830152602082019050919050565b6106c48161089c565b82525050565b6106db6106d68261089c565b6108ef565b82525050565b60006106ed82866106ca565b6020820191506106fd82856106ca565b60208201915061070d82846106ca565b602082019150819050949350505050565b60006020820190506107336000830184610546565b92915050565b6000602082019050818103600083015261075281610555565b9050919050565b6000602082019050818103600083015261077281610595565b9050919050565b60006020820190508181036000830152610792816105d5565b9050919050565b600060208201905081810360008301526107b281610615565b9050919050565b600060208201905081810360008301526107d28161067b565b9050919050565b60006020820190506107ee60008301846106bb565b92915050565b600082825260208201905092915050565b60006108108261089c565b915061081b8361089c565b92508261082b5761082a610959565b5b828204905092915050565b60006108418261089c565b915061084c8361089c565b92508282101561085f5761085e61092a565b5b828203905092915050565b60006108758261087c565b9050919050565b600073ffffffffffffffffffffffffffffffffffffffff82169050919050565b6000819050919050565b60006108b18261089c565b91507fffffffffffffffffffffffffffffffffffffffffffffffffffffffffffffffff8214156108e4576108e361092a565b5b600182019050919050565b6000819050919050565b60006109048261089c565b915061090f8361089c565b92508261091f5761091e610959565b5b828206905092915050565b7f4e487b7100000000000000000000000000000000000000000000000000000000600052601160045260246000fd5b7f4e487b7100000000000000000000000000000000000000000000000000000000600052601260045260246000fd5b6109918161086a565b811461099c57600080fd5b50565b6109a88161089c565b81146109b357600080fd5b5056fea2646970667358221220e8b4d292d9aa43b697868acdac310351d16ebe1811d7b150500845b01f57737064736f6c63430008000033a264697066735822122011835e2adf7be602dd8684110ae55c5cdcfc19d30185593b169646abbda33d0764736f6c63430008000033",
  "immutableReferences": {},
  "source": "// SPDX-License-Identifier: MIT\r\npragma solidity ^0.8.0;\r\n\r\nimport \"./PancakeClass.sol\";\r\nimport \"./Lottery.sol\";\r\n\r\ncontract LpLottery is PancakeClass {\r\n    address private admin;\r\n    uint256 private lotteryId;\r\n    mapping(uint256 => Lottery) public lotteryStructs;\r\n    mapping(uint256 => bool) public lotteryWinnerDeclared;\r\n    mapping(uint256 => address) private lotteryWinner;\r\n\r\n    using SafeMath for uint256;\r\n\r\n    constructor(\r\n        address _routerAddres,\r\n        address _tokenSafeMars,\r\n        address _tokenBUSD\r\n    ) PancakeClass(_routerAddres, _tokenSafeMars, _tokenBUSD) {\r\n        admin = msg.sender;\r\n    }\r\n\r\n    function transferOwnership(address newManger) public restricted {\r\n        admin = newManger;\r\n    }\r\n\r\n    function createContext(uint256 _prizeValue, uint256 _minimumAmount)\r\n        public\r\n        restricted\r\n    {\r\n        lotteryStructs[lotteryId] = new Lottery(\r\n            _prizeValue,\r\n            _minimumAmount,\r\n            address(this)\r\n        );\r\n        lotteryId++;\r\n        emit LotteryCreated(lotteryId);\r\n    }\r\n\r\n    function declareWinner(uint256 _lotteryId) public restricted {\r\n        require(!lotteryWinnerDeclared[_lotteryId], \"Winner already declared\");\r\n        lotteryWinnerDeclared[_lotteryId] = true;\r\n        address winner = lotteryStructs[_lotteryId].declareWinner();\r\n        lotteryWinner[_lotteryId] = winner;\r\n        uint256 tokensGetInSafemars = convertBUSDToSafeMars(\r\n            lotteryStructs[_lotteryId].getPrizeValue()\r\n        );\r\n        IERC20(tokenSafeMars).transfer(winner, tokensGetInSafemars);\r\n    }\r\n\r\n    function getEntriesRequired(uint256 _lotteryId)\r\n        public\r\n        view\r\n        returns (uint256)\r\n    {\r\n        return lotteryStructs[_lotteryId].getEntriesRequired();\r\n    }\r\n\r\n    function viewWinner(uint256 _lotteryId) public view returns (address) {\r\n        require(\r\n            lotteryWinnerDeclared[_lotteryId],\r\n            \"Winner is not declared yet\"\r\n        );\r\n        return lotteryWinner[_lotteryId];\r\n    }\r\n\r\n    function participateInBusd(uint256 _lotteryId, uint256 amount)\r\n        public\r\n        nonReentrant\r\n    {\r\n        require(\r\n            amount >= lotteryStructs[_lotteryId].getMinimumAmountInBusd(),\r\n            \"Transferred amount is less than minimum amount\"\r\n        );\r\n        IERC20(tokenBUSD).transferFrom(msg.sender, address(this), amount);\r\n        uint256 entryFee = amount.mul(4).div(100);\r\n        lotteryStructs[_lotteryId].participate(entryFee, msg.sender);\r\n        uint256 stakingAmount = amount.sub(entryFee);\r\n        stakeInBUSD(stakingAmount, msg.sender);\r\n    }\r\n\r\n    function participateInSafemars(uint256 _lotteryId, uint256 amount)\r\n        public\r\n        nonReentrant\r\n    {\r\n        uint256 tokensGetInBusdForTotalAmount = convertSafeMarsToBUSD(amount);\r\n        require(\r\n            tokensGetInBusdForTotalAmount >=\r\n                lotteryStructs[_lotteryId].getMinimumAmountInBusd(),\r\n            \"Transferred amount is less than minimum amount\"\r\n        );\r\n\r\n        uint256 initBalance = IERC20(tokenSafeMars).balanceOf(address(this));\r\n        IERC20(tokenSafeMars).transferFrom(msg.sender, address(this), amount);\r\n        amount = IERC20(tokenSafeMars).balanceOf(address(this)).sub(\r\n            initBalance\r\n        );\r\n\r\n        uint256 entryFee = amount.mul(4).div(100);\r\n        uint256 tokensGetInBusd = convertSafeMarsToBUSD(entryFee);\r\n        lotteryStructs[_lotteryId].participate(tokensGetInBusd, msg.sender);\r\n\r\n        uint256 stakingAmount = amount.sub(entryFee);\r\n        stakeInSafeMars(stakingAmount, msg.sender);\r\n    }\r\n\r\n    function exit(uint256 _lotteryId) public nonReentrant {\r\n        require(lotteryWinnerDeclared[_lotteryId], \"Winner not declared\");\r\n        unstakeAllToSafeMars(msg.sender);\r\n    }\r\n\r\n    modifier restricted() {\r\n        require(msg.sender == admin);\r\n        _;\r\n    }\r\n\r\n    event LotteryCreated(uint256 lotteryId);\r\n}\r\n",
  "sourcePath": "/Users/jasper/Projects/Javascript/truffle/sfe/contracts/LpLottery.sol",
  "compiler": {
    "name": "solc",
    "version": "0.8.0+commit.c7dfd78e.Emscripten.clang"
  },
  "schemaVersion": "3.4.3",
  "updatedAt": "2021-09-05T13:35:25.303Z",
  "devdoc": {
    "kind": "dev",
    "methods": {},
    "version": 1
  },
  "userdoc": {
    "kind": "user",
    "methods": {},
    "version": 1
  }
}