{
  "contractName": "LpLottery",
  "abi": [
    {
      "inputs": [
        {
          "internalType": "address",
          "name": "_routerAddres",
          "type": "address"
        },
        {
          "internalType": "address",
          "name": "_tokenSafeMars",
          "type": "address"
        },
        {
          "internalType": "address",
          "name": "_tokenBUSD",
          "type": "address"
        }
      ],
      "stateMutability": "nonpayable",
      "type": "constructor"
    },
    {
      "anonymous": false,
      "inputs": [
        {
          "indexed": false,
          "internalType": "uint256",
          "name": "lotteryId",
          "type": "uint256"
        }
      ],
      "name": "LotteryCreated",
      "type": "event"
    },
    {
      "inputs": [
        {
          "internalType": "uint256",
          "name": "",
          "type": "uint256"
        }
      ],
      "name": "lotteryStructs",
      "outputs": [
        {
          "internalType": "contract Lottery",
          "name": "",
          "type": "address"
        }
      ],
      "stateMutability": "view",
      "type": "function"
    },
    {
      "inputs": [
        {
          "internalType": "uint256",
          "name": "",
          "type": "uint256"
        }
      ],
      "name": "lotteryWinnerDeclared",
      "outputs": [
        {
          "internalType": "bool",
          "name": "",
          "type": "bool"
        }
      ],
      "stateMutability": "view",
      "type": "function"
    },
    {
      "inputs": [],
      "name": "router",
      "outputs": [
        {
          "internalType": "contract IPancakeRouter02",
          "name": "",
          "type": "address"
        }
      ],
      "stateMutability": "view",
      "type": "function"
    },
    {
      "inputs": [],
      "name": "tokenBUSD",
      "outputs": [
        {
          "internalType": "address",
          "name": "",
          "type": "address"
        }
      ],
      "stateMutability": "view",
      "type": "function"
    },
    {
      "inputs": [],
      "name": "tokenSafeMars",
      "outputs": [
        {
          "internalType": "address",
          "name": "",
          "type": "address"
        }
      ],
      "stateMutability": "view",
      "type": "function"
    },
    {
      "inputs": [],
      "name": "unstakingCount",
      "outputs": [
        {
          "internalType": "uint256",
          "name": "",
          "type": "uint256"
        }
      ],
      "stateMutability": "view",
      "type": "function"
    },
    {
      "inputs": [
        {
          "internalType": "address",
          "name": "newManger",
          "type": "address"
        }
      ],
      "name": "transferOwnership",
      "outputs": [],
      "stateMutability": "nonpayable",
      "type": "function"
    },
    {
      "inputs": [
        {
          "internalType": "uint256",
          "name": "_prizeValue",
          "type": "uint256"
        },
        {
          "internalType": "uint256",
          "name": "_minimumAmount",
          "type": "uint256"
        }
      ],
      "name": "createContext",
      "outputs": [],
      "stateMutability": "nonpayable",
      "type": "function"
    },
    {
      "inputs": [
        {
          "internalType": "uint256",
          "name": "_lotteryId",
          "type": "uint256"
        }
      ],
      "name": "declareWinner",
      "outputs": [],
      "stateMutability": "nonpayable",
      "type": "function"
    },
    {
      "inputs": [
        {
          "internalType": "uint256",
          "name": "_lotteryId",
          "type": "uint256"
        }
      ],
      "name": "getEntriesRequired",
      "outputs": [
        {
          "internalType": "uint256",
          "name": "",
          "type": "uint256"
        }
      ],
      "stateMutability": "view",
      "type": "function"
    },
    {
      "inputs": [
        {
          "internalType": "uint256",
          "name": "_lotteryId",
          "type": "uint256"
        }
      ],
      "name": "getTimestampForLastEntry",
      "outputs": [
        {
          "internalType": "uint256",
          "name": "",
          "type": "uint256"
        }
      ],
      "stateMutability": "view",
      "type": "function"
    },
    {
      "inputs": [
        {
          "internalType": "uint256",
          "name": "_lotteryId",
          "type": "uint256"
        }
      ],
      "name": "getCashPrice",
      "outputs": [
        {
          "internalType": "uint256",
          "name": "",
          "type": "uint256"
        }
      ],
      "stateMutability": "view",
      "type": "function"
    },
    {
      "inputs": [
        {
          "internalType": "uint256",
          "name": "_lotteryId",
          "type": "uint256"
        }
      ],
      "name": "getMinimumInvest",
      "outputs": [
        {
          "internalType": "uint256",
          "name": "",
          "type": "uint256"
        }
      ],
      "stateMutability": "view",
      "type": "function"
    },
    {
      "inputs": [
        {
          "internalType": "uint256",
          "name": "_lotteryId",
          "type": "uint256"
        }
      ],
      "name": "viewWinner",
      "outputs": [
        {
          "internalType": "address",
          "name": "",
          "type": "address"
        }
      ],
      "stateMutability": "view",
      "type": "function"
    },
    {
      "inputs": [
        {
          "internalType": "uint256",
          "name": "_lotteryId",
          "type": "uint256"
        },
        {
          "internalType": "uint256",
          "name": "amount",
          "type": "uint256"
        }
      ],
      "name": "participateInBusd",
      "outputs": [],
      "stateMutability": "nonpayable",
      "type": "function"
    },
    {
      "inputs": [
        {
          "internalType": "uint256",
          "name": "_lotteryId",
          "type": "uint256"
        },
        {
          "internalType": "uint256",
          "name": "amount",
          "type": "uint256"
        }
      ],
      "name": "participateInSafemars",
      "outputs": [],
      "stateMutability": "nonpayable",
      "type": "function"
    },
    {
      "inputs": [
        {
          "internalType": "uint256",
          "name": "_lotteryId",
          "type": "uint256"
        }
      ],
      "name": "exit",
      "outputs": [],
      "stateMutability": "nonpayable",
      "type": "function"
    }
  ],
  "bytecode": "0x60806040523480156200001157600080fd5b506040516200436e3803806200436e833981810160405281019062000037919062000169565b828282600160008190555082600160006101000a81548173ffffffffffffffffffffffffffffffffffffffff021916908373ffffffffffffffffffffffffffffffffffffffff16021790555081600260006101000a81548173ffffffffffffffffffffffffffffffffffffffff021916908373ffffffffffffffffffffffffffffffffffffffff16021790555080600360006101000a81548173ffffffffffffffffffffffffffffffffffffffff021916908373ffffffffffffffffffffffffffffffffffffffff16021790555050505033600560006101000a81548173ffffffffffffffffffffffffffffffffffffffff021916908373ffffffffffffffffffffffffffffffffffffffff1602179055505050506200020d565b6000815190506200016381620001f3565b92915050565b6000806000606084860312156200017f57600080fd5b60006200018f8682870162000152565b9350506020620001a28682870162000152565b9250506040620001b58682870162000152565b9150509250925092565b6000620001cc82620001d3565b9050919050565b600073ffffffffffffffffffffffffffffffffffffffff82169050919050565b620001fe81620001bf565b81146200020a57600080fd5b50565b614151806200021d6000396000f3fe60806040523480156200001157600080fd5b5060043610620001235760003560e01c80637211ce8c11620000b1578063b585fabc116200007b578063b585fabc1462000330578063bcbf42f71462000366578063e4905e9b1462000388578063f2fde38b14620003a8578063f887ea4014620003c85762000123565b80637211ce8c146200029a5780637f8661a114620002ba578063ab331fbd14620002da578063b10c709e14620002fa5762000123565b8063535bb07c11620000f3578063535bb07c14620001c25780635a502b9614620001f85780635efda217146200022e57806368fc66f414620002645762000123565b8062c2943c1462000128578063049db33414620001485780631f197a73146200016a578063213ef7f714620001a0575b600080fd5b620001466004803603810190620001409190620029c5565b620003ea565b005b6200015262000760565b60405162000161919062003084565b60405180910390f35b620001886004803603810190620001829190620029c5565b62000766565b60405162000197919062002da2565b60405180910390f35b620001aa62000806565b604051620001b9919062002da2565b60405180910390f35b620001e06004803603810190620001da9190620029c5565b6200082c565b604051620001ef919062003084565b60405180910390f35b620002166004803603810190620002109190620029c5565b620008ea565b60405162000225919062002f61565b60405180910390f35b6200024c6004803603810190620002469190620029c5565b6200090a565b6040516200025b919062003084565b60405180910390f35b6200028260048036038101906200027c9190620029c5565b620009c8565b60405162000291919062002f9b565b60405180910390f35b620002b86004803603810190620002b2919062002a1d565b620009fb565b005b620002d86004803603810190620002d29190620029c5565b62001059565b005b620002f86004803603810190620002f2919062002a1d565b62001141565b005b620003186004803603810190620003129190620029c5565b62001285565b60405162000327919062003084565b60405180910390f35b6200034e6004803603810190620003489190620029c5565b62001343565b6040516200035d919062003084565b60405180910390f35b6200037062001401565b6040516200037f919062002da2565b60405180910390f35b620003a66004803603810190620003a0919062002a1d565b62001427565b005b620003c66004803603810190620003c0919062002941565b62001730565b005b620003d2620017cf565b604051620003e1919062002f7e565b60405180910390f35b600560009054906101000a900473ffffffffffffffffffffffffffffffffffffffff1673ffffffffffffffffffffffffffffffffffffffff163373ffffffffffffffffffffffffffffffffffffffff16146200044557600080fd5b6008600082815260200190815260200160002060009054906101000a900460ff1615620004a9576040517f08c379a0000000000000000000000000000000000000000000000000000000008152600401620004a09062002ffc565b60405180910390fd5b60016008600083815260200190815260200160002060006101000a81548160ff02191690831515021790555060006007600083815260200190815260200160002060009054906101000a900473ffffffffffffffffffffffffffffffffffffffff1673ffffffffffffffffffffffffffffffffffffffff166314034bd26040518163ffffffff1660e01b8152600401602060405180830381600087803b1580156200055357600080fd5b505af115801562000568573d6000803e3d6000fd5b505050506040513d601f19601f820116820180604052508101906200058e91906200296d565b9050806009600084815260200190815260200160002060006101000a81548173ffffffffffffffffffffffffffffffffffffffff021916908373ffffffffffffffffffffffffffffffffffffffff1602179055506000620006a36007600085815260200190815260200160002060009054906101000a900473ffffffffffffffffffffffffffffffffffffffff1673ffffffffffffffffffffffffffffffffffffffff1663b8760e6b6040518163ffffffff1660e01b815260040160206040518083038186803b1580156200066257600080fd5b505afa15801562000677573d6000803e3d6000fd5b505050506040513d601f19601f820116820180604052508101906200069d9190620029f1565b620017f5565b9050600260009054906101000a900473ffffffffffffffffffffffffffffffffffffffff1673ffffffffffffffffffffffffffffffffffffffff1663a9059cbb83836040518363ffffffff1660e01b81526004016200070492919062002f34565b602060405180830381600087803b1580156200071f57600080fd5b505af115801562000734573d6000803e3d6000fd5b505050506040513d601f19601f820116820180604052508101906200075a919062002999565b50505050565b600a5481565b60006008600083815260200190815260200160002060009054906101000a900460ff16620007cb576040517f08c379a0000000000000000000000000000000000000000000000000000000008152600401620007c29062003062565b60405180910390fd5b6009600083815260200190815260200160002060009054906101000a900473ffffffffffffffffffffffffffffffffffffffff169050919050565b600360009054906101000a900473ffffffffffffffffffffffffffffffffffffffff1681565b60006007600083815260200190815260200160002060009054906101000a900473ffffffffffffffffffffffffffffffffffffffff1673ffffffffffffffffffffffffffffffffffffffff1663b8760e6b6040518163ffffffff1660e01b815260040160206040518083038186803b158015620008a857600080fd5b505afa158015620008bd573d6000803e3d6000fd5b505050506040513d601f19601f82011682018060405250810190620008e39190620029f1565b9050919050565b60086020528060005260406000206000915054906101000a900460ff1681565b60006007600083815260200190815260200160002060009054906101000a900473ffffffffffffffffffffffffffffffffffffffff1673ffffffffffffffffffffffffffffffffffffffff1663d45bec4b6040518163ffffffff1660e01b815260040160206040518083038186803b1580156200098657600080fd5b505afa1580156200099b573d6000803e3d6000fd5b505050506040513d601f19601f82011682018060405250810190620009c19190620029f1565b9050919050565b60076020528060005260406000206000915054906101000a900473ffffffffffffffffffffffffffffffffffffffff1681565b6002600054141562000a44576040517f08c379a000000000000000000000000000000000000000000000000000000000815260040162000a3b9062003040565b60405180910390fd5b60026000819055506000600260009054906101000a900473ffffffffffffffffffffffffffffffffffffffff1673ffffffffffffffffffffffffffffffffffffffff166370a08231306040518263ffffffff1660e01b815260040162000aab919062002da2565b60206040518083038186803b15801562000ac457600080fd5b505afa15801562000ad9573d6000803e3d6000fd5b505050506040513d601f19601f8201168201806040525081019062000aff9190620029f1565b9050600260009054906101000a900473ffffffffffffffffffffffffffffffffffffffff1673ffffffffffffffffffffffffffffffffffffffff166323b872dd3330856040518463ffffffff1660e01b815260040162000b629392919062002dec565b602060405180830381600087803b15801562000b7d57600080fd5b505af115801562000b92573d6000803e3d6000fd5b505050506040513d601f19601f8201168201806040525081019062000bb8919062002999565b62000bfa576040517f08c379a000000000000000000000000000000000000000000000000000000000815260040162000bf1906200301e565b60405180910390fd5b600062000cc182600260009054906101000a900473ffffffffffffffffffffffffffffffffffffffff1673ffffffffffffffffffffffffffffffffffffffff166370a08231306040518263ffffffff1660e01b815260040162000c5e919062002da2565b60206040518083038186803b15801562000c7757600080fd5b505afa15801562000c8c573d6000803e3d6000fd5b505050506040513d601f19601f8201168201806040525081019062000cb29190620029f1565b6200184f90919063ffffffff16565b9050600062000cd08262001867565b90506007600086815260200190815260200160002060009054906101000a900473ffffffffffffffffffffffffffffffffffffffff1673ffffffffffffffffffffffffffffffffffffffff1663d45bec4b6040518163ffffffff1660e01b815260040160206040518083038186803b15801562000d4c57600080fd5b505afa15801562000d61573d6000803e3d6000fd5b505050506040513d601f19601f8201168201806040525081019062000d879190620029f1565b81101562000e5657600062000d9c82620017f5565b9050600260009054906101000a900473ffffffffffffffffffffffffffffffffffffffff1673ffffffffffffffffffffffffffffffffffffffff1663a9059cbb33836040518363ffffffff1660e01b815260040162000dfd92919062002f34565b602060405180830381600087803b15801562000e1857600080fd5b505af115801562000e2d573d6000803e3d6000fd5b505050506040513d601f19601f8201168201806040525081019062000e53919062002999565b50505b6007600086815260200190815260200160002060009054906101000a900473ffffffffffffffffffffffffffffffffffffffff1673ffffffffffffffffffffffffffffffffffffffff1663d45bec4b6040518163ffffffff1660e01b815260040160206040518083038186803b15801562000ed057600080fd5b505afa15801562000ee5573d6000803e3d6000fd5b505050506040513d601f19601f8201168201806040525081019062000f0b9190620029f1565b81101562000f50576040517f08c379a000000000000000000000000000000000000000000000000000000000815260040162000f479062002fb8565b60405180910390fd5b600062000f7d606462000f6e600485620018c190919063ffffffff16565b620018d990919063ffffffff16565b90506007600087815260200190815260200160002060009054906101000a900473ffffffffffffffffffffffffffffffffffffffff1673ffffffffffffffffffffffffffffffffffffffff166313b1864082336040518363ffffffff1660e01b815260040162000fef929190620030a1565b600060405180830381600087803b1580156200100a57600080fd5b505af11580156200101f573d6000803e3d6000fd5b5050505060006200103a82846200184f90919063ffffffff16565b9050620010488133620018f1565b505050505060016000819055505050565b60026000541415620010a2576040517f08c379a0000000000000000000000000000000000000000000000000000000008152600401620010999062003040565b60405180910390fd5b60026000819055506008600082815260200190815260200160002060009054906101000a900460ff166200110d576040517f08c379a0000000000000000000000000000000000000000000000000000000008152600401620011049062002fda565b60405180910390fd5b62001118336200198d565b620011306001600a5462001b2d90919063ffffffff16565b600a81905550600160008190555050565b600560009054906101000a900473ffffffffffffffffffffffffffffffffffffffff1673ffffffffffffffffffffffffffffffffffffffff163373ffffffffffffffffffffffffffffffffffffffff16146200119c57600080fd5b818130604051620011ad90620028c0565b620011bb9392919062003132565b604051809103906000f080158015620011d8573d6000803e3d6000fd5b5060076000600654815260200190815260200160002060006101000a81548173ffffffffffffffffffffffffffffffffffffffff021916908373ffffffffffffffffffffffffffffffffffffffff16021790555060066000815480929190620012419062003398565b91905055507f9e0023bebcc752baaa41057318405b5a6a8e9c6372b519717cfdf238e5caa79560065460405162001279919062003084565b60405180910390a15050565b60006007600083815260200190815260200160002060009054906101000a900473ffffffffffffffffffffffffffffffffffffffff1673ffffffffffffffffffffffffffffffffffffffff166396df6bbe6040518163ffffffff1660e01b815260040160206040518083038186803b1580156200130157600080fd5b505afa15801562001316573d6000803e3d6000fd5b505050506040513d601f19601f820116820180604052508101906200133c9190620029f1565b9050919050565b60006007600083815260200190815260200160002060009054906101000a900473ffffffffffffffffffffffffffffffffffffffff1673ffffffffffffffffffffffffffffffffffffffff16632ba976386040518163ffffffff1660e01b815260040160206040518083038186803b158015620013bf57600080fd5b505afa158015620013d4573d6000803e3d6000fd5b505050506040513d601f19601f82011682018060405250810190620013fa9190620029f1565b9050919050565b600260009054906101000a900473ffffffffffffffffffffffffffffffffffffffff1681565b6002600054141562001470576040517f08c379a0000000000000000000000000000000000000000000000000000000008152600401620014679062003040565b60405180910390fd5b60026000819055506007600083815260200190815260200160002060009054906101000a900473ffffffffffffffffffffffffffffffffffffffff1673ffffffffffffffffffffffffffffffffffffffff1663d45bec4b6040518163ffffffff1660e01b815260040160206040518083038186803b158015620014f257600080fd5b505afa15801562001507573d6000803e3d6000fd5b505050506040513d601f19601f820116820180604052508101906200152d9190620029f1565b81101562001572576040517f08c379a0000000000000000000000000000000000000000000000000000000008152600401620015699062002fb8565b60405180910390fd5b600360009054906101000a900473ffffffffffffffffffffffffffffffffffffffff1673ffffffffffffffffffffffffffffffffffffffff166323b872dd3330846040518463ffffffff1660e01b8152600401620015d39392919062002dec565b602060405180830381600087803b158015620015ee57600080fd5b505af115801562001603573d6000803e3d6000fd5b505050506040513d601f19601f8201168201806040525081019062001629919062002999565b50600062001657606462001648600485620018c190919063ffffffff16565b620018d990919063ffffffff16565b90506007600084815260200190815260200160002060009054906101000a900473ffffffffffffffffffffffffffffffffffffffff1673ffffffffffffffffffffffffffffffffffffffff166313b1864082336040518363ffffffff1660e01b8152600401620016c9929190620030a1565b600060405180830381600087803b158015620016e457600080fd5b505af1158015620016f9573d6000803e3d6000fd5b5050505060006200171482846200184f90919063ffffffff16565b9050620017228133620018f1565b505060016000819055505050565b600560009054906101000a900473ffffffffffffffffffffffffffffffffffffffff1673ffffffffffffffffffffffffffffffffffffffff163373ffffffffffffffffffffffffffffffffffffffff16146200178b57600080fd5b80600560006101000a81548173ffffffffffffffffffffffffffffffffffffffff021916908373ffffffffffffffffffffffffffffffffffffffff16021790555050565b600160009054906101000a900473ffffffffffffffffffffffffffffffffffffffff1681565b600062001848600360009054906101000a900473ffffffffffffffffffffffffffffffffffffffff16600260009054906101000a900473ffffffffffffffffffffffffffffffffffffffff168462001b45565b9050919050565b600081836200185f9190620032af565b905092915050565b6000620018ba600260009054906101000a900473ffffffffffffffffffffffffffffffffffffffff16600360009054906101000a900473ffffffffffffffffffffffffffffffffffffffff168462001b45565b9050919050565b60008183620018d191906200324e565b905092915050565b60008183620018e9919062003216565b905092915050565b600062001909600284620018d990919063ffffffff16565b905060006200192282856200184f90919063ffffffff16565b9050600062001977600360009054906101000a900473ffffffffffffffffffffffffffffffffffffffff16600260009054906101000a900473ffffffffffffffffffffffffffffffffffffffff168462001b45565b90506200198681848662001f4e565b5050505050565b6000600460008373ffffffffffffffffffffffffffffffffffffffff1673ffffffffffffffffffffffffffffffffffffffff1681526020019081526020016000209050600080620019e28360020154620023d4565b91509150600062001a39600360009054906101000a900473ffffffffffffffffffffffffffffffffffffffff16600260009054906101000a900473ffffffffffffffffffffffffffffffffffffffff168462001b45565b905060008460010181905550600084600001819055506000846002018190555062001a6e838262001b2d90919063ffffffff16565b9050600260009054906101000a900473ffffffffffffffffffffffffffffffffffffffff1673ffffffffffffffffffffffffffffffffffffffff1663a9059cbb86836040518363ffffffff1660e01b815260040162001acf92919062002f34565b602060405180830381600087803b15801562001aea57600080fd5b505af115801562001aff573d6000803e3d6000fd5b505050506040513d601f19601f8201168201806040525081019062001b25919062002999565b505050505050565b6000818362001b3d9190620031b9565b905092915050565b60008373ffffffffffffffffffffffffffffffffffffffff1663095ea7b3600160009054906101000a900473ffffffffffffffffffffffffffffffffffffffff16846040518363ffffffff1660e01b815260040162001ba692919062002f34565b602060405180830381600087803b15801562001bc157600080fd5b505af115801562001bd6573d6000803e3d6000fd5b505050506040513d601f19601f8201168201806040525081019062001bfc919062002999565b506000600267ffffffffffffffff81111562001c41577f4e487b7100000000000000000000000000000000000000000000000000000000600052604160045260246000fd5b60405190808252806020026020018201604052801562001c705781602001602082028036833780820191505090505b509050848160008151811062001caf577f4e487b7100000000000000000000000000000000000000000000000000000000600052603260045260246000fd5b602002602001019073ffffffffffffffffffffffffffffffffffffffff16908173ffffffffffffffffffffffffffffffffffffffff1681525050838160018151811062001d25577f4e487b7100000000000000000000000000000000000000000000000000000000600052603260045260246000fd5b602002602001019073ffffffffffffffffffffffffffffffffffffffff16908173ffffffffffffffffffffffffffffffffffffffff168152505060008473ffffffffffffffffffffffffffffffffffffffff166370a08231306040518263ffffffff1660e01b815260040162001d9c919062002da2565b60206040518083038186803b15801562001db557600080fd5b505afa15801562001dca573d6000803e3d6000fd5b505050506040513d601f19601f8201168201806040525081019062001df09190620029f1565b9050600160009054906101000a900473ffffffffffffffffffffffffffffffffffffffff1673ffffffffffffffffffffffffffffffffffffffff16635c11d7958560008530603c4262001e449190620031b9565b6040518663ffffffff1660e01b815260040162001e66959493929190620030ce565b600060405180830381600087803b15801562001e8157600080fd5b505af115801562001e96573d6000803e3d6000fd5b5050505060008573ffffffffffffffffffffffffffffffffffffffff166370a08231306040518263ffffffff1660e01b815260040162001ed7919062002da2565b60206040518083038186803b15801562001ef057600080fd5b505afa15801562001f05573d6000803e3d6000fd5b505050506040513d601f19601f8201168201806040525081019062001f2b9190620029f1565b905062001f4282826200184f90919063ffffffff16565b93505050509392505050565b600260009054906101000a900473ffffffffffffffffffffffffffffffffffffffff1673ffffffffffffffffffffffffffffffffffffffff1663095ea7b3600160009054906101000a900473ffffffffffffffffffffffffffffffffffffffff16856040518363ffffffff1660e01b815260040162001fcf92919062002f34565b602060405180830381600087803b15801562001fea57600080fd5b505af115801562001fff573d6000803e3d6000fd5b505050506040513d601f19601f8201168201806040525081019062002025919062002999565b50600360009054906101000a900473ffffffffffffffffffffffffffffffffffffffff1673ffffffffffffffffffffffffffffffffffffffff1663095ea7b3600160009054906101000a900473ffffffffffffffffffffffffffffffffffffffff16846040518363ffffffff1660e01b8152600401620020a792919062002f34565b602060405180830381600087803b158015620020c257600080fd5b505af1158015620020d7573d6000803e3d6000fd5b505050506040513d601f19601f82011682018060405250810190620020fd919062002999565b5060006200210a62002736565b73ffffffffffffffffffffffffffffffffffffffff166370a08231306040518263ffffffff1660e01b815260040162002144919062002da2565b60206040518083038186803b1580156200215d57600080fd5b505afa15801562002172573d6000803e3d6000fd5b505050506040513d601f19601f82011682018060405250810190620021989190620029f1565b9050600160009054906101000a900473ffffffffffffffffffffffffffffffffffffffff1673ffffffffffffffffffffffffffffffffffffffff1663e8e33700600260009054906101000a900473ffffffffffffffffffffffffffffffffffffffff16600360009054906101000a900473ffffffffffffffffffffffffffffffffffffffff1687876000803061016842620022349190620031b9565b6040518963ffffffff1660e01b81526004016200225998979695949392919062002ea6565b606060405180830381600087803b1580156200227457600080fd5b505af115801562002289573d6000803e3d6000fd5b505050506040513d601f19601f82011682018060405250810190620022af919062002a9f565b5050506000620022be62002736565b73ffffffffffffffffffffffffffffffffffffffff166370a08231306040518263ffffffff1660e01b8152600401620022f8919062002da2565b60206040518083038186803b1580156200231157600080fd5b505afa15801562002326573d6000803e3d6000fd5b505050506040513d601f19601f820116820180604052508101906200234c9190620029f1565b905060006200236583836200184f90919063ffffffff16565b90506000600460008673ffffffffffffffffffffffffffffffffffffffff1673ffffffffffffffffffffffffffffffffffffffff1681526020019081526020016000209050620023c382826002015462001b2d90919063ffffffff16565b816002018190555050505050505050565b600080620023e162002736565b73ffffffffffffffffffffffffffffffffffffffff1663095ea7b3600160009054906101000a900473ffffffffffffffffffffffffffffffffffffffff16856040518363ffffffff1660e01b81526004016200243f92919062002f34565b602060405180830381600087803b1580156200245a57600080fd5b505af11580156200246f573d6000803e3d6000fd5b505050506040513d601f19601f8201168201806040525081019062002495919062002999565b506000600260009054906101000a900473ffffffffffffffffffffffffffffffffffffffff1673ffffffffffffffffffffffffffffffffffffffff166370a08231306040518263ffffffff1660e01b8152600401620024f5919062002da2565b60206040518083038186803b1580156200250e57600080fd5b505afa15801562002523573d6000803e3d6000fd5b505050506040513d601f19601f82011682018060405250810190620025499190620029f1565b9050600160009054906101000a900473ffffffffffffffffffffffffffffffffffffffff1673ffffffffffffffffffffffffffffffffffffffff1663baa2abde600260009054906101000a900473ffffffffffffffffffffffffffffffffffffffff16600360009054906101000a900473ffffffffffffffffffffffffffffffffffffffff16876000803061016842620025e49190620031b9565b6040518863ffffffff1660e01b815260040162002608979695949392919062002e29565b6040805180830381600087803b1580156200262257600080fd5b505af115801562002637573d6000803e3d6000fd5b505050506040513d601f19601f820116820180604052508101906200265d919062002a5e565b9050809250506000600260009054906101000a900473ffffffffffffffffffffffffffffffffffffffff1673ffffffffffffffffffffffffffffffffffffffff166370a08231306040518263ffffffff1660e01b8152600401620026c2919062002da2565b60206040518083038186803b158015620026db57600080fd5b505afa158015620026f0573d6000803e3d6000fd5b505050506040513d601f19601f82011682018060405250810190620027169190620029f1565b90506200272d82826200184f90919063ffffffff16565b93505050915091565b600080600160009054906101000a900473ffffffffffffffffffffffffffffffffffffffff1673ffffffffffffffffffffffffffffffffffffffff1663c45a01556040518163ffffffff1660e01b815260040160206040518083038186803b158015620027a257600080fd5b505afa158015620027b7573d6000803e3d6000fd5b505050506040513d601f19601f82011682018060405250810190620027dd91906200296d565b905060008173ffffffffffffffffffffffffffffffffffffffff1663e6a43905600260009054906101000a900473ffffffffffffffffffffffffffffffffffffffff16600360009054906101000a900473ffffffffffffffffffffffffffffffffffffffff166040518363ffffffff1660e01b81526004016200286292919062002dbf565b60206040518083038186803b1580156200287b57600080fd5b505afa15801562002890573d6000803e3d6000fd5b505050506040513d601f19601f82011682018060405250810190620028b691906200296d565b9050809250505090565b610c89806200349383390190565b600081359050620028df8162003444565b92915050565b600081519050620028f68162003444565b92915050565b6000815190506200290d816200345e565b92915050565b600081359050620029248162003478565b92915050565b6000815190506200293b8162003478565b92915050565b6000602082840312156200295457600080fd5b60006200296484828501620028ce565b91505092915050565b6000602082840312156200298057600080fd5b60006200299084828501620028e5565b91505092915050565b600060208284031215620029ac57600080fd5b6000620029bc84828501620028fc565b91505092915050565b600060208284031215620029d857600080fd5b6000620029e88482850162002913565b91505092915050565b60006020828403121562002a0457600080fd5b600062002a14848285016200292a565b91505092915050565b6000806040838503121562002a3157600080fd5b600062002a418582860162002913565b925050602062002a548582860162002913565b9150509250929050565b6000806040838503121562002a7257600080fd5b600062002a82858286016200292a565b925050602062002a95858286016200292a565b9150509250929050565b60008060006060848603121562002ab557600080fd5b600062002ac5868287016200292a565b935050602062002ad8868287016200292a565b925050604062002aeb868287016200292a565b9150509250925092565b600062002b03838362002b0f565b60208301905092915050565b62002b1a81620032ea565b82525050565b62002b2b81620032ea565b82525050565b600062002b3e826200317f565b62002b4a818562003197565b935062002b57836200316f565b8060005b8381101562002b8e57815162002b72888262002af5565b975062002b7f836200318a565b92505060018101905062002b5b565b5085935050505092915050565b62002ba681620032fe565b82525050565b62002bb78162003334565b82525050565b62002bc8816200335c565b82525050565b62002bd98162003384565b82525050565b600062002bee602e83620031a8565b91507f5472616e7366657272656420616d6f756e74206973206c657373207468616e2060008301527f6d696e696d756d20616d6f756e740000000000000000000000000000000000006020830152604082019050919050565b600062002c56601383620031a8565b91507f57696e6e6572206e6f74206465636c61726564000000000000000000000000006000830152602082019050919050565b600062002c98601783620031a8565b91507f57696e6e657220616c7265616479206465636c617265640000000000000000006000830152602082019050919050565b600062002cda601883620031a8565b91507f536166656d617273207472616e73666572206661696c656400000000000000006000830152602082019050919050565b600062002d1c601f83620031a8565b91507f5265656e7472616e637947756172643a207265656e7472616e742063616c6c006000830152602082019050919050565b600062002d5e601a83620031a8565b91507f57696e6e6572206973206e6f74206465636c61726564207965740000000000006000830152602082019050919050565b62002d9c816200332a565b82525050565b600060208201905062002db9600083018462002b20565b92915050565b600060408201905062002dd6600083018562002b20565b62002de5602083018462002b20565b9392505050565b600060608201905062002e03600083018662002b20565b62002e12602083018562002b20565b62002e21604083018462002d91565b949350505050565b600060e08201905062002e40600083018a62002b20565b62002e4f602083018962002b20565b62002e5e604083018862002d91565b62002e6d606083018762002bce565b62002e7c608083018662002bce565b62002e8b60a083018562002b20565b62002e9a60c083018462002d91565b98975050505050505050565b60006101008201905062002ebe600083018b62002b20565b62002ecd602083018a62002b20565b62002edc604083018962002d91565b62002eeb606083018862002d91565b62002efa608083018762002bce565b62002f0960a083018662002bce565b62002f1860c083018562002b20565b62002f2760e083018462002d91565b9998505050505050505050565b600060408201905062002f4b600083018562002b20565b62002f5a602083018462002d91565b9392505050565b600060208201905062002f78600083018462002b9b565b92915050565b600060208201905062002f95600083018462002bac565b92915050565b600060208201905062002fb2600083018462002bbd565b92915050565b6000602082019050818103600083015262002fd38162002bdf565b9050919050565b6000602082019050818103600083015262002ff58162002c47565b9050919050565b60006020820190508181036000830152620030178162002c89565b9050919050565b60006020820190508181036000830152620030398162002ccb565b9050919050565b600060208201905081810360008301526200305b8162002d0d565b9050919050565b600060208201905081810360008301526200307d8162002d4f565b9050919050565b60006020820190506200309b600083018462002d91565b92915050565b6000604082019050620030b8600083018562002d91565b620030c7602083018462002b20565b9392505050565b600060a082019050620030e5600083018862002d91565b620030f4602083018762002bce565b818103604083015262003108818662002b31565b905062003119606083018562002b20565b62003128608083018462002d91565b9695505050505050565b600060608201905062003149600083018662002d91565b62003158602083018562002d91565b62003167604083018462002b20565b949350505050565b6000819050602082019050919050565b600081519050919050565b6000602082019050919050565b600082825260208201905092915050565b600082825260208201905092915050565b6000620031c6826200332a565b9150620031d3836200332a565b9250827fffffffffffffffffffffffffffffffffffffffffffffffffffffffffffffffff038211156200320b576200320a620033e6565b5b828201905092915050565b600062003223826200332a565b915062003230836200332a565b92508262003243576200324262003415565b5b828204905092915050565b60006200325b826200332a565b915062003268836200332a565b9250817fffffffffffffffffffffffffffffffffffffffffffffffffffffffffffffffff0483118215151615620032a457620032a3620033e6565b5b828202905092915050565b6000620032bc826200332a565b9150620032c9836200332a565b925082821015620032df57620032de620033e6565b5b828203905092915050565b6000620032f7826200330a565b9050919050565b60008115159050919050565b600073ffffffffffffffffffffffffffffffffffffffff82169050919050565b6000819050919050565b6000620033418262003348565b9050919050565b600062003355826200330a565b9050919050565b6000620033698262003370565b9050919050565b60006200337d826200330a565b9050919050565b600062003391826200332a565b9050919050565b6000620033a5826200332a565b91507fffffffffffffffffffffffffffffffffffffffffffffffffffffffffffffffff821415620033db57620033da620033e6565b5b600182019050919050565b7f4e487b7100000000000000000000000000000000000000000000000000000000600052601160045260246000fd5b7f4e487b7100000000000000000000000000000000000000000000000000000000600052601260045260246000fd5b6200344f81620032ea565b81146200345b57600080fd5b50565b6200346981620032fe565b81146200347557600080fd5b50565b62003483816200332a565b81146200348f57600080fd5b5056fe60806040523480156200001157600080fd5b5060405162000c8938038062000c89833981810160405281019062000037919062000118565b826000819055508160018190555062000067670de0b6b3a764000084620000d260201b620004ad1790919060201c565b60038190555080600260006101000a81548173ffffffffffffffffffffffffffffffffffffffff021916908373ffffffffffffffffffffffffffffffffffffffff1602179055506001600660006101000a81548160ff02191690831515021790555050505062000247565b60008183620000e291906200016e565b905092915050565b600081519050620000fb8162000213565b92915050565b60008151905062000112816200022d565b92915050565b6000806000606084860312156200012e57600080fd5b60006200013e8682870162000101565b9350506020620001518682870162000101565b92505060406200016486828701620000ea565b9150509250925092565b60006200017b82620001da565b91506200018883620001da565b9250826200019b576200019a620001e4565b5b828204905092915050565b6000620001b382620001ba565b9050919050565b600073ffffffffffffffffffffffffffffffffffffffff82169050919050565b6000819050919050565b7f4e487b7100000000000000000000000000000000000000000000000000000000600052601260045260246000fd5b6200021e81620001a6565b81146200022a57600080fd5b50565b6200023881620001da565b81146200024457600080fd5b50565b610a3280620002576000396000f3fe608060405234801561001057600080fd5b50600436106100625760003560e01c806313b186401461006757806314034bd2146100835780632ba97638146100a157806396df6bbe146100bf578063b8760e6b146100dd578063d45bec4b146100fb575b600080fd5b610081600480360381019061007c9190610550565b610119565b005b61008b610307565b6040516100989190610764565b60405180910390f35b6100a9610486565b6040516100b6919061081f565b60405180910390f35b6100c7610490565b6040516100d4919061081f565b60405180910390f35b6100e561049a565b6040516100f2919061081f565b60405180910390f35b6101036104a3565b604051610110919061081f565b60405180910390f35b6000600354141561015f576040517f08c379a00000000000000000000000000000000000000000000000000000000081526004016101569061079f565b60405180910390fd5b600660009054906101000a900460ff166101ae576040517f08c379a00000000000000000000000000000000000000000000000000000000081526004016101a5906107bf565b60405180910390fd5b60006101cb670de0b6b3a7640000846104ad90919063ffffffff16565b9050806003541015610212576040517f08c379a0000000000000000000000000000000000000000000000000000000008152600401610209906107df565b60405180910390fd5b60005b8181101561029c578260076000600454815260200190815260200160002060006101000a81548173ffffffffffffffffffffffffffffffffffffffff021916908373ffffffffffffffffffffffffffffffffffffffff16021790555060046000815480929190610284906108ec565b91905055508080610294906108ec565b915050610215565b506102b2816003546104c390919063ffffffff16565b600381905550600060035414156102cb57426005819055505b7f609ccaad0d5a048d24b2ea393937b393e3ad528ec64eca22004023379ea26f42826040516102fa9190610764565b60405180910390a1505050565b6000600260009054906101000a900473ffffffffffffffffffffffffffffffffffffffff1673ffffffffffffffffffffffffffffffffffffffff163373ffffffffffffffffffffffffffffffffffffffff161461036357600080fd5b600660009054906101000a900460ff166103b2576040517f08c379a00000000000000000000000000000000000000000000000000000000081526004016103a9906107ff565b60405180910390fd5b6000600354146103f7576040517f08c379a00000000000000000000000000000000000000000000000000000000081526004016103ee9061077f565b60405180910390fd5b6000600660006101000a81548160ff021916908315150217905550600061044a610434670de0b6b3a76400006000546104ad90919063ffffffff16565b61043c6104d9565b61051090919063ffffffff16565b90506007600082815260200190815260200160002060009054906101000a900473ffffffffffffffffffffffffffffffffffffffff1691505090565b6000600354905090565b6000600554905090565b60008054905090565b6000600154905090565b600081836104bb919061084b565b905092915050565b600081836104d1919061087c565b905092915050565b600044426000546040516020016104f293929190610727565b6040516020818303038152906040528051906020012060001c905090565b6000818361051e919061093f565b905092915050565b600081359050610535816109ce565b92915050565b60008135905061054a816109e5565b92915050565b6000806040838503121561056357600080fd5b60006105718582860161053b565b925050602061058285828601610526565b9150509250929050565b610595816108b0565b82525050565b60006105a860178361083a565b91507f636f6e74657874206973206e6f742066756c6c207965740000000000000000006000830152602082019050919050565b60006105e8600f8361083a565b91507f636f6e746578742069732066756c6c00000000000000000000000000000000006000830152602082019050919050565b6000610628601d8361083a565b91507f636f6e74657874206973206e6f742061637469766520616e796d6f72650000006000830152602082019050919050565b600061066860328361083a565b91507f656e74726565206665652073686f756c6420626520736d616c6c65722074686160008301527f6e20656e747269657320726571756972656400000000000000000000000000006020830152604082019050919050565b60006106ce601d8361083a565b91507f436f6e74657874206973206e6f742061637469766520616e796d6f72650000006000830152602082019050919050565b61070a816108e2565b82525050565b61072161071c826108e2565b610935565b82525050565b60006107338286610710565b6020820191506107438285610710565b6020820191506107538284610710565b602082019150819050949350505050565b6000602082019050610779600083018461058c565b92915050565b600060208201905081810360008301526107988161059b565b9050919050565b600060208201905081810360008301526107b8816105db565b9050919050565b600060208201905081810360008301526107d88161061b565b9050919050565b600060208201905081810360008301526107f88161065b565b9050919050565b60006020820190508181036000830152610818816106c1565b9050919050565b60006020820190506108346000830184610701565b92915050565b600082825260208201905092915050565b6000610856826108e2565b9150610861836108e2565b9250826108715761087061099f565b5b828204905092915050565b6000610887826108e2565b9150610892836108e2565b9250828210156108a5576108a4610970565b5b828203905092915050565b60006108bb826108c2565b9050919050565b600073ffffffffffffffffffffffffffffffffffffffff82169050919050565b6000819050919050565b60006108f7826108e2565b91507fffffffffffffffffffffffffffffffffffffffffffffffffffffffffffffffff82141561092a57610929610970565b5b600182019050919050565b6000819050919050565b600061094a826108e2565b9150610955836108e2565b9250826109655761096461099f565b5b828206905092915050565b7f4e487b7100000000000000000000000000000000000000000000000000000000600052601160045260246000fd5b7f4e487b7100000000000000000000000000000000000000000000000000000000600052601260045260246000fd5b6109d7816108b0565b81146109e257600080fd5b50565b6109ee816108e2565b81146109f957600080fd5b5056fea2646970667358221220947e177c9321d1bbaf975f3dc129462dce047238577fd0d2720204fcf1f2253364736f6c63430008000033a2646970667358221220a8159e33c290875d07f5603ded4f1d6e580aedce294c665737392f48a7b5570864736f6c63430008000033",
  "immutableReferences": {},
  "source": "// SPDX-License-Identifier: MIT\r\npragma solidity ^0.8.0;\r\n\r\nimport \"./PancakeClass.sol\";\r\nimport \"./Lottery.sol\";\r\n\r\ncontract LpLottery is PancakeClass {\r\n    address private admin;\r\n    uint256 private lotteryId;\r\n    mapping(uint256 => Lottery) public lotteryStructs;\r\n    mapping(uint256 => bool) public lotteryWinnerDeclared;\r\n    mapping(uint256 => address) private lotteryWinner;\r\n    uint256 public unstakingCount;\r\n    using SafeMath for uint256;\r\n\r\n    constructor(\r\n        address _routerAddres,\r\n        address _tokenSafeMars,\r\n        address _tokenBUSD\r\n    ) PancakeClass(_routerAddres, _tokenSafeMars, _tokenBUSD) {\r\n        admin = msg.sender;\r\n    }\r\n\r\n    function transferOwnership(address newManger) public restricted {\r\n        admin = newManger;\r\n    }\r\n\r\n    function createContext(uint256 _prizeValue, uint256 _minimumAmount)\r\n        public\r\n        restricted\r\n    {\r\n        lotteryStructs[lotteryId] = new Lottery(\r\n            _prizeValue,\r\n            _minimumAmount,\r\n            address(this)\r\n        );\r\n        lotteryId++;\r\n        emit LotteryCreated(lotteryId);\r\n    }\r\n\r\n    function declareWinner(uint256 _lotteryId) public restricted {\r\n        require(!lotteryWinnerDeclared[_lotteryId], \"Winner already declared\");\r\n        lotteryWinnerDeclared[_lotteryId] = true;\r\n        address winner = lotteryStructs[_lotteryId].declareWinner();\r\n        lotteryWinner[_lotteryId] = winner;\r\n        uint256 tokensGetInSafemars = convertBUSDToSafeMars(\r\n            lotteryStructs[_lotteryId].getPrizeValue()\r\n        );\r\n        IERC20(tokenSafeMars).transfer(winner, tokensGetInSafemars);\r\n    }\r\n\r\n    function getEntriesRequired(uint256 _lotteryId)\r\n        public\r\n        view\r\n        returns (uint256)\r\n    {\r\n        return lotteryStructs[_lotteryId].getEntriesRequired();\r\n    }\r\n\r\n    function getTimestampForLastEntry(uint256 _lotteryId)\r\n        external\r\n        view\r\n        returns (uint256)\r\n    {\r\n        return lotteryStructs[_lotteryId].getTimestampForLatsEntry();\r\n    }\r\n\r\n    function getCashPrice(uint256 _lotteryId)\r\n        public\r\n        view\r\n        returns (uint256)\r\n    {\r\n        return lotteryStructs[_lotteryId].getPrizeValue();\r\n    }\r\n\r\n    function getMinimumInvest(uint256 _lotteryId)\r\n        public\r\n        view\r\n        returns (uint256)\r\n    {\r\n        return lotteryStructs[_lotteryId].getMinimumAmountInBusd();\r\n    }\r\n\r\n    \r\n\r\n    function viewWinner(uint256 _lotteryId) public view returns (address) {\r\n        require(\r\n            lotteryWinnerDeclared[_lotteryId],\r\n            \"Winner is not declared yet\"\r\n        );\r\n        return lotteryWinner[_lotteryId];\r\n    }\r\n\r\n    function participateInBusd(uint256 _lotteryId, uint256 amount)\r\n        public\r\n        nonReentrant\r\n    {\r\n        require(\r\n            amount >= lotteryStructs[_lotteryId].getMinimumAmountInBusd(),\r\n            \"Transferred amount is less than minimum amount\"\r\n        );\r\n        IERC20(tokenBUSD).transferFrom(msg.sender, address(this), amount);\r\n        uint256 entryFee = amount.mul(4).div(100);\r\n        lotteryStructs[_lotteryId].participate(entryFee, msg.sender);\r\n        uint256 stakingAmount = amount.sub(entryFee);\r\n        stakeInBUSD(stakingAmount, msg.sender);\r\n    }\r\n\r\n     \r\n    function participateInSafemars(uint256 _lotteryId, uint256 amount)\r\n        public\r\n        nonReentrant\r\n    {\r\n        uint256 initBalance = IERC20(tokenSafeMars).balanceOf(address(this));\r\n        require(\r\n            IERC20(tokenSafeMars).transferFrom(\r\n                msg.sender,\r\n                address(this),\r\n                amount\r\n            ),\r\n            \"Safemars transfer failed\"\r\n        );\r\n        uint256 actualAmount = IERC20(tokenSafeMars)\r\n            .balanceOf(address(this))\r\n            .sub(initBalance);\r\n\r\n        uint256 tokensGetInBusdForTotalAmount = convertSafeMarsToBUSD(\r\n            actualAmount\r\n        );\r\n\r\n        if (\r\n            tokensGetInBusdForTotalAmount <\r\n            lotteryStructs[_lotteryId].getMinimumAmountInBusd()\r\n        ) {\r\n            uint256 tokensGetInSafermars = convertBUSDToSafeMars(\r\n                tokensGetInBusdForTotalAmount\r\n            );\r\n            IERC20(tokenSafeMars).transfer(msg.sender, tokensGetInSafermars);\r\n        }\r\n        require(\r\n            tokensGetInBusdForTotalAmount >=\r\n                lotteryStructs[_lotteryId].getMinimumAmountInBusd(),\r\n            \"Transferred amount is less than minimum amount\"\r\n        );\r\n\r\n        uint256 entryFee = tokensGetInBusdForTotalAmount.mul(4).div(100);\r\n        //uint256 tokensGetInBusd = convertSafeMarsToBUSD(entryFee);\r\n        lotteryStructs[_lotteryId].participate(entryFee, msg.sender);\r\n\r\n        uint256 stakingAmount = tokensGetInBusdForTotalAmount.sub(entryFee);\r\n        stakeInBUSD(stakingAmount, msg.sender);\r\n    }\r\n\r\n\r\n    function exit(uint256 _lotteryId) public nonReentrant {\r\n        require(lotteryWinnerDeclared[_lotteryId], \"Winner not declared\");\r\n        unstakeAllToSafeMars(msg.sender);\r\n        unstakingCount = unstakingCount.add(1);\r\n    }\r\n\r\n    modifier restricted() {\r\n        require(msg.sender == admin);\r\n        _;\r\n    }\r\n\r\n    event LotteryCreated(uint256 lotteryId);\r\n}\r\n",
  "sourcePath": "C:\\Users\\rafae\\Documents\\GitHub\\sfe\\contracts\\LpLottery.sol",
  "compiler": {
    "name": "solc",
    "version": "0.8.0+commit.c7dfd78e.Emscripten.clang"
  },
  "schemaVersion": "3.4.2",
  "updatedAt": "2021-09-17T19:29:19.760Z",
  "devdoc": {
    "kind": "dev",
    "methods": {},
    "version": 1
  },
  "userdoc": {
    "kind": "user",
    "methods": {},
    "version": 1
  }
}