{
  "contractName": "LpLottery",
  "abi": [
    {
      "inputs": [
        {
          "internalType": "address",
          "name": "_routerAddres",
          "type": "address"
        },
        {
          "internalType": "address",
          "name": "_tokenSafeMars",
          "type": "address"
        },
        {
          "internalType": "address",
          "name": "_tokenBUSD",
          "type": "address"
        }
      ],
      "stateMutability": "nonpayable",
      "type": "constructor"
    },
    {
      "anonymous": false,
      "inputs": [
        {
          "indexed": false,
          "internalType": "uint256",
          "name": "lotteryId",
          "type": "uint256"
        }
      ],
      "name": "LotteryCreated",
      "type": "event"
    },
    {
      "inputs": [
        {
          "internalType": "uint256",
          "name": "",
          "type": "uint256"
        }
      ],
      "name": "lotteryStructs",
      "outputs": [
        {
          "internalType": "contract Lottery",
          "name": "",
          "type": "address"
        }
      ],
      "stateMutability": "view",
      "type": "function"
    },
    {
      "inputs": [
        {
          "internalType": "uint256",
          "name": "",
          "type": "uint256"
        }
      ],
      "name": "lotteryWinnerDeclared",
      "outputs": [
        {
          "internalType": "bool",
          "name": "",
          "type": "bool"
        }
      ],
      "stateMutability": "view",
      "type": "function"
    },
    {
      "inputs": [],
      "name": "router",
      "outputs": [
        {
          "internalType": "contract IPancakeRouter02",
          "name": "",
          "type": "address"
        }
      ],
      "stateMutability": "view",
      "type": "function"
    },
    {
      "inputs": [],
      "name": "tokenBUSD",
      "outputs": [
        {
          "internalType": "address",
          "name": "",
          "type": "address"
        }
      ],
      "stateMutability": "view",
      "type": "function"
    },
    {
      "inputs": [],
      "name": "tokenSafeMars",
      "outputs": [
        {
          "internalType": "address",
          "name": "",
          "type": "address"
        }
      ],
      "stateMutability": "view",
      "type": "function"
    },
    {
      "inputs": [],
      "name": "totalUnstakingCount",
      "outputs": [
        {
          "internalType": "uint256",
          "name": "",
          "type": "uint256"
        }
      ],
      "stateMutability": "view",
      "type": "function"
    },
    {
      "inputs": [
        {
          "internalType": "address",
          "name": "newManger",
          "type": "address"
        }
      ],
      "name": "transferOwnership",
      "outputs": [],
      "stateMutability": "nonpayable",
      "type": "function"
    },
    {
      "inputs": [
        {
          "internalType": "uint256",
          "name": "_prizeValue",
          "type": "uint256"
        },
        {
          "internalType": "uint256",
          "name": "_minimumAmount",
          "type": "uint256"
        }
      ],
      "name": "createContext",
      "outputs": [],
      "stateMutability": "nonpayable",
      "type": "function"
    },
    {
      "inputs": [
        {
          "internalType": "uint256",
          "name": "_lotteryId",
          "type": "uint256"
        }
      ],
      "name": "declareWinner",
      "outputs": [],
      "stateMutability": "nonpayable",
      "type": "function"
    },
    {
      "inputs": [
        {
          "internalType": "uint256",
          "name": "_lotteryId",
          "type": "uint256"
        }
      ],
      "name": "getEntriesRequired",
      "outputs": [
        {
          "internalType": "uint256",
          "name": "",
          "type": "uint256"
        }
      ],
      "stateMutability": "view",
      "type": "function"
    },
    {
      "inputs": [
        {
          "internalType": "uint256",
          "name": "_lotteryId",
          "type": "uint256"
        }
      ],
      "name": "getTimestampForLastEntry",
      "outputs": [
        {
          "internalType": "uint256",
          "name": "",
          "type": "uint256"
        }
      ],
      "stateMutability": "view",
      "type": "function"
    },
    {
      "inputs": [
        {
          "internalType": "uint256",
          "name": "_lotteryId",
          "type": "uint256"
        }
      ],
      "name": "getCashPrice",
      "outputs": [
        {
          "internalType": "uint256",
          "name": "",
          "type": "uint256"
        }
      ],
      "stateMutability": "view",
      "type": "function"
    },
    {
      "inputs": [
        {
          "internalType": "uint256",
          "name": "_lotteryId",
          "type": "uint256"
        }
      ],
      "name": "getMinimumInvest",
      "outputs": [
        {
          "internalType": "uint256",
          "name": "",
          "type": "uint256"
        }
      ],
      "stateMutability": "view",
      "type": "function"
    },
    {
      "inputs": [
        {
          "internalType": "uint256",
          "name": "_lotteryId",
          "type": "uint256"
        }
      ],
      "name": "viewWinner",
      "outputs": [
        {
          "internalType": "address",
          "name": "",
          "type": "address"
        }
      ],
      "stateMutability": "view",
      "type": "function"
    },
    {
      "inputs": [
        {
          "internalType": "uint256",
          "name": "_lotteryId",
          "type": "uint256"
        },
        {
          "internalType": "uint256",
          "name": "amount",
          "type": "uint256"
        }
      ],
      "name": "participateInBusd",
      "outputs": [],
      "stateMutability": "nonpayable",
      "type": "function"
    },
    {
      "inputs": [
        {
          "internalType": "uint256",
          "name": "_lotteryId",
          "type": "uint256"
        },
        {
          "internalType": "uint256",
          "name": "amount",
          "type": "uint256"
        }
      ],
      "name": "participateInSafemars",
      "outputs": [],
      "stateMutability": "nonpayable",
      "type": "function"
    },
    {
      "inputs": [
        {
          "internalType": "uint256",
          "name": "_lotteryId",
          "type": "uint256"
        }
      ],
      "name": "exit",
      "outputs": [],
      "stateMutability": "nonpayable",
      "type": "function"
    },
    {
      "inputs": [
        {
          "internalType": "uint256",
          "name": "_lotteryId",
          "type": "uint256"
        }
      ],
      "name": "getUnstakingCountByLottery",
      "outputs": [
        {
          "internalType": "uint256",
          "name": "",
          "type": "uint256"
        }
      ],
      "stateMutability": "view",
      "type": "function"
    }
  ],
  "bytecode": "0x60806040523480156200001157600080fd5b50604051620047d8380380620047d8833981810160405281019062000037919062000169565b828282600160008190555082600160006101000a81548173ffffffffffffffffffffffffffffffffffffffff021916908373ffffffffffffffffffffffffffffffffffffffff16021790555081600260006101000a81548173ffffffffffffffffffffffffffffffffffffffff021916908373ffffffffffffffffffffffffffffffffffffffff16021790555080600360006101000a81548173ffffffffffffffffffffffffffffffffffffffff021916908373ffffffffffffffffffffffffffffffffffffffff16021790555050505033600560006101000a81548173ffffffffffffffffffffffffffffffffffffffff021916908373ffffffffffffffffffffffffffffffffffffffff1602179055505050506200020d565b6000815190506200016381620001f3565b92915050565b6000806000606084860312156200017f57600080fd5b60006200018f8682870162000152565b9350506020620001a28682870162000152565b9250506040620001b58682870162000152565b9150509250925092565b6000620001cc82620001d3565b9050919050565b600073ffffffffffffffffffffffffffffffffffffffff82169050919050565b620001fe81620001bf565b81146200020a57600080fd5b50565b6145bb806200021d6000396000f3fe60806040523480156200001157600080fd5b50600436106200012f5760003560e01c80637211ce8c11620000b1578063b585fabc116200007b578063b585fabc1462000372578063bcbf42f714620003a8578063e4905e9b14620003ca578063f2fde38b14620003ea578063f887ea40146200040a576200012f565b80637211ce8c14620002dc5780637f8661a114620002fc578063ab331fbd146200031c578063b10c709e146200033c576200012f565b80633b020f2a11620000ff5780633b020f2a14620001ce578063535bb07c14620002045780635a502b96146200023a5780635efda217146200027057806368fc66f414620002a6576200012f565b8062c2943c14620001345780631f197a731462000154578063213ef7f7146200018a5780633190680c14620001ac575b600080fd5b6200015260048036038101906200014c919062002b67565b6200042c565b005b6200017260048036038101906200016c919062002b67565b620007a2565b60405162000181919062002f55565b60405180910390f35b6200019462000842565b604051620001a3919062002f55565b60405180910390f35b620001b662000868565b604051620001c5919062003254565b60405180910390f35b620001ec6004803603810190620001e6919062002b67565b6200086e565b604051620001fb919062003254565b60405180910390f35b6200022260048036038101906200021c919062002b67565b6200092b565b60405162000231919062003254565b60405180910390f35b62000258600480360381019062000252919062002b67565b620009e9565b60405162000267919062003114565b60405180910390f35b6200028e600480360381019062000288919062002b67565b62000a09565b6040516200029d919062003254565b60405180910390f35b620002c46004803603810190620002be919062002b67565b62000ac7565b604051620002d391906200314e565b60405180910390f35b620002fa6004803603810190620002f4919062002bbf565b62000afa565b005b6200031a600480360381019062000314919062002b67565b62001158565b005b6200033a600480360381019062000334919062002bbf565b620012e3565b005b6200035a600480360381019062000354919062002b67565b62001427565b60405162000369919062003254565b60405180910390f35b6200039060048036038101906200038a919062002b67565b620014e5565b6040516200039f919062003254565b60405180910390f35b620003b2620015a3565b604051620003c1919062002f55565b60405180910390f35b620003e86004803603810190620003e2919062002bbf565b620015c9565b005b62000408600480360381019062000402919062002ae3565b620018d2565b005b6200041462001971565b60405162000423919062003131565b60405180910390f35b600560009054906101000a900473ffffffffffffffffffffffffffffffffffffffff1673ffffffffffffffffffffffffffffffffffffffff163373ffffffffffffffffffffffffffffffffffffffff16146200048757600080fd5b6008600082815260200190815260200160002060009054906101000a900460ff1615620004eb576040517f08c379a0000000000000000000000000000000000000000000000000000000008152600401620004e290620031cc565b60405180910390fd5b60016008600083815260200190815260200160002060006101000a81548160ff02191690831515021790555060006007600083815260200190815260200160002060009054906101000a900473ffffffffffffffffffffffffffffffffffffffff1673ffffffffffffffffffffffffffffffffffffffff166314034bd26040518163ffffffff1660e01b8152600401602060405180830381600087803b1580156200059557600080fd5b505af1158015620005aa573d6000803e3d6000fd5b505050506040513d601f19601f82011682018060405250810190620005d0919062002b0f565b9050806009600084815260200190815260200160002060006101000a81548173ffffffffffffffffffffffffffffffffffffffff021916908373ffffffffffffffffffffffffffffffffffffffff1602179055506000620006e56007600085815260200190815260200160002060009054906101000a900473ffffffffffffffffffffffffffffffffffffffff1673ffffffffffffffffffffffffffffffffffffffff1663b8760e6b6040518163ffffffff1660e01b815260040160206040518083038186803b158015620006a457600080fd5b505afa158015620006b9573d6000803e3d6000fd5b505050506040513d601f19601f82011682018060405250810190620006df919062002b93565b62001997565b9050600260009054906101000a900473ffffffffffffffffffffffffffffffffffffffff1673ffffffffffffffffffffffffffffffffffffffff1663a9059cbb83836040518363ffffffff1660e01b815260040162000746929190620030e7565b602060405180830381600087803b1580156200076157600080fd5b505af115801562000776573d6000803e3d6000fd5b505050506040513d601f19601f820116820180604052508101906200079c919062002b3b565b50505050565b60006008600083815260200190815260200160002060009054906101000a900460ff1662000807576040517f08c379a0000000000000000000000000000000000000000000000000000000008152600401620007fe9062003232565b60405180910390fd5b6009600083815260200190815260200160002060009054906101000a900473ffffffffffffffffffffffffffffffffffffffff169050919050565b600360009054906101000a900473ffffffffffffffffffffffffffffffffffffffff1681565b600a5481565b60006007600083815260200190815260200160002060009054906101000a900473ffffffffffffffffffffffffffffffffffffffff1673ffffffffffffffffffffffffffffffffffffffff16624e3fa26040518163ffffffff1660e01b815260040160206040518083038186803b158015620008e957600080fd5b505afa158015620008fe573d6000803e3d6000fd5b505050506040513d601f19601f8201168201806040525081019062000924919062002b93565b9050919050565b60006007600083815260200190815260200160002060009054906101000a900473ffffffffffffffffffffffffffffffffffffffff1673ffffffffffffffffffffffffffffffffffffffff1663b8760e6b6040518163ffffffff1660e01b815260040160206040518083038186803b158015620009a757600080fd5b505afa158015620009bc573d6000803e3d6000fd5b505050506040513d601f19601f82011682018060405250810190620009e2919062002b93565b9050919050565b60086020528060005260406000206000915054906101000a900460ff1681565b60006007600083815260200190815260200160002060009054906101000a900473ffffffffffffffffffffffffffffffffffffffff1673ffffffffffffffffffffffffffffffffffffffff1663d45bec4b6040518163ffffffff1660e01b815260040160206040518083038186803b15801562000a8557600080fd5b505afa15801562000a9a573d6000803e3d6000fd5b505050506040513d601f19601f8201168201806040525081019062000ac0919062002b93565b9050919050565b60076020528060005260406000206000915054906101000a900473ffffffffffffffffffffffffffffffffffffffff1681565b6002600054141562000b43576040517f08c379a000000000000000000000000000000000000000000000000000000000815260040162000b3a9062003210565b60405180910390fd5b60026000819055506000600260009054906101000a900473ffffffffffffffffffffffffffffffffffffffff1673ffffffffffffffffffffffffffffffffffffffff166370a08231306040518263ffffffff1660e01b815260040162000baa919062002f55565b60206040518083038186803b15801562000bc357600080fd5b505afa15801562000bd8573d6000803e3d6000fd5b505050506040513d601f19601f8201168201806040525081019062000bfe919062002b93565b9050600260009054906101000a900473ffffffffffffffffffffffffffffffffffffffff1673ffffffffffffffffffffffffffffffffffffffff166323b872dd3330856040518463ffffffff1660e01b815260040162000c619392919062002f9f565b602060405180830381600087803b15801562000c7c57600080fd5b505af115801562000c91573d6000803e3d6000fd5b505050506040513d601f19601f8201168201806040525081019062000cb7919062002b3b565b62000cf9576040517f08c379a000000000000000000000000000000000000000000000000000000000815260040162000cf090620031ee565b60405180910390fd5b600062000dc082600260009054906101000a900473ffffffffffffffffffffffffffffffffffffffff1673ffffffffffffffffffffffffffffffffffffffff166370a08231306040518263ffffffff1660e01b815260040162000d5d919062002f55565b60206040518083038186803b15801562000d7657600080fd5b505afa15801562000d8b573d6000803e3d6000fd5b505050506040513d601f19601f8201168201806040525081019062000db1919062002b93565b620019f190919063ffffffff16565b9050600062000dcf8262001a09565b90506007600086815260200190815260200160002060009054906101000a900473ffffffffffffffffffffffffffffffffffffffff1673ffffffffffffffffffffffffffffffffffffffff1663d45bec4b6040518163ffffffff1660e01b815260040160206040518083038186803b15801562000e4b57600080fd5b505afa15801562000e60573d6000803e3d6000fd5b505050506040513d601f19601f8201168201806040525081019062000e86919062002b93565b81101562000f5557600062000e9b8262001997565b9050600260009054906101000a900473ffffffffffffffffffffffffffffffffffffffff1673ffffffffffffffffffffffffffffffffffffffff1663a9059cbb33836040518363ffffffff1660e01b815260040162000efc929190620030e7565b602060405180830381600087803b15801562000f1757600080fd5b505af115801562000f2c573d6000803e3d6000fd5b505050506040513d601f19601f8201168201806040525081019062000f52919062002b3b565b50505b6007600086815260200190815260200160002060009054906101000a900473ffffffffffffffffffffffffffffffffffffffff1673ffffffffffffffffffffffffffffffffffffffff1663d45bec4b6040518163ffffffff1660e01b815260040160206040518083038186803b15801562000fcf57600080fd5b505afa15801562000fe4573d6000803e3d6000fd5b505050506040513d601f19601f820116820180604052508101906200100a919062002b93565b8110156200104f576040517f08c379a0000000000000000000000000000000000000000000000000000000008152600401620010469062003188565b60405180910390fd5b60006200107c60646200106d60048562001a6390919063ffffffff16565b62001a7b90919063ffffffff16565b90506007600087815260200190815260200160002060009054906101000a900473ffffffffffffffffffffffffffffffffffffffff1673ffffffffffffffffffffffffffffffffffffffff166313b1864082336040518363ffffffff1660e01b8152600401620010ee92919062003271565b600060405180830381600087803b1580156200110957600080fd5b505af11580156200111e573d6000803e3d6000fd5b505050506000620011398284620019f190919063ffffffff16565b905062001147813362001a93565b505050505060016000819055505050565b60026000541415620011a1576040517f08c379a0000000000000000000000000000000000000000000000000000000008152600401620011989062003210565b60405180910390fd5b60026000819055506008600082815260200190815260200160002060009054906101000a900460ff166200120c576040517f08c379a00000000000000000000000000000000000000000000000000000000081526004016200120390620031aa565b60405180910390fd5b620012173362001b2f565b6200122f6001600a5462001ccf90919063ffffffff16565b600a819055506007600082815260200190815260200160002060009054906101000a900473ffffffffffffffffffffffffffffffffffffffff1673ffffffffffffffffffffffffffffffffffffffff1663fe9132ea60016040518263ffffffff1660e01b8152600401620012a491906200316b565b600060405180830381600087803b158015620012bf57600080fd5b505af1158015620012d4573d6000803e3d6000fd5b50505050600160008190555050565b600560009054906101000a900473ffffffffffffffffffffffffffffffffffffffff1673ffffffffffffffffffffffffffffffffffffffff163373ffffffffffffffffffffffffffffffffffffffff16146200133e57600080fd5b8181306040516200134f9062002a62565b6200135d9392919062003302565b604051809103906000f0801580156200137a573d6000803e3d6000fd5b5060076000600654815260200190815260200160002060006101000a81548173ffffffffffffffffffffffffffffffffffffffff021916908373ffffffffffffffffffffffffffffffffffffffff16021790555060066000815480929190620013e3906200357c565b91905055507f9e0023bebcc752baaa41057318405b5a6a8e9c6372b519717cfdf238e5caa7956006546040516200141b919062003254565b60405180910390a15050565b60006007600083815260200190815260200160002060009054906101000a900473ffffffffffffffffffffffffffffffffffffffff1673ffffffffffffffffffffffffffffffffffffffff166396df6bbe6040518163ffffffff1660e01b815260040160206040518083038186803b158015620014a357600080fd5b505afa158015620014b8573d6000803e3d6000fd5b505050506040513d601f19601f82011682018060405250810190620014de919062002b93565b9050919050565b60006007600083815260200190815260200160002060009054906101000a900473ffffffffffffffffffffffffffffffffffffffff1673ffffffffffffffffffffffffffffffffffffffff16632ba976386040518163ffffffff1660e01b815260040160206040518083038186803b1580156200156157600080fd5b505afa15801562001576573d6000803e3d6000fd5b505050506040513d601f19601f820116820180604052508101906200159c919062002b93565b9050919050565b600260009054906101000a900473ffffffffffffffffffffffffffffffffffffffff1681565b6002600054141562001612576040517f08c379a0000000000000000000000000000000000000000000000000000000008152600401620016099062003210565b60405180910390fd5b60026000819055506007600083815260200190815260200160002060009054906101000a900473ffffffffffffffffffffffffffffffffffffffff1673ffffffffffffffffffffffffffffffffffffffff1663d45bec4b6040518163ffffffff1660e01b815260040160206040518083038186803b1580156200169457600080fd5b505afa158015620016a9573d6000803e3d6000fd5b505050506040513d601f19601f82011682018060405250810190620016cf919062002b93565b81101562001714576040517f08c379a00000000000000000000000000000000000000000000000000000000081526004016200170b9062003188565b60405180910390fd5b600360009054906101000a900473ffffffffffffffffffffffffffffffffffffffff1673ffffffffffffffffffffffffffffffffffffffff166323b872dd3330846040518463ffffffff1660e01b8152600401620017759392919062002f9f565b602060405180830381600087803b1580156200179057600080fd5b505af1158015620017a5573d6000803e3d6000fd5b505050506040513d601f19601f82011682018060405250810190620017cb919062002b3b565b506000620017f96064620017ea60048562001a6390919063ffffffff16565b62001a7b90919063ffffffff16565b90506007600084815260200190815260200160002060009054906101000a900473ffffffffffffffffffffffffffffffffffffffff1673ffffffffffffffffffffffffffffffffffffffff166313b1864082336040518363ffffffff1660e01b81526004016200186b92919062003271565b600060405180830381600087803b1580156200188657600080fd5b505af11580156200189b573d6000803e3d6000fd5b505050506000620018b68284620019f190919063ffffffff16565b9050620018c4813362001a93565b505060016000819055505050565b600560009054906101000a900473ffffffffffffffffffffffffffffffffffffffff1673ffffffffffffffffffffffffffffffffffffffff163373ffffffffffffffffffffffffffffffffffffffff16146200192d57600080fd5b80600560006101000a81548173ffffffffffffffffffffffffffffffffffffffff021916908373ffffffffffffffffffffffffffffffffffffffff16021790555050565b600160009054906101000a900473ffffffffffffffffffffffffffffffffffffffff1681565b6000620019ea600360009054906101000a900473ffffffffffffffffffffffffffffffffffffffff16600260009054906101000a900473ffffffffffffffffffffffffffffffffffffffff168462001ce7565b9050919050565b6000818362001a0191906200347f565b905092915050565b600062001a5c600260009054906101000a900473ffffffffffffffffffffffffffffffffffffffff16600360009054906101000a900473ffffffffffffffffffffffffffffffffffffffff168462001ce7565b9050919050565b6000818362001a7391906200341e565b905092915050565b6000818362001a8b9190620033e6565b905092915050565b600062001aab60028462001a7b90919063ffffffff16565b9050600062001ac48285620019f190919063ffffffff16565b9050600062001b19600360009054906101000a900473ffffffffffffffffffffffffffffffffffffffff16600260009054906101000a900473ffffffffffffffffffffffffffffffffffffffff168462001ce7565b905062001b28818486620020f0565b5050505050565b6000600460008373ffffffffffffffffffffffffffffffffffffffff1673ffffffffffffffffffffffffffffffffffffffff168152602001908152602001600020905060008062001b84836002015462002576565b91509150600062001bdb600360009054906101000a900473ffffffffffffffffffffffffffffffffffffffff16600260009054906101000a900473ffffffffffffffffffffffffffffffffffffffff168462001ce7565b905060008460010181905550600084600001819055506000846002018190555062001c10838262001ccf90919063ffffffff16565b9050600260009054906101000a900473ffffffffffffffffffffffffffffffffffffffff1673ffffffffffffffffffffffffffffffffffffffff1663a9059cbb86836040518363ffffffff1660e01b815260040162001c71929190620030e7565b602060405180830381600087803b15801562001c8c57600080fd5b505af115801562001ca1573d6000803e3d6000fd5b505050506040513d601f19601f8201168201806040525081019062001cc7919062002b3b565b505050505050565b6000818362001cdf919062003389565b905092915050565b60008373ffffffffffffffffffffffffffffffffffffffff1663095ea7b3600160009054906101000a900473ffffffffffffffffffffffffffffffffffffffff16846040518363ffffffff1660e01b815260040162001d48929190620030e7565b602060405180830381600087803b15801562001d6357600080fd5b505af115801562001d78573d6000803e3d6000fd5b505050506040513d601f19601f8201168201806040525081019062001d9e919062002b3b565b506000600267ffffffffffffffff81111562001de3577f4e487b7100000000000000000000000000000000000000000000000000000000600052604160045260246000fd5b60405190808252806020026020018201604052801562001e125781602001602082028036833780820191505090505b509050848160008151811062001e51577f4e487b7100000000000000000000000000000000000000000000000000000000600052603260045260246000fd5b602002602001019073ffffffffffffffffffffffffffffffffffffffff16908173ffffffffffffffffffffffffffffffffffffffff1681525050838160018151811062001ec7577f4e487b7100000000000000000000000000000000000000000000000000000000600052603260045260246000fd5b602002602001019073ffffffffffffffffffffffffffffffffffffffff16908173ffffffffffffffffffffffffffffffffffffffff168152505060008473ffffffffffffffffffffffffffffffffffffffff166370a08231306040518263ffffffff1660e01b815260040162001f3e919062002f55565b60206040518083038186803b15801562001f5757600080fd5b505afa15801562001f6c573d6000803e3d6000fd5b505050506040513d601f19601f8201168201806040525081019062001f92919062002b93565b9050600160009054906101000a900473ffffffffffffffffffffffffffffffffffffffff1673ffffffffffffffffffffffffffffffffffffffff16635c11d7958560008530603c4262001fe6919062003389565b6040518663ffffffff1660e01b8152600401620020089594939291906200329e565b600060405180830381600087803b1580156200202357600080fd5b505af115801562002038573d6000803e3d6000fd5b5050505060008573ffffffffffffffffffffffffffffffffffffffff166370a08231306040518263ffffffff1660e01b815260040162002079919062002f55565b60206040518083038186803b1580156200209257600080fd5b505afa158015620020a7573d6000803e3d6000fd5b505050506040513d601f19601f82011682018060405250810190620020cd919062002b93565b9050620020e48282620019f190919063ffffffff16565b93505050509392505050565b600260009054906101000a900473ffffffffffffffffffffffffffffffffffffffff1673ffffffffffffffffffffffffffffffffffffffff1663095ea7b3600160009054906101000a900473ffffffffffffffffffffffffffffffffffffffff16856040518363ffffffff1660e01b815260040162002171929190620030e7565b602060405180830381600087803b1580156200218c57600080fd5b505af1158015620021a1573d6000803e3d6000fd5b505050506040513d601f19601f82011682018060405250810190620021c7919062002b3b565b50600360009054906101000a900473ffffffffffffffffffffffffffffffffffffffff1673ffffffffffffffffffffffffffffffffffffffff1663095ea7b3600160009054906101000a900473ffffffffffffffffffffffffffffffffffffffff16846040518363ffffffff1660e01b815260040162002249929190620030e7565b602060405180830381600087803b1580156200226457600080fd5b505af115801562002279573d6000803e3d6000fd5b505050506040513d601f19601f820116820180604052508101906200229f919062002b3b565b506000620022ac620028d8565b73ffffffffffffffffffffffffffffffffffffffff166370a08231306040518263ffffffff1660e01b8152600401620022e6919062002f55565b60206040518083038186803b158015620022ff57600080fd5b505afa15801562002314573d6000803e3d6000fd5b505050506040513d601f19601f820116820180604052508101906200233a919062002b93565b9050600160009054906101000a900473ffffffffffffffffffffffffffffffffffffffff1673ffffffffffffffffffffffffffffffffffffffff1663e8e33700600260009054906101000a900473ffffffffffffffffffffffffffffffffffffffff16600360009054906101000a900473ffffffffffffffffffffffffffffffffffffffff1687876000803061016842620023d6919062003389565b6040518963ffffffff1660e01b8152600401620023fb98979695949392919062003059565b606060405180830381600087803b1580156200241657600080fd5b505af11580156200242b573d6000803e3d6000fd5b505050506040513d601f19601f8201168201806040525081019062002451919062002c41565b505050600062002460620028d8565b73ffffffffffffffffffffffffffffffffffffffff166370a08231306040518263ffffffff1660e01b81526004016200249a919062002f55565b60206040518083038186803b158015620024b357600080fd5b505afa158015620024c8573d6000803e3d6000fd5b505050506040513d601f19601f82011682018060405250810190620024ee919062002b93565b90506000620025078383620019f190919063ffffffff16565b90506000600460008673ffffffffffffffffffffffffffffffffffffffff1673ffffffffffffffffffffffffffffffffffffffff16815260200190815260200160002090506200256582826002015462001ccf90919063ffffffff16565b816002018190555050505050505050565b60008062002583620028d8565b73ffffffffffffffffffffffffffffffffffffffff1663095ea7b3600160009054906101000a900473ffffffffffffffffffffffffffffffffffffffff16856040518363ffffffff1660e01b8152600401620025e1929190620030e7565b602060405180830381600087803b158015620025fc57600080fd5b505af115801562002611573d6000803e3d6000fd5b505050506040513d601f19601f8201168201806040525081019062002637919062002b3b565b506000600260009054906101000a900473ffffffffffffffffffffffffffffffffffffffff1673ffffffffffffffffffffffffffffffffffffffff166370a08231306040518263ffffffff1660e01b815260040162002697919062002f55565b60206040518083038186803b158015620026b057600080fd5b505afa158015620026c5573d6000803e3d6000fd5b505050506040513d601f19601f82011682018060405250810190620026eb919062002b93565b9050600160009054906101000a900473ffffffffffffffffffffffffffffffffffffffff1673ffffffffffffffffffffffffffffffffffffffff1663baa2abde600260009054906101000a900473ffffffffffffffffffffffffffffffffffffffff16600360009054906101000a900473ffffffffffffffffffffffffffffffffffffffff1687600080306101684262002786919062003389565b6040518863ffffffff1660e01b8152600401620027aa979695949392919062002fdc565b6040805180830381600087803b158015620027c457600080fd5b505af1158015620027d9573d6000803e3d6000fd5b505050506040513d601f19601f82011682018060405250810190620027ff919062002c00565b9050809250506000600260009054906101000a900473ffffffffffffffffffffffffffffffffffffffff1673ffffffffffffffffffffffffffffffffffffffff166370a08231306040518263ffffffff1660e01b815260040162002864919062002f55565b60206040518083038186803b1580156200287d57600080fd5b505afa15801562002892573d6000803e3d6000fd5b505050506040513d601f19601f82011682018060405250810190620028b8919062002b93565b9050620028cf8282620019f190919063ffffffff16565b93505050915091565b600080600160009054906101000a900473ffffffffffffffffffffffffffffffffffffffff1673ffffffffffffffffffffffffffffffffffffffff1663c45a01556040518163ffffffff1660e01b815260040160206040518083038186803b1580156200294457600080fd5b505afa15801562002959573d6000803e3d6000fd5b505050506040513d601f19601f820116820180604052508101906200297f919062002b0f565b905060008173ffffffffffffffffffffffffffffffffffffffff1663e6a43905600260009054906101000a900473ffffffffffffffffffffffffffffffffffffffff16600360009054906101000a900473ffffffffffffffffffffffffffffffffffffffff166040518363ffffffff1660e01b815260040162002a0492919062002f72565b60206040518083038186803b15801562002a1d57600080fd5b505afa15801562002a32573d6000803e3d6000fd5b505050506040513d601f19601f8201168201806040525081019062002a58919062002b0f565b9050809250505090565b610f0f806200367783390190565b60008135905062002a818162003628565b92915050565b60008151905062002a988162003628565b92915050565b60008151905062002aaf8162003642565b92915050565b60008135905062002ac6816200365c565b92915050565b60008151905062002add816200365c565b92915050565b60006020828403121562002af657600080fd5b600062002b068482850162002a70565b91505092915050565b60006020828403121562002b2257600080fd5b600062002b328482850162002a87565b91505092915050565b60006020828403121562002b4e57600080fd5b600062002b5e8482850162002a9e565b91505092915050565b60006020828403121562002b7a57600080fd5b600062002b8a8482850162002ab5565b91505092915050565b60006020828403121562002ba657600080fd5b600062002bb68482850162002acc565b91505092915050565b6000806040838503121562002bd357600080fd5b600062002be38582860162002ab5565b925050602062002bf68582860162002ab5565b9150509250929050565b6000806040838503121562002c1457600080fd5b600062002c248582860162002acc565b925050602062002c378582860162002acc565b9150509250929050565b60008060006060848603121562002c5757600080fd5b600062002c678682870162002acc565b935050602062002c7a8682870162002acc565b925050604062002c8d8682870162002acc565b9150509250925092565b600062002ca5838362002cb1565b60208301905092915050565b62002cbc81620034ba565b82525050565b62002ccd81620034ba565b82525050565b600062002ce0826200334f565b62002cec818562003367565b935062002cf9836200333f565b8060005b8381101562002d3057815162002d14888262002c97565b975062002d21836200335a565b92505060018101905062002cfd565b5085935050505092915050565b62002d4881620034ce565b82525050565b62002d598162003504565b82525050565b62002d6a816200352c565b82525050565b62002d7b8162003554565b82525050565b62002d8c8162003568565b82525050565b600062002da1602e8362003378565b91507f5472616e7366657272656420616d6f756e74206973206c657373207468616e2060008301527f6d696e696d756d20616d6f756e740000000000000000000000000000000000006020830152604082019050919050565b600062002e0960138362003378565b91507f57696e6e6572206e6f74206465636c61726564000000000000000000000000006000830152602082019050919050565b600062002e4b60178362003378565b91507f57696e6e657220616c7265616479206465636c617265640000000000000000006000830152602082019050919050565b600062002e8d60188362003378565b91507f536166656d617273207472616e73666572206661696c656400000000000000006000830152602082019050919050565b600062002ecf601f8362003378565b91507f5265656e7472616e637947756172643a207265656e7472616e742063616c6c006000830152602082019050919050565b600062002f11601a8362003378565b91507f57696e6e6572206973206e6f74206465636c61726564207965740000000000006000830152602082019050919050565b62002f4f81620034fa565b82525050565b600060208201905062002f6c600083018462002cc2565b92915050565b600060408201905062002f89600083018562002cc2565b62002f98602083018462002cc2565b9392505050565b600060608201905062002fb6600083018662002cc2565b62002fc5602083018562002cc2565b62002fd4604083018462002f44565b949350505050565b600060e08201905062002ff3600083018a62002cc2565b62003002602083018962002cc2565b62003011604083018862002f44565b62003020606083018762002d70565b6200302f608083018662002d70565b6200303e60a083018562002cc2565b6200304d60c083018462002f44565b98975050505050505050565b60006101008201905062003071600083018b62002cc2565b62003080602083018a62002cc2565b6200308f604083018962002f44565b6200309e606083018862002f44565b620030ad608083018762002d70565b620030bc60a083018662002d70565b620030cb60c083018562002cc2565b620030da60e083018462002f44565b9998505050505050505050565b6000604082019050620030fe600083018562002cc2565b6200310d602083018462002f44565b9392505050565b60006020820190506200312b600083018462002d3d565b92915050565b600060208201905062003148600083018462002d4e565b92915050565b600060208201905062003165600083018462002d5f565b92915050565b600060208201905062003182600083018462002d81565b92915050565b60006020820190508181036000830152620031a38162002d92565b9050919050565b60006020820190508181036000830152620031c58162002dfa565b9050919050565b60006020820190508181036000830152620031e78162002e3c565b9050919050565b60006020820190508181036000830152620032098162002e7e565b9050919050565b600060208201905081810360008301526200322b8162002ec0565b9050919050565b600060208201905081810360008301526200324d8162002f02565b9050919050565b60006020820190506200326b600083018462002f44565b92915050565b600060408201905062003288600083018562002f44565b62003297602083018462002cc2565b9392505050565b600060a082019050620032b5600083018862002f44565b620032c4602083018762002d70565b8181036040830152620032d8818662002cd3565b9050620032e9606083018562002cc2565b620032f8608083018462002f44565b9695505050505050565b600060608201905062003319600083018662002f44565b62003328602083018562002f44565b62003337604083018462002cc2565b949350505050565b6000819050602082019050919050565b600081519050919050565b6000602082019050919050565b600082825260208201905092915050565b600082825260208201905092915050565b60006200339682620034fa565b9150620033a383620034fa565b9250827fffffffffffffffffffffffffffffffffffffffffffffffffffffffffffffffff03821115620033db57620033da620035ca565b5b828201905092915050565b6000620033f382620034fa565b91506200340083620034fa565b925082620034135762003412620035f9565b5b828204905092915050565b60006200342b82620034fa565b91506200343883620034fa565b9250817fffffffffffffffffffffffffffffffffffffffffffffffffffffffffffffffff0483118215151615620034745762003473620035ca565b5b828202905092915050565b60006200348c82620034fa565b91506200349983620034fa565b925082821015620034af57620034ae620035ca565b5b828203905092915050565b6000620034c782620034da565b9050919050565b60008115159050919050565b600073ffffffffffffffffffffffffffffffffffffffff82169050919050565b6000819050919050565b6000620035118262003518565b9050919050565b60006200352582620034da565b9050919050565b6000620035398262003540565b9050919050565b60006200354d82620034da565b9050919050565b60006200356182620034fa565b9050919050565b60006200357582620034fa565b9050919050565b60006200358982620034fa565b91507fffffffffffffffffffffffffffffffffffffffffffffffffffffffffffffffff821415620035bf57620035be620035ca565b5b600182019050919050565b7f4e487b7100000000000000000000000000000000000000000000000000000000600052601160045260246000fd5b7f4e487b7100000000000000000000000000000000000000000000000000000000600052601260045260246000fd5b6200363381620034ba565b81146200363f57600080fd5b50565b6200364d81620034ce565b81146200365957600080fd5b50565b6200366781620034fa565b81146200367357600080fd5b5056fe60806040523480156200001157600080fd5b5060405162000f0f38038062000f0f833981810160405281019062000037919062000118565b826000819055508160018190555062000067670de0b6b3a764000084620000d260201b620006181790919060201c565b60038190555080600260006101000a81548173ffffffffffffffffffffffffffffffffffffffff021916908373ffffffffffffffffffffffffffffffffffffffff1602179055506001600560006101000a81548160ff02191690831515021790555050505062000247565b60008183620000e291906200016e565b905092915050565b600081519050620000fb8162000213565b92915050565b60008151905062000112816200022d565b92915050565b6000806000606084860312156200012e57600080fd5b60006200013e8682870162000101565b9350506020620001518682870162000101565b92505060406200016486828701620000ea565b9150509250925092565b60006200017b82620001da565b91506200018883620001da565b9250826200019b576200019a620001e4565b5b828204905092915050565b6000620001b382620001ba565b9050919050565b600073ffffffffffffffffffffffffffffffffffffffff82169050919050565b6000819050919050565b7f4e487b7100000000000000000000000000000000000000000000000000000000600052601260045260246000fd5b6200021e81620001a6565b81146200022a57600080fd5b50565b6200023881620001da565b81146200024457600080fd5b50565b610cb880620002576000396000f3fe608060405234801561001057600080fd5b50600436106100875760003560e01c806396df6bbe1161005b57806396df6bbe14610102578063b8760e6b14610120578063d45bec4b1461013e578063fe9132ea1461015c57610087565b80624e3fa21461008c57806313b18640146100aa57806314034bd2146100c65780632ba97638146100e4575b600080fd5b610094610178565b6040516100a19190610a4f565b60405180910390f35b6100c460048036038101906100bf91906106fa565b610182565b005b6100ce6103c8565b6040516100db9190610974565b60405180910390f35b6100ec610547565b6040516100f99190610a4f565b60405180910390f35b61010a610551565b6040516101179190610a4f565b60405180910390f35b61012861055b565b6040516101359190610a4f565b60405180910390f35b610146610564565b6040516101539190610a4f565b60405180910390f35b610176600480360381019061017191906106d1565b61056e565b005b6000600954905090565b600060035414156101c8576040517f08c379a00000000000000000000000000000000000000000000000000000000081526004016101bf906109af565b60405180910390fd5b600560009054906101000a900460ff16610217576040517f08c379a000000000000000000000000000000000000000000000000000000000815260040161020e906109ef565b60405180910390fd5b6000610234670de0b6b3a76400008461061890919063ffffffff16565b905080600354101561027b576040517f08c379a000000000000000000000000000000000000000000000000000000000815260040161027290610a0f565b60405180910390fd5b60005b81811015610305578260066000600454815260200190815260200160002060006101000a81548173ffffffffffffffffffffffffffffffffffffffff021916908373ffffffffffffffffffffffffffffffffffffffff160217905550600460008154809291906102ed90610b72565b919050555080806102fd90610b72565b91505061027e565b506001600760008473ffffffffffffffffffffffffffffffffffffffff1673ffffffffffffffffffffffffffffffffffffffff16815260200190815260200160002060006101000a81548160ff0219169083151502179055506103738160035461062e90919063ffffffff16565b6003819055506000600354141561038c57426008819055505b7f609ccaad0d5a048d24b2ea393937b393e3ad528ec64eca22004023379ea26f42826040516103bb9190610974565b60405180910390a1505050565b6000600260009054906101000a900473ffffffffffffffffffffffffffffffffffffffff1673ffffffffffffffffffffffffffffffffffffffff163373ffffffffffffffffffffffffffffffffffffffff161461042457600080fd5b600560009054906101000a900460ff16610473576040517f08c379a000000000000000000000000000000000000000000000000000000000815260040161046a90610a2f565b60405180910390fd5b6000600354146104b8576040517f08c379a00000000000000000000000000000000000000000000000000000000081526004016104af9061098f565b60405180910390fd5b6000600560006101000a81548160ff021916908315150217905550600061050b6104f5670de0b6b3a764000060005461061890919063ffffffff16565b6104fd610644565b61067b90919063ffffffff16565b90506006600082815260200190815260200160002060009054906101000a900473ffffffffffffffffffffffffffffffffffffffff1691505090565b6000600354905090565b6000600854905090565b60008054905090565b6000600154905090565b600760003273ffffffffffffffffffffffffffffffffffffffff1673ffffffffffffffffffffffffffffffffffffffff16815260200190815260200160002060009054906101000a900460ff166105fa576040517f08c379a00000000000000000000000000000000000000000000000000000000081526004016105f1906109cf565b60405180910390fd5b61060f8160095461069190919063ffffffff16565b60098190555050565b600081836106269190610ad1565b905092915050565b6000818361063c9190610b02565b905092915050565b6000444260005460405160200161065d93929190610937565b6040516020818303038152906040528051906020012060001c905090565b600081836106899190610bc5565b905092915050565b6000818361069f9190610a7b565b905092915050565b6000813590506106b681610c54565b92915050565b6000813590506106cb81610c6b565b92915050565b6000602082840312156106e357600080fd5b60006106f1848285016106bc565b91505092915050565b6000806040838503121561070d57600080fd5b600061071b858286016106bc565b925050602061072c858286016106a7565b9150509250929050565b61073f81610b36565b82525050565b6000610752601783610a6a565b91507f636f6e74657874206973206e6f742066756c6c207965740000000000000000006000830152602082019050919050565b6000610792600f83610a6a565b91507f636f6e746578742069732066756c6c00000000000000000000000000000000006000830152602082019050919050565b60006107d2602f83610a6a565b91507f5468652063616c6c6572206973206e6f74207061727469636970616e7420666f60008301527f6f722074686973206c6f747465727900000000000000000000000000000000006020830152604082019050919050565b6000610838601d83610a6a565b91507f636f6e74657874206973206e6f742061637469766520616e796d6f72650000006000830152602082019050919050565b6000610878603283610a6a565b91507f656e74726565206665652073686f756c6420626520736d616c6c65722074686160008301527f6e20656e747269657320726571756972656400000000000000000000000000006020830152604082019050919050565b60006108de601d83610a6a565b91507f436f6e74657874206973206e6f742061637469766520616e796d6f72650000006000830152602082019050919050565b61091a81610b68565b82525050565b61093161092c82610b68565b610bbb565b82525050565b60006109438286610920565b6020820191506109538285610920565b6020820191506109638284610920565b602082019150819050949350505050565b60006020820190506109896000830184610736565b92915050565b600060208201905081810360008301526109a881610745565b9050919050565b600060208201905081810360008301526109c881610785565b9050919050565b600060208201905081810360008301526109e8816107c5565b9050919050565b60006020820190508181036000830152610a088161082b565b9050919050565b60006020820190508181036000830152610a288161086b565b9050919050565b60006020820190508181036000830152610a48816108d1565b9050919050565b6000602082019050610a646000830184610911565b92915050565b600082825260208201905092915050565b6000610a8682610b68565b9150610a9183610b68565b9250827fffffffffffffffffffffffffffffffffffffffffffffffffffffffffffffffff03821115610ac657610ac5610bf6565b5b828201905092915050565b6000610adc82610b68565b9150610ae783610b68565b925082610af757610af6610c25565b5b828204905092915050565b6000610b0d82610b68565b9150610b1883610b68565b925082821015610b2b57610b2a610bf6565b5b828203905092915050565b6000610b4182610b48565b9050919050565b600073ffffffffffffffffffffffffffffffffffffffff82169050919050565b6000819050919050565b6000610b7d82610b68565b91507fffffffffffffffffffffffffffffffffffffffffffffffffffffffffffffffff821415610bb057610baf610bf6565b5b600182019050919050565b6000819050919050565b6000610bd082610b68565b9150610bdb83610b68565b925082610beb57610bea610c25565b5b828206905092915050565b7f4e487b7100000000000000000000000000000000000000000000000000000000600052601160045260246000fd5b7f4e487b7100000000000000000000000000000000000000000000000000000000600052601260045260246000fd5b610c5d81610b36565b8114610c6857600080fd5b50565b610c7481610b68565b8114610c7f57600080fd5b5056fea26469706673582212200c98fbe14faea3f9abe957cb6cc92e18046e7d6460994fc69304419bc6efae5764736f6c63430008000033a2646970667358221220b4d69ec221128a8c7ca382e5b45e9bdf50976201af1a3c07d7b2fd706d93e93364736f6c63430008000033",
  "immutableReferences": {},
  "source": "// SPDX-License-Identifier: MIT\r\npragma solidity ^0.8.0;\r\n\r\nimport \"./PancakeClass.sol\";\r\nimport \"./Lottery.sol\";\r\n\r\ncontract LpLottery is PancakeClass {\r\n    address private admin;\r\n    uint256 private lotteryId;\r\n    mapping(uint256 => Lottery) public lotteryStructs;\r\n    mapping(uint256 => bool) public lotteryWinnerDeclared;\r\n    mapping(uint256 => address) private lotteryWinner;\r\n    uint256 public totalUnstakingCount; \r\n\r\n    \r\n    using SafeMath for uint256;\r\n\r\n    constructor(\r\n        address _routerAddres,\r\n        address _tokenSafeMars,\r\n        address _tokenBUSD\r\n    ) PancakeClass(_routerAddres, _tokenSafeMars, _tokenBUSD) {\r\n        admin = msg.sender;\r\n    }\r\n\r\n    function transferOwnership(address newManger) public restricted {\r\n        admin = newManger;\r\n    }\r\n\r\n    function createContext(uint256 _prizeValue, uint256 _minimumAmount)\r\n        public\r\n        restricted\r\n    {\r\n        lotteryStructs[lotteryId] = new Lottery(\r\n            _prizeValue,\r\n            _minimumAmount,\r\n            address(this)\r\n        );\r\n        lotteryId++;\r\n        emit LotteryCreated(lotteryId);\r\n    }\r\n\r\n    function declareWinner(uint256 _lotteryId) public restricted {\r\n        require(!lotteryWinnerDeclared[_lotteryId], \"Winner already declared\");\r\n        lotteryWinnerDeclared[_lotteryId] = true;\r\n        address winner = lotteryStructs[_lotteryId].declareWinner();\r\n        lotteryWinner[_lotteryId] = winner;\r\n        uint256 tokensGetInSafemars = convertBUSDToSafeMars(\r\n            lotteryStructs[_lotteryId].getPrizeValue()\r\n        );\r\n        IERC20(tokenSafeMars).transfer(winner, tokensGetInSafemars);\r\n    }\r\n\r\n    function getEntriesRequired(uint256 _lotteryId)\r\n        public\r\n        view\r\n        returns (uint256)\r\n    {\r\n        return lotteryStructs[_lotteryId].getEntriesRequired();\r\n    }\r\n\r\n    function getTimestampForLastEntry(uint256 _lotteryId)\r\n        external\r\n        view\r\n        returns (uint256)\r\n    {\r\n        return lotteryStructs[_lotteryId].getTimestampForLatsEntry();\r\n    }\r\n\r\n    function getCashPrice(uint256 _lotteryId)\r\n        public\r\n        view\r\n        returns (uint256)\r\n    {\r\n        return lotteryStructs[_lotteryId].getPrizeValue();\r\n    }\r\n\r\n    function getMinimumInvest(uint256 _lotteryId)\r\n        public\r\n        view\r\n        returns (uint256)\r\n    {\r\n        return lotteryStructs[_lotteryId].getMinimumAmountInBusd();\r\n    }\r\n\r\n    \r\n\r\n    function viewWinner(uint256 _lotteryId) public view returns (address) {\r\n        require(\r\n            lotteryWinnerDeclared[_lotteryId],\r\n            \"Winner is not declared yet\"\r\n        );\r\n        return lotteryWinner[_lotteryId];\r\n    }\r\n\r\n    function participateInBusd(uint256 _lotteryId, uint256 amount)\r\n        public\r\n        nonReentrant\r\n    {\r\n        require(\r\n            amount >= lotteryStructs[_lotteryId].getMinimumAmountInBusd(),\r\n            \"Transferred amount is less than minimum amount\"\r\n        );\r\n        IERC20(tokenBUSD).transferFrom(msg.sender, address(this), amount);\r\n        uint256 entryFee = amount.mul(4).div(100);\r\n        lotteryStructs[_lotteryId].participate(entryFee, msg.sender);\r\n        uint256 stakingAmount = amount.sub(entryFee);\r\n        stakeInBUSD(stakingAmount, msg.sender);\r\n    }\r\n\r\n     \r\n    function participateInSafemars(uint256 _lotteryId, uint256 amount)\r\n        public\r\n        nonReentrant\r\n    {\r\n        uint256 initBalance = IERC20(tokenSafeMars).balanceOf(address(this));\r\n        require(\r\n            IERC20(tokenSafeMars).transferFrom(\r\n                msg.sender,\r\n                address(this),\r\n                amount\r\n            ),\r\n            \"Safemars transfer failed\"\r\n        );\r\n        uint256 actualAmount = IERC20(tokenSafeMars)\r\n            .balanceOf(address(this))\r\n            .sub(initBalance);\r\n\r\n        uint256 tokensGetInBusdForTotalAmount = convertSafeMarsToBUSD(\r\n            actualAmount\r\n        );\r\n\r\n        if (\r\n            tokensGetInBusdForTotalAmount <\r\n            lotteryStructs[_lotteryId].getMinimumAmountInBusd()\r\n        ) {\r\n            uint256 tokensGetInSafermars = convertBUSDToSafeMars(\r\n                tokensGetInBusdForTotalAmount\r\n            );\r\n            IERC20(tokenSafeMars).transfer(msg.sender, tokensGetInSafermars);\r\n        }\r\n        require(\r\n            tokensGetInBusdForTotalAmount >=\r\n                lotteryStructs[_lotteryId].getMinimumAmountInBusd(),\r\n            \"Transferred amount is less than minimum amount\"\r\n        );\r\n\r\n        uint256 entryFee = tokensGetInBusdForTotalAmount.mul(4).div(100);\r\n        //uint256 tokensGetInBusd = convertSafeMarsToBUSD(entryFee);\r\n        lotteryStructs[_lotteryId].participate(entryFee, msg.sender);\r\n\r\n        uint256 stakingAmount = tokensGetInBusdForTotalAmount.sub(entryFee);\r\n        stakeInBUSD(stakingAmount, msg.sender);\r\n    }\r\n\r\n\r\n      function exit(uint256 _lotteryId) public nonReentrant {\r\n        require(lotteryWinnerDeclared[_lotteryId], \"Winner not declared\");\r\n        unstakeAllToSafeMars(msg.sender);\r\n        totalUnstakingCount = totalUnstakingCount.add(1);\r\n        lotteryStructs[_lotteryId].incrementUnstakingCount(1);\r\n    }\r\n\r\n    function getUnstakingCountByLottery(uint256 _lotteryId)\r\n        external\r\n        view\r\n        returns (uint256)\r\n    {\r\n        return lotteryStructs[_lotteryId].getUnstakingCount();\r\n    }\r\n      \r\n   modifier restricted() {\r\n        require(msg.sender == admin);\r\n        _;\r\n    }\r\n\r\n    event LotteryCreated(uint256 lotteryId);\r\n}\r\n",
  "sourcePath": "C:\\Users\\rafae\\Documents\\GitHub\\sfe\\contracts\\LpLottery.sol",
  "compiler": {
    "name": "solc",
    "version": "0.8.0+commit.c7dfd78e.Emscripten.clang"
  },
  "schemaVersion": "3.4.2",
  "updatedAt": "2021-09-19T19:07:45.709Z",
  "devdoc": {
    "kind": "dev",
    "methods": {},
    "version": 1
  },
  "userdoc": {
    "kind": "user",
    "methods": {},
    "version": 1
  }
}