{
  "contractName": "LpLottery",
  "abi": [
    {
      "inputs": [
        {
          "internalType": "address",
          "name": "_routerAddres",
          "type": "address"
        },
        {
          "internalType": "address",
          "name": "_tokenSafeMars",
          "type": "address"
        },
        {
          "internalType": "address",
          "name": "_tokenBUSD",
          "type": "address"
        }
      ],
      "stateMutability": "nonpayable",
      "type": "constructor"
    },
    {
      "anonymous": false,
      "inputs": [
        {
          "indexed": false,
          "internalType": "uint256",
          "name": "lotteryId",
          "type": "uint256"
        }
      ],
      "name": "LotteryCreated",
      "type": "event"
    },
    {
      "inputs": [
        {
          "internalType": "uint256",
          "name": "",
          "type": "uint256"
        }
      ],
      "name": "lotteryStructs",
      "outputs": [
        {
          "internalType": "contract Lottery",
          "name": "",
          "type": "address"
        }
      ],
      "stateMutability": "view",
      "type": "function"
    },
    {
      "inputs": [
        {
          "internalType": "uint256",
          "name": "",
          "type": "uint256"
        }
      ],
      "name": "lotteryWinnerDeclared",
      "outputs": [
        {
          "internalType": "bool",
          "name": "",
          "type": "bool"
        }
      ],
      "stateMutability": "view",
      "type": "function"
    },
    {
      "inputs": [],
      "name": "router",
      "outputs": [
        {
          "internalType": "contract IPancakeRouter02",
          "name": "",
          "type": "address"
        }
      ],
      "stateMutability": "view",
      "type": "function"
    },
    {
      "inputs": [],
      "name": "tokenBUSD",
      "outputs": [
        {
          "internalType": "address",
          "name": "",
          "type": "address"
        }
      ],
      "stateMutability": "view",
      "type": "function"
    },
    {
      "inputs": [],
      "name": "tokenSafeMars",
      "outputs": [
        {
          "internalType": "address",
          "name": "",
          "type": "address"
        }
      ],
      "stateMutability": "view",
      "type": "function"
    },
    {
      "inputs": [],
      "name": "totalUnstakingCount",
      "outputs": [
        {
          "internalType": "uint256",
          "name": "",
          "type": "uint256"
        }
      ],
      "stateMutability": "view",
      "type": "function"
    },
    {
      "inputs": [
        {
          "internalType": "address",
          "name": "newManger",
          "type": "address"
        }
      ],
      "name": "transferOwnership",
      "outputs": [],
      "stateMutability": "nonpayable",
      "type": "function"
    },
    {
      "inputs": [
        {
          "internalType": "uint256",
          "name": "_prizeValue",
          "type": "uint256"
        },
        {
          "internalType": "uint256",
          "name": "_minimumAmount",
          "type": "uint256"
        }
      ],
      "name": "createContext",
      "outputs": [],
      "stateMutability": "nonpayable",
      "type": "function"
    },
    {
      "inputs": [
        {
          "internalType": "uint256",
          "name": "_lotteryId",
          "type": "uint256"
        }
      ],
      "name": "declareWinner",
      "outputs": [],
      "stateMutability": "nonpayable",
      "type": "function"
    },
    {
      "inputs": [
        {
          "internalType": "uint256",
          "name": "_lotteryId",
          "type": "uint256"
        }
      ],
      "name": "getEntriesRequired",
      "outputs": [
        {
          "internalType": "uint256",
          "name": "",
          "type": "uint256"
        }
      ],
      "stateMutability": "view",
      "type": "function"
    },
    {
      "inputs": [
        {
          "internalType": "uint256",
          "name": "_lotteryId",
          "type": "uint256"
        }
      ],
      "name": "getTimestampForLastEntry",
      "outputs": [
        {
          "internalType": "uint256",
          "name": "",
          "type": "uint256"
        }
      ],
      "stateMutability": "view",
      "type": "function"
    },
    {
      "inputs": [
        {
          "internalType": "uint256",
          "name": "_lotteryId",
          "type": "uint256"
        }
      ],
      "name": "getCashPrice",
      "outputs": [
        {
          "internalType": "uint256",
          "name": "",
          "type": "uint256"
        }
      ],
      "stateMutability": "view",
      "type": "function"
    },
    {
      "inputs": [
        {
          "internalType": "uint256",
          "name": "_lotteryId",
          "type": "uint256"
        }
      ],
      "name": "getMinimumInvest",
      "outputs": [
        {
          "internalType": "uint256",
          "name": "",
          "type": "uint256"
        }
      ],
      "stateMutability": "view",
      "type": "function"
    },
    {
      "inputs": [
        {
          "internalType": "uint256",
          "name": "_lotteryId",
          "type": "uint256"
        }
      ],
      "name": "viewWinner",
      "outputs": [
        {
          "internalType": "address",
          "name": "",
          "type": "address"
        }
      ],
      "stateMutability": "view",
      "type": "function"
    },
    {
      "inputs": [
        {
          "internalType": "uint256",
          "name": "_lotteryId",
          "type": "uint256"
        },
        {
          "internalType": "uint256",
          "name": "amount",
          "type": "uint256"
        }
      ],
      "name": "participateInBusd",
      "outputs": [],
      "stateMutability": "nonpayable",
      "type": "function"
    },
    {
      "inputs": [
        {
          "internalType": "uint256",
          "name": "_lotteryId",
          "type": "uint256"
        },
        {
          "internalType": "uint256",
          "name": "amount",
          "type": "uint256"
        }
      ],
      "name": "participateInSafemars",
      "outputs": [],
      "stateMutability": "nonpayable",
      "type": "function"
    },
    {
      "inputs": [
        {
          "internalType": "uint256",
          "name": "_lotteryId",
          "type": "uint256"
        }
      ],
      "name": "exit",
      "outputs": [],
      "stateMutability": "nonpayable",
      "type": "function"
    },
    {
      "inputs": [
        {
          "internalType": "uint256",
          "name": "_lotteryId",
          "type": "uint256"
        }
      ],
      "name": "getUnstakingCountByLottery",
      "outputs": [
        {
          "internalType": "uint256",
          "name": "",
          "type": "uint256"
        }
      ],
      "stateMutability": "view",
      "type": "function"
    },
    {
      "inputs": [
        {
          "internalType": "uint256",
          "name": "_lotteryId",
          "type": "uint256"
        }
      ],
      "name": "getAllParticiapntsByLottery",
      "outputs": [
        {
          "internalType": "address[]",
          "name": "",
          "type": "address[]"
        }
      ],
      "stateMutability": "view",
      "type": "function"
    }
  ],
  "bytecode": "0x60806040523480156200001157600080fd5b5060405162004d6138038062004d61833981810160405281019062000037919062000169565b828282600160008190555082600160006101000a81548173ffffffffffffffffffffffffffffffffffffffff021916908373ffffffffffffffffffffffffffffffffffffffff16021790555081600260006101000a81548173ffffffffffffffffffffffffffffffffffffffff021916908373ffffffffffffffffffffffffffffffffffffffff16021790555080600360006101000a81548173ffffffffffffffffffffffffffffffffffffffff021916908373ffffffffffffffffffffffffffffffffffffffff16021790555050505033600560006101000a81548173ffffffffffffffffffffffffffffffffffffffff021916908373ffffffffffffffffffffffffffffffffffffffff1602179055505050506200020d565b6000815190506200016381620001f3565b92915050565b6000806000606084860312156200017f57600080fd5b60006200018f8682870162000152565b9350506020620001a28682870162000152565b9250506040620001b58682870162000152565b9150509250925092565b6000620001cc82620001d3565b9050919050565b600073ffffffffffffffffffffffffffffffffffffffff82169050919050565b620001fe81620001bf565b81146200020a57600080fd5b50565b614b44806200021d6000396000f3fe60806040523480156200001157600080fd5b50600436106200013b5760003560e01c80637211ce8c11620000bd578063b585fabc116200007b578063b585fabc14620003b4578063bcbf42f714620003ea578063e4905e9b146200040c578063f2fde38b146200042c578063f887ea40146200044c576200013b565b80637211ce8c14620002e85780637f8661a11462000308578063a36d8e821462000328578063ab331fbd146200035e578063b10c709e146200037e576200013b565b80633b020f2a116200010b5780633b020f2a14620001da578063535bb07c14620002105780635a502b9614620002465780635efda217146200027c57806368fc66f414620002b2576200013b565b8062c2943c14620001405780631f197a731462000160578063213ef7f714620001965780633190680c14620001b8575b600080fd5b6200015e600480360381019062000158919062002d53565b6200046e565b005b6200017e600480360381019062000178919062002d53565b620007e4565b6040516200018d919062003141565b60405180910390f35b620001a062000884565b604051620001af919062003141565b60405180910390f35b620001c2620008aa565b604051620001d1919062003464565b60405180910390f35b620001f86004803603810190620001f2919062002d53565b620008b0565b60405162000207919062003464565b60405180910390f35b6200022e600480360381019062000228919062002d53565b6200096d565b6040516200023d919062003464565b60405180910390f35b6200026460048036038101906200025e919062002d53565b62000a2b565b60405162000273919062003324565b60405180910390f35b6200029a600480360381019062000294919062002d53565b62000a4b565b604051620002a9919062003464565b60405180910390f35b620002d06004803603810190620002ca919062002d53565b62000b09565b604051620002df91906200335e565b60405180910390f35b62000306600480360381019062000300919062002dab565b62000b3c565b005b62000326600480360381019062000320919062002d53565b6200119a565b005b62000346600480360381019062000340919062002d53565b62001325565b60405162000355919062003300565b60405180910390f35b6200037c600480360381019062000376919062002dab565b620013e8565b005b6200039c600480360381019062000396919062002d53565b6200152c565b604051620003ab919062003464565b60405180910390f35b620003d26004803603810190620003cc919062002d53565b620015ea565b604051620003e1919062003464565b60405180910390f35b620003f4620016a8565b60405162000403919062003141565b60405180910390f35b6200042a600480360381019062000424919062002dab565b620016ce565b005b6200044a600480360381019062000444919062002c8a565b620019d7565b005b6200045662001a76565b60405162000465919062003341565b60405180910390f35b600560009054906101000a900473ffffffffffffffffffffffffffffffffffffffff1673ffffffffffffffffffffffffffffffffffffffff163373ffffffffffffffffffffffffffffffffffffffff1614620004c957600080fd5b6008600082815260200190815260200160002060009054906101000a900460ff16156200052d576040517f08c379a00000000000000000000000000000000000000000000000000000000081526004016200052490620033dc565b60405180910390fd5b60016008600083815260200190815260200160002060006101000a81548160ff02191690831515021790555060006007600083815260200190815260200160002060009054906101000a900473ffffffffffffffffffffffffffffffffffffffff1673ffffffffffffffffffffffffffffffffffffffff166314034bd26040518163ffffffff1660e01b8152600401602060405180830381600087803b158015620005d757600080fd5b505af1158015620005ec573d6000803e3d6000fd5b505050506040513d601f19601f8201168201806040525081019062000612919062002cb6565b9050806009600084815260200190815260200160002060006101000a81548173ffffffffffffffffffffffffffffffffffffffff021916908373ffffffffffffffffffffffffffffffffffffffff1602179055506000620007276007600085815260200190815260200160002060009054906101000a900473ffffffffffffffffffffffffffffffffffffffff1673ffffffffffffffffffffffffffffffffffffffff1663b8760e6b6040518163ffffffff1660e01b815260040160206040518083038186803b158015620006e657600080fd5b505afa158015620006fb573d6000803e3d6000fd5b505050506040513d601f19601f8201168201806040525081019062000721919062002d7f565b62001a9c565b9050600260009054906101000a900473ffffffffffffffffffffffffffffffffffffffff1673ffffffffffffffffffffffffffffffffffffffff1663a9059cbb83836040518363ffffffff1660e01b815260040162000788929190620032d3565b602060405180830381600087803b158015620007a357600080fd5b505af1158015620007b8573d6000803e3d6000fd5b505050506040513d601f19601f82011682018060405250810190620007de919062002d27565b50505050565b60006008600083815260200190815260200160002060009054906101000a900460ff1662000849576040517f08c379a0000000000000000000000000000000000000000000000000000000008152600401620008409062003442565b60405180910390fd5b6009600083815260200190815260200160002060009054906101000a900473ffffffffffffffffffffffffffffffffffffffff169050919050565b600360009054906101000a900473ffffffffffffffffffffffffffffffffffffffff1681565b600a5481565b60006007600083815260200190815260200160002060009054906101000a900473ffffffffffffffffffffffffffffffffffffffff1673ffffffffffffffffffffffffffffffffffffffff16624e3fa26040518163ffffffff1660e01b815260040160206040518083038186803b1580156200092b57600080fd5b505afa15801562000940573d6000803e3d6000fd5b505050506040513d601f19601f8201168201806040525081019062000966919062002d7f565b9050919050565b60006007600083815260200190815260200160002060009054906101000a900473ffffffffffffffffffffffffffffffffffffffff1673ffffffffffffffffffffffffffffffffffffffff1663b8760e6b6040518163ffffffff1660e01b815260040160206040518083038186803b158015620009e957600080fd5b505afa158015620009fe573d6000803e3d6000fd5b505050506040513d601f19601f8201168201806040525081019062000a24919062002d7f565b9050919050565b60086020528060005260406000206000915054906101000a900460ff1681565b60006007600083815260200190815260200160002060009054906101000a900473ffffffffffffffffffffffffffffffffffffffff1673ffffffffffffffffffffffffffffffffffffffff1663d45bec4b6040518163ffffffff1660e01b815260040160206040518083038186803b15801562000ac757600080fd5b505afa15801562000adc573d6000803e3d6000fd5b505050506040513d601f19601f8201168201806040525081019062000b02919062002d7f565b9050919050565b60076020528060005260406000206000915054906101000a900473ffffffffffffffffffffffffffffffffffffffff1681565b6002600054141562000b85576040517f08c379a000000000000000000000000000000000000000000000000000000000815260040162000b7c9062003420565b60405180910390fd5b60026000819055506000600260009054906101000a900473ffffffffffffffffffffffffffffffffffffffff1673ffffffffffffffffffffffffffffffffffffffff166370a08231306040518263ffffffff1660e01b815260040162000bec919062003141565b60206040518083038186803b15801562000c0557600080fd5b505afa15801562000c1a573d6000803e3d6000fd5b505050506040513d601f19601f8201168201806040525081019062000c40919062002d7f565b9050600260009054906101000a900473ffffffffffffffffffffffffffffffffffffffff1673ffffffffffffffffffffffffffffffffffffffff166323b872dd3330856040518463ffffffff1660e01b815260040162000ca3939291906200318b565b602060405180830381600087803b15801562000cbe57600080fd5b505af115801562000cd3573d6000803e3d6000fd5b505050506040513d601f19601f8201168201806040525081019062000cf9919062002d27565b62000d3b576040517f08c379a000000000000000000000000000000000000000000000000000000000815260040162000d3290620033fe565b60405180910390fd5b600062000e0282600260009054906101000a900473ffffffffffffffffffffffffffffffffffffffff1673ffffffffffffffffffffffffffffffffffffffff166370a08231306040518263ffffffff1660e01b815260040162000d9f919062003141565b60206040518083038186803b15801562000db857600080fd5b505afa15801562000dcd573d6000803e3d6000fd5b505050506040513d601f19601f8201168201806040525081019062000df3919062002d7f565b62001af690919063ffffffff16565b9050600062000e118262001b0e565b90506007600086815260200190815260200160002060009054906101000a900473ffffffffffffffffffffffffffffffffffffffff1673ffffffffffffffffffffffffffffffffffffffff1663d45bec4b6040518163ffffffff1660e01b815260040160206040518083038186803b15801562000e8d57600080fd5b505afa15801562000ea2573d6000803e3d6000fd5b505050506040513d601f19601f8201168201806040525081019062000ec8919062002d7f565b81101562000f9757600062000edd8262001a9c565b9050600260009054906101000a900473ffffffffffffffffffffffffffffffffffffffff1673ffffffffffffffffffffffffffffffffffffffff1663a9059cbb33836040518363ffffffff1660e01b815260040162000f3e929190620032d3565b602060405180830381600087803b15801562000f5957600080fd5b505af115801562000f6e573d6000803e3d6000fd5b505050506040513d601f19601f8201168201806040525081019062000f94919062002d27565b50505b6007600086815260200190815260200160002060009054906101000a900473ffffffffffffffffffffffffffffffffffffffff1673ffffffffffffffffffffffffffffffffffffffff1663d45bec4b6040518163ffffffff1660e01b815260040160206040518083038186803b1580156200101157600080fd5b505afa15801562001026573d6000803e3d6000fd5b505050506040513d601f19601f820116820180604052508101906200104c919062002d7f565b81101562001091576040517f08c379a0000000000000000000000000000000000000000000000000000000008152600401620010889062003398565b60405180910390fd5b6000620010be6064620010af60048562001b6890919063ffffffff16565b62001b8090919063ffffffff16565b90506007600087815260200190815260200160002060009054906101000a900473ffffffffffffffffffffffffffffffffffffffff1673ffffffffffffffffffffffffffffffffffffffff166313b1864082336040518363ffffffff1660e01b81526004016200113092919062003481565b600060405180830381600087803b1580156200114b57600080fd5b505af115801562001160573d6000803e3d6000fd5b5050505060006200117b828462001af690919063ffffffff16565b905062001189813362001b98565b505050505060016000819055505050565b60026000541415620011e3576040517f08c379a0000000000000000000000000000000000000000000000000000000008152600401620011da9062003420565b60405180910390fd5b60026000819055506008600082815260200190815260200160002060009054906101000a900460ff166200124e576040517f08c379a00000000000000000000000000000000000000000000000000000000081526004016200124590620033ba565b60405180910390fd5b620012593362001c34565b620012716001600a5462001dd490919063ffffffff16565b600a819055506007600082815260200190815260200160002060009054906101000a900473ffffffffffffffffffffffffffffffffffffffff1673ffffffffffffffffffffffffffffffffffffffff1663fe9132ea60016040518263ffffffff1660e01b8152600401620012e691906200337b565b600060405180830381600087803b1580156200130157600080fd5b505af115801562001316573d6000803e3d6000fd5b50505050600160008190555050565b60606007600083815260200190815260200160002060009054906101000a900473ffffffffffffffffffffffffffffffffffffffff1673ffffffffffffffffffffffffffffffffffffffff166353ed51436040518163ffffffff1660e01b815260040160006040518083038186803b158015620013a157600080fd5b505afa158015620013b6573d6000803e3d6000fd5b505050506040513d6000823e3d601f19601f82011682018060405250810190620013e1919062002ce2565b9050919050565b600560009054906101000a900473ffffffffffffffffffffffffffffffffffffffff1673ffffffffffffffffffffffffffffffffffffffff163373ffffffffffffffffffffffffffffffffffffffff16146200144357600080fd5b818130604051620014549062002b67565b620014629392919062003512565b604051809103906000f0801580156200147f573d6000803e3d6000fd5b5060076000600654815260200190815260200160002060006101000a81548173ffffffffffffffffffffffffffffffffffffffff021916908373ffffffffffffffffffffffffffffffffffffffff16021790555060066000815480929190620014e890620037ef565b91905055507f9e0023bebcc752baaa41057318405b5a6a8e9c6372b519717cfdf238e5caa79560065460405162001520919062003464565b60405180910390a15050565b60006007600083815260200190815260200160002060009054906101000a900473ffffffffffffffffffffffffffffffffffffffff1673ffffffffffffffffffffffffffffffffffffffff166396df6bbe6040518163ffffffff1660e01b815260040160206040518083038186803b158015620015a857600080fd5b505afa158015620015bd573d6000803e3d6000fd5b505050506040513d601f19601f82011682018060405250810190620015e3919062002d7f565b9050919050565b60006007600083815260200190815260200160002060009054906101000a900473ffffffffffffffffffffffffffffffffffffffff1673ffffffffffffffffffffffffffffffffffffffff16632ba976386040518163ffffffff1660e01b815260040160206040518083038186803b1580156200166657600080fd5b505afa1580156200167b573d6000803e3d6000fd5b505050506040513d601f19601f82011682018060405250810190620016a1919062002d7f565b9050919050565b600260009054906101000a900473ffffffffffffffffffffffffffffffffffffffff1681565b6002600054141562001717576040517f08c379a00000000000000000000000000000000000000000000000000000000081526004016200170e9062003420565b60405180910390fd5b60026000819055506007600083815260200190815260200160002060009054906101000a900473ffffffffffffffffffffffffffffffffffffffff1673ffffffffffffffffffffffffffffffffffffffff1663d45bec4b6040518163ffffffff1660e01b815260040160206040518083038186803b1580156200179957600080fd5b505afa158015620017ae573d6000803e3d6000fd5b505050506040513d601f19601f82011682018060405250810190620017d4919062002d7f565b81101562001819576040517f08c379a0000000000000000000000000000000000000000000000000000000008152600401620018109062003398565b60405180910390fd5b600360009054906101000a900473ffffffffffffffffffffffffffffffffffffffff1673ffffffffffffffffffffffffffffffffffffffff166323b872dd3330846040518463ffffffff1660e01b81526004016200187a939291906200318b565b602060405180830381600087803b1580156200189557600080fd5b505af1158015620018aa573d6000803e3d6000fd5b505050506040513d601f19601f82011682018060405250810190620018d0919062002d27565b506000620018fe6064620018ef60048562001b6890919063ffffffff16565b62001b8090919063ffffffff16565b90506007600084815260200190815260200160002060009054906101000a900473ffffffffffffffffffffffffffffffffffffffff1673ffffffffffffffffffffffffffffffffffffffff166313b1864082336040518363ffffffff1660e01b81526004016200197092919062003481565b600060405180830381600087803b1580156200198b57600080fd5b505af1158015620019a0573d6000803e3d6000fd5b505050506000620019bb828462001af690919063ffffffff16565b9050620019c9813362001b98565b505060016000819055505050565b600560009054906101000a900473ffffffffffffffffffffffffffffffffffffffff1673ffffffffffffffffffffffffffffffffffffffff163373ffffffffffffffffffffffffffffffffffffffff161462001a3257600080fd5b80600560006101000a81548173ffffffffffffffffffffffffffffffffffffffff021916908373ffffffffffffffffffffffffffffffffffffffff16021790555050565b600160009054906101000a900473ffffffffffffffffffffffffffffffffffffffff1681565b600062001aef600360009054906101000a900473ffffffffffffffffffffffffffffffffffffffff16600260009054906101000a900473ffffffffffffffffffffffffffffffffffffffff168462001dec565b9050919050565b6000818362001b069190620036f2565b905092915050565b600062001b61600260009054906101000a900473ffffffffffffffffffffffffffffffffffffffff16600360009054906101000a900473ffffffffffffffffffffffffffffffffffffffff168462001dec565b9050919050565b6000818362001b78919062003691565b905092915050565b6000818362001b90919062003659565b905092915050565b600062001bb060028462001b8090919063ffffffff16565b9050600062001bc9828562001af690919063ffffffff16565b9050600062001c1e600360009054906101000a900473ffffffffffffffffffffffffffffffffffffffff16600260009054906101000a900473ffffffffffffffffffffffffffffffffffffffff168462001dec565b905062001c2d818486620021f5565b5050505050565b6000600460008373ffffffffffffffffffffffffffffffffffffffff1673ffffffffffffffffffffffffffffffffffffffff168152602001908152602001600020905060008062001c8983600201546200267b565b91509150600062001ce0600360009054906101000a900473ffffffffffffffffffffffffffffffffffffffff16600260009054906101000a900473ffffffffffffffffffffffffffffffffffffffff168462001dec565b905060008460010181905550600084600001819055506000846002018190555062001d15838262001dd490919063ffffffff16565b9050600260009054906101000a900473ffffffffffffffffffffffffffffffffffffffff1673ffffffffffffffffffffffffffffffffffffffff1663a9059cbb86836040518363ffffffff1660e01b815260040162001d76929190620032d3565b602060405180830381600087803b15801562001d9157600080fd5b505af115801562001da6573d6000803e3d6000fd5b505050506040513d601f19601f8201168201806040525081019062001dcc919062002d27565b505050505050565b6000818362001de49190620035fc565b905092915050565b60008373ffffffffffffffffffffffffffffffffffffffff1663095ea7b3600160009054906101000a900473ffffffffffffffffffffffffffffffffffffffff16846040518363ffffffff1660e01b815260040162001e4d929190620032d3565b602060405180830381600087803b15801562001e6857600080fd5b505af115801562001e7d573d6000803e3d6000fd5b505050506040513d601f19601f8201168201806040525081019062001ea3919062002d27565b506000600267ffffffffffffffff81111562001ee8577f4e487b7100000000000000000000000000000000000000000000000000000000600052604160045260246000fd5b60405190808252806020026020018201604052801562001f175781602001602082028036833780820191505090505b509050848160008151811062001f56577f4e487b7100000000000000000000000000000000000000000000000000000000600052603260045260246000fd5b602002602001019073ffffffffffffffffffffffffffffffffffffffff16908173ffffffffffffffffffffffffffffffffffffffff1681525050838160018151811062001fcc577f4e487b7100000000000000000000000000000000000000000000000000000000600052603260045260246000fd5b602002602001019073ffffffffffffffffffffffffffffffffffffffff16908173ffffffffffffffffffffffffffffffffffffffff168152505060008473ffffffffffffffffffffffffffffffffffffffff166370a08231306040518263ffffffff1660e01b815260040162002043919062003141565b60206040518083038186803b1580156200205c57600080fd5b505afa15801562002071573d6000803e3d6000fd5b505050506040513d601f19601f8201168201806040525081019062002097919062002d7f565b9050600160009054906101000a900473ffffffffffffffffffffffffffffffffffffffff1673ffffffffffffffffffffffffffffffffffffffff16635c11d7958560008530603c42620020eb9190620035fc565b6040518663ffffffff1660e01b81526004016200210d959493929190620034ae565b600060405180830381600087803b1580156200212857600080fd5b505af11580156200213d573d6000803e3d6000fd5b5050505060008573ffffffffffffffffffffffffffffffffffffffff166370a08231306040518263ffffffff1660e01b81526004016200217e919062003141565b60206040518083038186803b1580156200219757600080fd5b505afa158015620021ac573d6000803e3d6000fd5b505050506040513d601f19601f82011682018060405250810190620021d2919062002d7f565b9050620021e9828262001af690919063ffffffff16565b93505050509392505050565b600260009054906101000a900473ffffffffffffffffffffffffffffffffffffffff1673ffffffffffffffffffffffffffffffffffffffff1663095ea7b3600160009054906101000a900473ffffffffffffffffffffffffffffffffffffffff16856040518363ffffffff1660e01b815260040162002276929190620032d3565b602060405180830381600087803b1580156200229157600080fd5b505af1158015620022a6573d6000803e3d6000fd5b505050506040513d601f19601f82011682018060405250810190620022cc919062002d27565b50600360009054906101000a900473ffffffffffffffffffffffffffffffffffffffff1673ffffffffffffffffffffffffffffffffffffffff1663095ea7b3600160009054906101000a900473ffffffffffffffffffffffffffffffffffffffff16846040518363ffffffff1660e01b81526004016200234e929190620032d3565b602060405180830381600087803b1580156200236957600080fd5b505af11580156200237e573d6000803e3d6000fd5b505050506040513d601f19601f82011682018060405250810190620023a4919062002d27565b506000620023b1620029dd565b73ffffffffffffffffffffffffffffffffffffffff166370a08231306040518263ffffffff1660e01b8152600401620023eb919062003141565b60206040518083038186803b1580156200240457600080fd5b505afa15801562002419573d6000803e3d6000fd5b505050506040513d601f19601f820116820180604052508101906200243f919062002d7f565b9050600160009054906101000a900473ffffffffffffffffffffffffffffffffffffffff1673ffffffffffffffffffffffffffffffffffffffff1663e8e33700600260009054906101000a900473ffffffffffffffffffffffffffffffffffffffff16600360009054906101000a900473ffffffffffffffffffffffffffffffffffffffff1687876000803061016842620024db9190620035fc565b6040518963ffffffff1660e01b81526004016200250098979695949392919062003245565b606060405180830381600087803b1580156200251b57600080fd5b505af115801562002530573d6000803e3d6000fd5b505050506040513d601f19601f8201168201806040525081019062002556919062002e2d565b505050600062002565620029dd565b73ffffffffffffffffffffffffffffffffffffffff166370a08231306040518263ffffffff1660e01b81526004016200259f919062003141565b60206040518083038186803b158015620025b857600080fd5b505afa158015620025cd573d6000803e3d6000fd5b505050506040513d601f19601f82011682018060405250810190620025f3919062002d7f565b905060006200260c838362001af690919063ffffffff16565b90506000600460008673ffffffffffffffffffffffffffffffffffffffff1673ffffffffffffffffffffffffffffffffffffffff16815260200190815260200160002090506200266a82826002015462001dd490919063ffffffff16565b816002018190555050505050505050565b60008062002688620029dd565b73ffffffffffffffffffffffffffffffffffffffff1663095ea7b3600160009054906101000a900473ffffffffffffffffffffffffffffffffffffffff16856040518363ffffffff1660e01b8152600401620026e6929190620032d3565b602060405180830381600087803b1580156200270157600080fd5b505af115801562002716573d6000803e3d6000fd5b505050506040513d601f19601f820116820180604052508101906200273c919062002d27565b506000600260009054906101000a900473ffffffffffffffffffffffffffffffffffffffff1673ffffffffffffffffffffffffffffffffffffffff166370a08231306040518263ffffffff1660e01b81526004016200279c919062003141565b60206040518083038186803b158015620027b557600080fd5b505afa158015620027ca573d6000803e3d6000fd5b505050506040513d601f19601f82011682018060405250810190620027f0919062002d7f565b9050600160009054906101000a900473ffffffffffffffffffffffffffffffffffffffff1673ffffffffffffffffffffffffffffffffffffffff1663baa2abde600260009054906101000a900473ffffffffffffffffffffffffffffffffffffffff16600360009054906101000a900473ffffffffffffffffffffffffffffffffffffffff168760008030610168426200288b9190620035fc565b6040518863ffffffff1660e01b8152600401620028af9796959493929190620031c8565b6040805180830381600087803b158015620028c957600080fd5b505af1158015620028de573d6000803e3d6000fd5b505050506040513d601f19601f8201168201806040525081019062002904919062002dec565b9050809250506000600260009054906101000a900473ffffffffffffffffffffffffffffffffffffffff1673ffffffffffffffffffffffffffffffffffffffff166370a08231306040518263ffffffff1660e01b815260040162002969919062003141565b60206040518083038186803b1580156200298257600080fd5b505afa15801562002997573d6000803e3d6000fd5b505050506040513d601f19601f82011682018060405250810190620029bd919062002d7f565b9050620029d4828262001af690919063ffffffff16565b93505050915091565b600080600160009054906101000a900473ffffffffffffffffffffffffffffffffffffffff1673ffffffffffffffffffffffffffffffffffffffff1663c45a01556040518163ffffffff1660e01b815260040160206040518083038186803b15801562002a4957600080fd5b505afa15801562002a5e573d6000803e3d6000fd5b505050506040513d601f19601f8201168201806040525081019062002a84919062002cb6565b905060008173ffffffffffffffffffffffffffffffffffffffff1663e6a43905600260009054906101000a900473ffffffffffffffffffffffffffffffffffffffff16600360009054906101000a900473ffffffffffffffffffffffffffffffffffffffff166040518363ffffffff1660e01b815260040162002b099291906200315e565b60206040518083038186803b15801562002b2257600080fd5b505afa15801562002b37573d6000803e3d6000fd5b505050506040513d601f19601f8201168201806040525081019062002b5d919062002cb6565b9050809250505090565b6111f6806200391983390190565b600062002b8c62002b868462003583565b6200354f565b9050808382526020820190508285602086028201111562002bac57600080fd5b60005b8581101562002be0578162002bc5888262002c01565b84526020840193506020830192505060018101905062002baf565b5050509392505050565b60008135905062002bfb81620038ca565b92915050565b60008151905062002c1281620038ca565b92915050565b600082601f83011262002c2a57600080fd5b815162002c3c84826020860162002b75565b91505092915050565b60008151905062002c5681620038e4565b92915050565b60008135905062002c6d81620038fe565b92915050565b60008151905062002c8481620038fe565b92915050565b60006020828403121562002c9d57600080fd5b600062002cad8482850162002bea565b91505092915050565b60006020828403121562002cc957600080fd5b600062002cd98482850162002c01565b91505092915050565b60006020828403121562002cf557600080fd5b600082015167ffffffffffffffff81111562002d1057600080fd5b62002d1e8482850162002c18565b91505092915050565b60006020828403121562002d3a57600080fd5b600062002d4a8482850162002c45565b91505092915050565b60006020828403121562002d6657600080fd5b600062002d768482850162002c5c565b91505092915050565b60006020828403121562002d9257600080fd5b600062002da28482850162002c73565b91505092915050565b6000806040838503121562002dbf57600080fd5b600062002dcf8582860162002c5c565b925050602062002de28582860162002c5c565b9150509250929050565b6000806040838503121562002e0057600080fd5b600062002e108582860162002c73565b925050602062002e238582860162002c73565b9150509250929050565b60008060006060848603121562002e4357600080fd5b600062002e538682870162002c73565b935050602062002e668682870162002c73565b925050604062002e798682870162002c73565b9150509250925092565b600062002e91838362002e9d565b60208301905092915050565b62002ea8816200372d565b82525050565b62002eb9816200372d565b82525050565b600062002ecc82620035c2565b62002ed88185620035da565b935062002ee583620035b2565b8060005b8381101562002f1c57815162002f00888262002e83565b975062002f0d83620035cd565b92505060018101905062002ee9565b5085935050505092915050565b62002f348162003741565b82525050565b62002f458162003777565b82525050565b62002f56816200379f565b82525050565b62002f6781620037c7565b82525050565b62002f7881620037db565b82525050565b600062002f8d602e83620035eb565b91507f5472616e7366657272656420616d6f756e74206973206c657373207468616e2060008301527f6d696e696d756d20616d6f756e740000000000000000000000000000000000006020830152604082019050919050565b600062002ff5601383620035eb565b91507f57696e6e6572206e6f74206465636c61726564000000000000000000000000006000830152602082019050919050565b600062003037601783620035eb565b91507f57696e6e657220616c7265616479206465636c617265640000000000000000006000830152602082019050919050565b600062003079601883620035eb565b91507f536166656d617273207472616e73666572206661696c656400000000000000006000830152602082019050919050565b6000620030bb601f83620035eb565b91507f5265656e7472616e637947756172643a207265656e7472616e742063616c6c006000830152602082019050919050565b6000620030fd601a83620035eb565b91507f57696e6e6572206973206e6f74206465636c61726564207965740000000000006000830152602082019050919050565b6200313b816200376d565b82525050565b600060208201905062003158600083018462002eae565b92915050565b600060408201905062003175600083018562002eae565b62003184602083018462002eae565b9392505050565b6000606082019050620031a2600083018662002eae565b620031b1602083018562002eae565b620031c0604083018462003130565b949350505050565b600060e082019050620031df600083018a62002eae565b620031ee602083018962002eae565b620031fd604083018862003130565b6200320c606083018762002f5c565b6200321b608083018662002f5c565b6200322a60a083018562002eae565b6200323960c083018462003130565b98975050505050505050565b6000610100820190506200325d600083018b62002eae565b6200326c602083018a62002eae565b6200327b604083018962003130565b6200328a606083018862003130565b62003299608083018762002f5c565b620032a860a083018662002f5c565b620032b760c083018562002eae565b620032c660e083018462003130565b9998505050505050505050565b6000604082019050620032ea600083018562002eae565b620032f9602083018462003130565b9392505050565b600060208201905081810360008301526200331c818462002ebf565b905092915050565b60006020820190506200333b600083018462002f29565b92915050565b600060208201905062003358600083018462002f3a565b92915050565b600060208201905062003375600083018462002f4b565b92915050565b600060208201905062003392600083018462002f6d565b92915050565b60006020820190508181036000830152620033b38162002f7e565b9050919050565b60006020820190508181036000830152620033d58162002fe6565b9050919050565b60006020820190508181036000830152620033f78162003028565b9050919050565b6000602082019050818103600083015262003419816200306a565b9050919050565b600060208201905081810360008301526200343b81620030ac565b9050919050565b600060208201905081810360008301526200345d81620030ee565b9050919050565b60006020820190506200347b600083018462003130565b92915050565b600060408201905062003498600083018562003130565b620034a7602083018462002eae565b9392505050565b600060a082019050620034c5600083018862003130565b620034d4602083018762002f5c565b8181036040830152620034e8818662002ebf565b9050620034f9606083018562002eae565b62003508608083018462003130565b9695505050505050565b600060608201905062003529600083018662003130565b62003538602083018562003130565b62003547604083018462002eae565b949350505050565b6000604051905081810181811067ffffffffffffffff821117156200357957620035786200389b565b5b8060405250919050565b600067ffffffffffffffff821115620035a157620035a06200389b565b5b602082029050602081019050919050565b6000819050602082019050919050565b600081519050919050565b6000602082019050919050565b600082825260208201905092915050565b600082825260208201905092915050565b600062003609826200376d565b915062003616836200376d565b9250827fffffffffffffffffffffffffffffffffffffffffffffffffffffffffffffffff038211156200364e576200364d6200383d565b5b828201905092915050565b600062003666826200376d565b915062003673836200376d565b9250826200368657620036856200386c565b5b828204905092915050565b60006200369e826200376d565b9150620036ab836200376d565b9250817fffffffffffffffffffffffffffffffffffffffffffffffffffffffffffffffff0483118215151615620036e757620036e66200383d565b5b828202905092915050565b6000620036ff826200376d565b91506200370c836200376d565b9250828210156200372257620037216200383d565b5b828203905092915050565b60006200373a826200374d565b9050919050565b60008115159050919050565b600073ffffffffffffffffffffffffffffffffffffffff82169050919050565b6000819050919050565b600062003784826200378b565b9050919050565b600062003798826200374d565b9050919050565b6000620037ac82620037b3565b9050919050565b6000620037c0826200374d565b9050919050565b6000620037d4826200376d565b9050919050565b6000620037e8826200376d565b9050919050565b6000620037fc826200376d565b91507fffffffffffffffffffffffffffffffffffffffffffffffffffffffffffffffff8214156200383257620038316200383d565b5b600182019050919050565b7f4e487b7100000000000000000000000000000000000000000000000000000000600052601160045260246000fd5b7f4e487b7100000000000000000000000000000000000000000000000000000000600052601260045260246000fd5b7f4e487b7100000000000000000000000000000000000000000000000000000000600052604160045260246000fd5b620038d5816200372d565b8114620038e157600080fd5b50565b620038ef8162003741565b8114620038fb57600080fd5b50565b62003909816200376d565b81146200391557600080fd5b5056fe60806040523480156200001157600080fd5b50604051620011f6380380620011f6833981810160405281019062000037919062000118565b826000819055508160018190555062000067670de0b6b3a764000084620000d260201b620007bf1790919060201c565b60038190555080600260006101000a81548173ffffffffffffffffffffffffffffffffffffffff021916908373ffffffffffffffffffffffffffffffffffffffff1602179055506001600560006101000a81548160ff02191690831515021790555050505062000247565b60008183620000e291906200016e565b905092915050565b600081519050620000fb8162000213565b92915050565b60008151905062000112816200022d565b92915050565b6000806000606084860312156200012e57600080fd5b60006200013e8682870162000101565b9350506020620001518682870162000101565b92505060406200016486828701620000ea565b9150509250925092565b60006200017b82620001da565b91506200018883620001da565b9250826200019b576200019a620001e4565b5b828204905092915050565b6000620001b382620001ba565b9050919050565b600073ffffffffffffffffffffffffffffffffffffffff82169050919050565b6000819050919050565b7f4e487b7100000000000000000000000000000000000000000000000000000000600052601260045260246000fd5b6200021e81620001a6565b81146200022a57600080fd5b50565b6200023881620001da565b81146200024457600080fd5b50565b610f9f80620002576000396000f3fe608060405234801561001057600080fd5b50600436106100925760003560e01c806353ed51431161006657806353ed51431461010d57806396df6bbe1461012b578063b8760e6b14610149578063d45bec4b14610167578063fe9132ea1461018557610092565b80624e3fa21461009757806313b18640146100b557806314034bd2146100d15780632ba97638146100ef575b600080fd5b61009f6101a1565b6040516100ac9190610cfd565b60405180910390f35b6100cf60048036038101906100ca91906108a1565b6101ab565b005b6100d96104e1565b6040516100e69190610be0565b60405180910390f35b6100f7610660565b6040516101049190610cfd565b60405180910390f35b61011561066a565b6040516101229190610bfb565b60405180910390f35b6101336106f8565b6040516101409190610cfd565b60405180910390f35b610151610702565b60405161015e9190610cfd565b60405180910390f35b61016f61070b565b60405161017c9190610cfd565b60405180910390f35b61019f600480360381019061019a9190610878565b610715565b005b6000600954905090565b600060035414156101f1576040517f08c379a00000000000000000000000000000000000000000000000000000000081526004016101e890610c5d565b60405180910390fd5b600560009054906101000a900460ff16610240576040517f08c379a000000000000000000000000000000000000000000000000000000000815260040161023790610c9d565b60405180910390fd5b600760008273ffffffffffffffffffffffffffffffffffffffff1673ffffffffffffffffffffffffffffffffffffffff16815260200190815260200160002060009054906101000a900460ff16156102cd576040517f08c379a00000000000000000000000000000000000000000000000000000000081526004016102c490610c3d565b60405180910390fd5b60006102ea670de0b6b3a7640000846107bf90919063ffffffff16565b9050806003541015610331576040517f08c379a000000000000000000000000000000000000000000000000000000000815260040161032890610cbd565b60405180910390fd5b60005b818110156103bb578260066000600454815260200190815260200160002060006101000a81548173ffffffffffffffffffffffffffffffffffffffff021916908373ffffffffffffffffffffffffffffffffffffffff160217905550600460008154809291906103a390610e59565b919050555080806103b390610e59565b915050610334565b50600a829080600181540180825580915050600190039060005260206000200160009091909190916101000a81548173ffffffffffffffffffffffffffffffffffffffff021916908373ffffffffffffffffffffffffffffffffffffffff1602179055506001600760008473ffffffffffffffffffffffffffffffffffffffff1673ffffffffffffffffffffffffffffffffffffffff16815260200190815260200160002060006101000a81548160ff02191690831515021790555061048c816003546107d590919063ffffffff16565b600381905550600060035414156104a557426008819055505b7f609ccaad0d5a048d24b2ea393937b393e3ad528ec64eca22004023379ea26f42826040516104d49190610be0565b60405180910390a1505050565b6000600260009054906101000a900473ffffffffffffffffffffffffffffffffffffffff1673ffffffffffffffffffffffffffffffffffffffff163373ffffffffffffffffffffffffffffffffffffffff161461053d57600080fd5b600560009054906101000a900460ff1661058c576040517f08c379a000000000000000000000000000000000000000000000000000000000815260040161058390610cdd565b60405180910390fd5b6000600354146105d1576040517f08c379a00000000000000000000000000000000000000000000000000000000081526004016105c890610c1d565b60405180910390fd5b6000600560006101000a81548160ff021916908315150217905550600061062461060e670de0b6b3a76400006000546107bf90919063ffffffff16565b6106166107eb565b61082290919063ffffffff16565b90506006600082815260200190815260200160002060009054906101000a900473ffffffffffffffffffffffffffffffffffffffff1691505090565b6000600354905090565b6060600a8054806020026020016040519081016040528092919081815260200182805480156106ee57602002820191906000526020600020905b8160009054906101000a900473ffffffffffffffffffffffffffffffffffffffff1673ffffffffffffffffffffffffffffffffffffffff16815260200190600101908083116106a4575b5050505050905090565b6000600854905090565b60008054905090565b6000600154905090565b600760003273ffffffffffffffffffffffffffffffffffffffff1673ffffffffffffffffffffffffffffffffffffffff16815260200190815260200160002060009054906101000a900460ff166107a1576040517f08c379a000000000000000000000000000000000000000000000000000000000815260040161079890610c7d565b60405180910390fd5b6107b68160095461083890919063ffffffff16565b60098190555050565b600081836107cd9190610db8565b905092915050565b600081836107e39190610de9565b905092915050565b6000444260005460405160200161080493929190610ba3565b6040516020818303038152906040528051906020012060001c905090565b600081836108309190610eac565b905092915050565b600081836108469190610d62565b905092915050565b60008135905061085d81610f3b565b92915050565b60008135905061087281610f52565b92915050565b60006020828403121561088a57600080fd5b600061089884828501610863565b91505092915050565b600080604083850312156108b457600080fd5b60006108c285828601610863565b92505060206108d38582860161084e565b9150509250929050565b60006108e983836108f5565b60208301905092915050565b6108fe81610e1d565b82525050565b61090d81610e1d565b82525050565b600061091e82610d28565b6109288185610d40565b935061093383610d18565b8060005b8381101561096457815161094b88826108dd565b975061095683610d33565b925050600181019050610937565b5085935050505092915050565b600061097e601783610d51565b91507f636f6e74657874206973206e6f742066756c6c207965740000000000000000006000830152602082019050919050565b60006109be601483610d51565b91507f416c7265616479207061727469636970617465640000000000000000000000006000830152602082019050919050565b60006109fe600f83610d51565b91507f636f6e746578742069732066756c6c00000000000000000000000000000000006000830152602082019050919050565b6000610a3e602f83610d51565b91507f5468652063616c6c6572206973206e6f74207061727469636970616e7420666f60008301527f6f722074686973206c6f747465727900000000000000000000000000000000006020830152604082019050919050565b6000610aa4601d83610d51565b91507f636f6e74657874206973206e6f742061637469766520616e796d6f72650000006000830152602082019050919050565b6000610ae4603283610d51565b91507f656e74726565206665652073686f756c6420626520736d616c6c65722074686160008301527f6e20656e747269657320726571756972656400000000000000000000000000006020830152604082019050919050565b6000610b4a601d83610d51565b91507f436f6e74657874206973206e6f742061637469766520616e796d6f72650000006000830152602082019050919050565b610b8681610e4f565b82525050565b610b9d610b9882610e4f565b610ea2565b82525050565b6000610baf8286610b8c565b602082019150610bbf8285610b8c565b602082019150610bcf8284610b8c565b602082019150819050949350505050565b6000602082019050610bf56000830184610904565b92915050565b60006020820190508181036000830152610c158184610913565b905092915050565b60006020820190508181036000830152610c3681610971565b9050919050565b60006020820190508181036000830152610c56816109b1565b9050919050565b60006020820190508181036000830152610c76816109f1565b9050919050565b60006020820190508181036000830152610c9681610a31565b9050919050565b60006020820190508181036000830152610cb681610a97565b9050919050565b60006020820190508181036000830152610cd681610ad7565b9050919050565b60006020820190508181036000830152610cf681610b3d565b9050919050565b6000602082019050610d126000830184610b7d565b92915050565b6000819050602082019050919050565b600081519050919050565b6000602082019050919050565b600082825260208201905092915050565b600082825260208201905092915050565b6000610d6d82610e4f565b9150610d7883610e4f565b9250827fffffffffffffffffffffffffffffffffffffffffffffffffffffffffffffffff03821115610dad57610dac610edd565b5b828201905092915050565b6000610dc382610e4f565b9150610dce83610e4f565b925082610dde57610ddd610f0c565b5b828204905092915050565b6000610df482610e4f565b9150610dff83610e4f565b925082821015610e1257610e11610edd565b5b828203905092915050565b6000610e2882610e2f565b9050919050565b600073ffffffffffffffffffffffffffffffffffffffff82169050919050565b6000819050919050565b6000610e6482610e4f565b91507fffffffffffffffffffffffffffffffffffffffffffffffffffffffffffffffff821415610e9757610e96610edd565b5b600182019050919050565b6000819050919050565b6000610eb782610e4f565b9150610ec283610e4f565b925082610ed257610ed1610f0c565b5b828206905092915050565b7f4e487b7100000000000000000000000000000000000000000000000000000000600052601160045260246000fd5b7f4e487b7100000000000000000000000000000000000000000000000000000000600052601260045260246000fd5b610f4481610e1d565b8114610f4f57600080fd5b50565b610f5b81610e4f565b8114610f6657600080fd5b5056fea2646970667358221220371bdff398e56bbec50b0f0d1f1329012a8a4c34fd2b824ec051c4c20536db7464736f6c63430008000033a2646970667358221220450083cd7f456b2206548f0e7b3a55780ac5d7307ebd58920f10a0c049f0d1ac64736f6c63430008000033",
  "immutableReferences": {},
  "source": "// SPDX-License-Identifier: MIT\r\npragma solidity ^0.8.0;\r\n\r\nimport \"./PancakeClass.sol\";\r\nimport \"./Lottery.sol\";\r\n\r\ncontract LpLottery is PancakeClass {\r\n    address private admin;\r\n    uint256 private lotteryId;\r\n    mapping(uint256 => Lottery) public lotteryStructs;\r\n    mapping(uint256 => bool) public lotteryWinnerDeclared;\r\n    mapping(uint256 => address) private lotteryWinner;\r\n    uint256 public totalUnstakingCount; \r\n\r\n    \r\n    using SafeMath for uint256;\r\n\r\n    constructor(\r\n        address _routerAddres,\r\n        address _tokenSafeMars,\r\n        address _tokenBUSD\r\n    ) PancakeClass(_routerAddres, _tokenSafeMars, _tokenBUSD) {\r\n        admin = msg.sender;\r\n    }\r\n\r\n    function transferOwnership(address newManger) public restricted {\r\n        admin = newManger;\r\n    }\r\n\r\n    function createContext(uint256 _prizeValue, uint256 _minimumAmount)\r\n        public\r\n        restricted\r\n    {\r\n        lotteryStructs[lotteryId] = new Lottery(\r\n            _prizeValue,\r\n            _minimumAmount,\r\n            address(this)\r\n        );\r\n        lotteryId++;\r\n        emit LotteryCreated(lotteryId);\r\n    }\r\n\r\n    function declareWinner(uint256 _lotteryId) public restricted {\r\n        require(!lotteryWinnerDeclared[_lotteryId], \"Winner already declared\");\r\n        lotteryWinnerDeclared[_lotteryId] = true;\r\n        address winner = lotteryStructs[_lotteryId].declareWinner();\r\n        lotteryWinner[_lotteryId] = winner;\r\n        uint256 tokensGetInSafemars = convertBUSDToSafeMars(\r\n            lotteryStructs[_lotteryId].getPrizeValue()\r\n        );\r\n        IERC20(tokenSafeMars).transfer(winner, tokensGetInSafemars);\r\n    }\r\n\r\n    function getEntriesRequired(uint256 _lotteryId)\r\n        public\r\n        view\r\n        returns (uint256)\r\n    {\r\n        return lotteryStructs[_lotteryId].getEntriesRequired();\r\n    }\r\n\r\n    function getTimestampForLastEntry(uint256 _lotteryId)\r\n        external\r\n        view\r\n        returns (uint256)\r\n    {\r\n        return lotteryStructs[_lotteryId].getTimestampForLatsEntry();\r\n    }\r\n\r\n    function getCashPrice(uint256 _lotteryId)\r\n        public\r\n        view\r\n        returns (uint256)\r\n    {\r\n        return lotteryStructs[_lotteryId].getPrizeValue();\r\n    }\r\n\r\n    function getMinimumInvest(uint256 _lotteryId)\r\n        public\r\n        view\r\n        returns (uint256)\r\n    {\r\n        return lotteryStructs[_lotteryId].getMinimumAmountInBusd();\r\n    }\r\n\r\n    \r\n\r\n    function viewWinner(uint256 _lotteryId) public view returns (address) {\r\n        require(\r\n            lotteryWinnerDeclared[_lotteryId],\r\n            \"Winner is not declared yet\"\r\n        );\r\n        return lotteryWinner[_lotteryId];\r\n    }\r\n\r\n    function participateInBusd(uint256 _lotteryId, uint256 amount)\r\n        public\r\n        nonReentrant\r\n    {\r\n        require(\r\n            amount >= lotteryStructs[_lotteryId].getMinimumAmountInBusd(),\r\n            \"Transferred amount is less than minimum amount\"\r\n        );\r\n        IERC20(tokenBUSD).transferFrom(msg.sender, address(this), amount);\r\n        uint256 entryFee = amount.mul(4).div(100);\r\n        lotteryStructs[_lotteryId].participate(entryFee, msg.sender);\r\n        uint256 stakingAmount = amount.sub(entryFee);\r\n        stakeInBUSD(stakingAmount, msg.sender);\r\n    }\r\n\r\n     \r\n    function participateInSafemars(uint256 _lotteryId, uint256 amount)\r\n        public\r\n        nonReentrant\r\n    {\r\n        uint256 initBalance = IERC20(tokenSafeMars).balanceOf(address(this));\r\n        require(\r\n            IERC20(tokenSafeMars).transferFrom(\r\n                msg.sender,\r\n                address(this),\r\n                amount\r\n            ),\r\n            \"Safemars transfer failed\"\r\n        );\r\n        uint256 actualAmount = IERC20(tokenSafeMars)\r\n            .balanceOf(address(this))\r\n            .sub(initBalance);\r\n\r\n        uint256 tokensGetInBusdForTotalAmount = convertSafeMarsToBUSD(\r\n            actualAmount\r\n        );\r\n\r\n        if (\r\n            tokensGetInBusdForTotalAmount <\r\n            lotteryStructs[_lotteryId].getMinimumAmountInBusd()\r\n        ) {\r\n            uint256 tokensGetInSafermars = convertBUSDToSafeMars(\r\n                tokensGetInBusdForTotalAmount\r\n            );\r\n            IERC20(tokenSafeMars).transfer(msg.sender, tokensGetInSafermars);\r\n        }\r\n        require(\r\n            tokensGetInBusdForTotalAmount >=\r\n                lotteryStructs[_lotteryId].getMinimumAmountInBusd(),\r\n            \"Transferred amount is less than minimum amount\"\r\n        );\r\n\r\n        uint256 entryFee = tokensGetInBusdForTotalAmount.mul(4).div(100);\r\n        //uint256 tokensGetInBusd = convertSafeMarsToBUSD(entryFee);\r\n        lotteryStructs[_lotteryId].participate(entryFee, msg.sender);\r\n\r\n        uint256 stakingAmount = tokensGetInBusdForTotalAmount.sub(entryFee);\r\n        stakeInBUSD(stakingAmount, msg.sender);\r\n    }\r\n\r\n\r\n      function exit(uint256 _lotteryId) public nonReentrant {\r\n        require(lotteryWinnerDeclared[_lotteryId], \"Winner not declared\");\r\n        unstakeAllToSafeMars(msg.sender);\r\n        totalUnstakingCount = totalUnstakingCount.add(1);\r\n        lotteryStructs[_lotteryId].incrementUnstakingCount(1);\r\n    }\r\n\r\n    function getUnstakingCountByLottery(uint256 _lotteryId)\r\n        external\r\n        view\r\n        returns (uint256)\r\n    {\r\n        return lotteryStructs[_lotteryId].getUnstakingCount();\r\n    }\r\n      \r\n      function getAllParticiapntsByLottery(uint256 _lotteryId)\r\n        external\r\n        view\r\n        returns (address[] memory)\r\n    {\r\n        return lotteryStructs[_lotteryId].getAll();\r\n    }\r\n    \r\n   modifier restricted() {\r\n        require(msg.sender == admin);\r\n        _;\r\n    }\r\n\r\n    event LotteryCreated(uint256 lotteryId);\r\n}\r\n",
  "sourcePath": "C:\\Users\\rafae\\Documents\\GitHub\\sfe\\contracts\\LpLottery.sol",
  "compiler": {
    "name": "solc",
    "version": "0.8.0+commit.c7dfd78e.Emscripten.clang"
  },
  "schemaVersion": "3.4.2",
  "updatedAt": "2021-09-22T19:20:36.097Z",
  "devdoc": {
    "kind": "dev",
    "methods": {},
    "version": 1
  },
  "userdoc": {
    "kind": "user",
    "methods": {},
    "version": 1
  }
}